:02000004A0005A
:200000004258323400E01200A80600000DE012000000080000E0070000000300F8B572B67A
:2000200020204049886100F0A3F80121022000F0E7F93D4D2F4680372E4660360124240363
:20004000394A6021204600F06DF93848806932460019602100F066F9286DC10703D180075E
:2000600001D5314C07E0386BC10703D1800701D5344600E00024002CE0D0AC4201D100256B
:2000800001E02A488569A16DE06D401A21212818C9014718206DC006400F022818D00428DF
:2000A00016D0032000F0D4FA206D214EC006410F18D0430F32463846A16D00F0D7F81D4805
:2000C000006BC006C00E142812D3FF218E3111E00F2000F0BDFA00F01BF90028E4D100F089
:2000E00011F9E1E732463846A16D00F01BF9E6E7FF21B231204600F07FFA002803D10D4935
:20010000022040390860306880F308880848216D001DC9064A0F054949690468064B2846F3
:20012000A047F8BD0090142098E61200F0DF120000001000801020209933000010B50B4A28
:2001400058246143084B8918CA69984204D91A43CA615942401810BD0005000D120B120315
:200160001043C861002010BDFF0F0000000012200349012088610249FF20803988637047BB
:2001800080031220F8B504460F468068FFF7D6FF0246E0684104490F08D0012903D002297E
:2001A00006D1022603E00026022501E0002600258104C305890F5B0F09059B031943030585
:2001C0005B0FDB021943B3075B0D1943AB07DB0D194343075B0E80061943400F40000143A0
:2001E00058200F4B7843C018816100210164E1684B0249031B0F090FDB02C9010B439B1C62
:20020000436421680160616881600120B8408106890E8006800C0143024801621046F8BD5E
:200220000000122080031220F3B581B002990E4E01248C4031682142FCD00B4F4037BC635E
:20024000A506AD0EA106890C0D4309E00299FFF775FF0549C0310D6231682142FCD0BC6329
:200260000028F3D1FEBD0000C00212207FB5214C0002A568E4680191E9B2014300920C22B6
:200280000291F02091010394012B06D0022B0AD0032B16D0042B0ED11EE03B236C46A38135
:2002A000E389934313E06B236C46A381E3899343834319E0E381684600F0AEF8002004B028
:2002C00070BDBB236C46A381E38993431B1D83438B43FF330133EDE7EB236C46A381E389A5
:2002E00093431B1D834340338B43FF33FF330233E0E7000058E6120010B500F04BF8C10779
:20030000FBD110BD10B50221002000F067F810BD10B500F04CF8800701D5012010BD0020BC
:2003200010BD0000FEB50446080C029088B20025012716463F04019012E015A000680090F7
:20034000200C69464870200A8870CC703B4632460421684600F00AF9E419F6196D1CADB2F9
:2003600002988542E9D3019800280ED008A000680090200C69464870200A8870CC703246B8
:2003800004216846019B00F0F1F80020FEBD0000030000001CB505206946087101236A4645
:2003A000194601A800F0E2F8694608781CBD1CB535206946087101236A46194601A800F049
:2003C000D5F8694608781CBD08B50620694608700121684600F0FEF808BD000008B507A25D
:2003E000126800926A4650709170FFF7EDFF0321684600F0EFF8FFF77FFF08BD01000000BB
:20040000044A0023936050610248C030016313617047000000003020F0B50446406885B0E2
:2004200085088607A07BB60F01068207090FC902920D00071143800F014320200143314885
:200440004163304FC03F002D29D0E0892E498005800F400540183860681E78602948072134
:20046000803841610021C1600121C160B960A1890162A168016225480FC8009001A80EC040
:2004800020680190002102956846FFF77BFE012139610021FFF7C8FE0020B8603861002ED6
:2004A0002DD0E0891A498005800F400540183860701E7860134800218038C1600121B96034
:2004C000A1890162A168AB000A0AD2181202C9B20A43026201213961B96A4907FCD5B96A7A
:2004E000C907FCD12168CB18002103E0026A5A54491CC9B2B142F9D30020B860386105B0B0
:20050000F0BD0000C000302000021F0088E6120000020700054A0260091F01650021C164EF
:200520000221C1640121816070470000000107007FB504460C480D46C068039020466030DB
:2005400001900092002102936846FFF71BFE25610021FFF769FEA06A4007FCD5A06AC0070E
:20056000FCD1A06020617FBD68E61200F0B59446164C85B0144A22605A1E6260134D0726D4
:2005800040356E610026EE600126EE60A660002703E0C25D2A627F1CFFB28F42F9D30C4836
:2005A0000169C0690390604600910190002102936846FFF7E7FD26610021FFF735FE00201E
:2005C000A060206105B0F0BD000307000000302068E6120070B5074C0D46064640212046A0
:2005E000FFF798FF2B46324601212046FFF7A0FF70BD000000003020FEB50646806D0F46AA
:2006000001010005090C000D01252D050024019100900DE00122120329460020B8476100FF
:20062000715A81420FD1012000032D18641CA4B201988442EED329460020009AB847610064
:20064000715A814201D00020FEBD0120FEBD000004490A6A000712091201000F02430A62CE
:2006600070470000002013200000000000000000000000000000020000000000000000006E
:20068000000000004092000060003020000000000000000080A40000EC0030200000000078
:0A06A0000000000082A40000C282E6
:201000008A57E1ACDD31C3F6083402AAFDE90EDB052C708EB3724F91B94E1614E93534AC81
:20102000740F78E5407778E96FE70000000000000000000000000000000000000000000062
:2010400000000000000000000000000000000000EAFFFFFFFFFFFFFF2C41010028310200E4
:20106000000000000000000000000000000000000000000000000000000000000000000070
:20108000F7B545A18CB0096804460B91007A012802D0042802D002E0812600E08426A17A8A
:2010A000627A08021043801E214680B20AAA0D3109F506F200280CDD6846008D2018417D96
:2010C000342906D104220BA9173000F429F5002802D000200FB0F0BD6946088D08A92018F6
:2010E000C07E33380006000E087149D06425642800D30D71162005F511F008A81F210079A1
:201100000CF072FC08A802790021A81A83B2152006F54CF209AA0121382006F59EF369464C
:20112000088D0822211804A80D3100F4D5F4B420694608760020487604A90A2002F54AF722
:20114000694688761620C876144D67782F70EE710622A11C681C00F4BFF4E37A2B72217B8A
:2011600069720E98A8720C2204AC02920091039001943246691C384600F0C4FD0120A9E7CC
:20118000162004F56DF708A80F2100790CF02CFC002006F593F2BDE7DDDDDDDD0C4D12001C
:2011A000F8B50B46017A17460446012902D0042902D002E0812600E084261946FFF760FF4D
:2011C000012818D00C4D60782870EE710622A11C681C00F481F4E07A2872207B6872AF727A
:2011E000A17A627A08021043801E214680B202220D310CF011FBF8BD0C4D120070B504466B
:20120000007A8EB01646012802D0042802D002E0812500E08425A27A637A110219432229FD
:2012200019D0012802D0042802D002E0C12500E0C425032069460874207B012104AA0192EF
:20124000029100900396E37A60782A46A11C00F059FD0EB070BD002008F0FCFB01210020EE
:2012600006F0FAFD214610220D3105A800F434F4214610221D3109A800F42EF405A9002065
:2012800008F062FC09AA0121002006F0B7FE0121002006F02DFE0146044808F03BFA217B99
:2012A0000020019000910290CCE70000483B1100F0B5047A85B016460146012C02D0042CE9
:2012C00002D002E0812200E084228D7A4B7A2F021F43057BC37A4878022F15D0012C02D040
:2012E000042C02D002E0C12200E0C42203246F463C7404AF012401970095891C03960294FC
:2013000000F000FD05B0F0BD002400950194F4E7F0B589B00027044605970697007A1646F7
:20132000012802D0042802D002E0812500E08425A27A637A11021943082911D0012802D02E
:20134000042802D002E0C12500E0C425032069460874207B012104AA0192029100902AE085
:20136000214606220D3105A800F4B6F307A808F077F9062205A907A800F4D2F3002816D0F3
:2013800005A808F085F9207B0197029703960090E37A60782A46A11C00F0B4FCFF210023F0
:2013A000094AF53109480BF00BFF09B0F0BD207B0197029700900396E37A60782A46A11CA1
:2013C00000F0A0FCF1E700005DE18000F84C1200F0B5047A85B016460146012C02D0042C6B
:2013E00002D002E0812200E084228D7A4B7A2F021F43057BC37A4878022F15D0012C02D01F
:20140000042C02D002E0C12200E0C42203246F463C74012404AF891C0197039600950294DA
:2014200000F070FC05B0F0BD00240194891C03960095029400F066FCC82005F025FE0DF07D
:2014400017F8EFE7F0B5017A85B016460446012902D0042902D002E0812500E08425601C24
:20146000A37B0246677B18023843537A177A1A023A43042A07D1C20705D0032803D3FF22D2
:20148000B832904219D9012902D0042902D002E0C12500E0C425032069460874207B012107
:2014A00004AA0192029100900396E37A60782A46A11C00F027FC05B0F0BD0AF011FA217BB7
:2014C0000020019000910290EEE7F0B5047A85B016460146012C02D0042C02D002E08122E2
:2014E00000E084228D7A4B7A2F021F43057BC37A4878022F15D0012C02D0042C02D002E091
:20150000C12200E0C42203246F463C74012404AF891C019703960095029400F0F3FB05B02A
:20152000F0BD00240194891C03960095029400F0E9FB00F013FEF2E770B594B0002104465A
:2015400012911391007A1646012802D0042802D002E0812500E08425A27A637A11021943FC
:20156000022919D0012802D0042802D002E0C12500E0C425032010A90871012111AA207B00
:201580000192029103960090E37A60782A46A11C00F0B8FB14B070BD342104A800F4B5F26A
:2015A0000922154904A800F497F2144869460078487607F099FE694648830622104907A800
:2015C00000F48AF212A808F04BF808A8062212A9023000F481F206220A490AA800F47CF2EB
:2015E0000A2008A988730BA80C220749033000F473F22B2104AAC2E7CCF08000E640110042
:20160000F0401100F6401100174D120070B50446007A86B01646012802D0042802D002E076
:20162000812500E08425A27A637A11021943142919D0012802D0042802D002E0C12500E04C
:20164000C425032069460874207B012104AA0192029103960090E37A60782A46A11C00F047
:2016600051FB06B070BD214606220D311B4800F433F21A4A0621342006F5EFF021460C22A4
:201680001331174800F428F2154A0C21352006F5E4F0217B00200091019003960290E37A83
:2016A00060782A46A11C00F02DFB0E4800780007D7D10A480A220078010900075143000FE6
:2016C0000818C0B2212100F49BF1481C0BF042FE0548017800200BF023FEC2E7F640110025
:2016E000174D1200D140110012411100F0B50446007A1646802105460D4301221C4B87B02C
:20170000012819D0042831D1607B6F4638700707611C3F0F022F05D24F7A097A3F020F4391
:20172000032F11D040200543032069460874207B04A96B4647C313E0187869460875207B53
:2017400005A96F4647C70BE01870094A0121372006F583F0217B0020019003960091029062
:20176000E37A60782A46A11C00F0CCFA07B0F0BDD140110030B51546027A80231A4385B0DA
:20178000084B6C465B782374037B0093012404A901AB32C34478C37A811C204600F0B2FABE
:2017A00005B030BD4A5512007FB50446007A1646012802D0042802D002E0812500E0842578
:2017C00021460D3106200CF0F1FB217B00200091019003960290E37A60782A46A11C00F0FB
:2017E00091FA7FBDF7B50446007AD0B0012802D0042802D002E0812600E08426DE2143489C
:2018000000F483F1601CA17B07460802627B21461043009006220F314EA800F45DF13B4D22
:2018200002202870607868702E720622A11CA81C00F452F1284606224EA90E3000F44CF1C2
:20184000E07A6872207BA8725298E8720098A8812C2143A800F459F1802040A908732146B9
:2018600043A805220D31013000F436F140A9887CE3210840C006C00E40A98874C87CBF21F6
:2018800080098001401C08404006400E40A9C87405F0F8FF48A90872902088722520C87261
:2018A000C8200090787A397A000208430A382B46C1B2153322461E46153243A80BF09CFDBE
:2018C0002875002269460A743C224A74024604AC3146A01C00F400F1287DFF210C4A801C39
:2018E0000294009203910190A8890A4B401C80B20122002106F0F2F828460023064A074932
:20190000E0300BF05DFC53B0F0BD0000244F120003F08000483B1100F52880007017000003
:2019200070B50446057A802086B01646054304AA0221392005F582F7207B022104AA0192A3
:20194000029103960090E37A60782A46A11C00F0D9F906B070BDF0B51546027A80231A4348
:20196000837A447A1E0226430146047BC37A4078B61E87B0032E0FDA4026324303266F468A
:201980003E74012604AF891C019702960395009400F0B8F907B0F0BD4F7B8E7B0696CE7BFD
:2019A000059600260196891C02960395009400F0A9F9642005F068FB012F05D00022059933
:2019C00006980CF05BFDE5E700230420059A06990CF0B2FDDEE700007FB50446007A154601
:2019E000012817D0042814D11049607B08700A46842601213A2005F530F7217B0020019036
:201A0000039500910290E37A60783246A11C00F079F97FBD207B81220121044B0395019328
:201A200002910090E37A6078F0E70000D2401100F0B504461546007A0122294B93B001288D
:201A400019D0042849D1A77A607AA17B3F02074348008426381A042826D0C421032010AB8C
:201A60001871207B11AB0292039501930090E37A60780A462EE069460A740E2048748126E5
:201A80000221012004AF78541A5C491C89B27A54491C401C80B289B20E28F4D9207B1E2194
:201AA00001970291009011E0012006E0420017197A7BBF7B401C9F5480B28842F6D90AF0BE
:201AC000C9FA217B00200190009102900395E37A60783246A11C00F015F913B0F0BD000063
:201AE0002253120010B5002919D00278BD2A16D14418203CE27F162A11D1827A437A120238
:201B00000D331A438A420AD1C91E8AB2411C104602F560F2A17F884201D1012010BD002098
:201B200010BD0000F7B586B0164604460799FFF7D9FF002809D060780090217BE07A0F0272
:201B4000257A0743022E03D009E0022009B0F0BD06226749A01CFFF7E3DF002803D1012DB2
:201B600003D0042D01D00020F0E7009801210A280AD0207A012802D0042802D002E0C12578
:201B800000E0C4250520A3E05A4AB81A97426BD015DC594AB81A97424ED009DC5748381819
:201BA00032D0012836D002283AD0032826D13DE0012847D07E284BD0FC281FD14EE0504BA3
:201BC000C21A98426ED00ADC012853D0022857D0FF38FF38C01E59D003280FD15CE0012AA7
:201BE00066D0022A6AD00B200002824206D1324620460799FFF71CFF0120A7E7207A012880
:201C000062D0042862D062E0324620460799FFF7C7FAF1E7324620460799FFF7EFFAEBE7B6
:201C2000324620460799FFF743FBE5E7324620460799FFF76DFBDFE7324620460799FFF710
:201C4000C7FBD9E7324620460799FFF7FBFBD3E7324620460799FFF738FCCDE732462046A4
:201C60000799FFF769FCC7E7324620460799FFF7CDFCC1E7324620460799FFF737FDBBE78C
:201C8000324620460799FFF775FDB5E7324620460799FFF789FDAFE7324620460799FFF7BE
:201CA000A1FDA9E7324620460799FFF739FEA3E7324620460799FFF74EFE9DE7324620469F
:201CC0000799FFF789FE97E7C12500E0C42504206A461074207B04AA0192029103960090CA
:201CE000E37A60782A46A11C00F00CF83BE70000F040110002B2000005B10000FF4EFFFF76
:201D0000FF0C0000FFB585B0FF240646013421463C48109F119DFFF7F8DE38460F300090CA
:201D2000A0426CD8374CBD20207066700622A01C0699FFF7D1DE07982072B81C6072000AAE
:201D4000A0720898E0720E98207320463A460D300F99FFF7C1DE38460C30264680B2711C01
:201D600002F538F1E1194873162088730098264C80B2A080002D08D0012D0CD0022D16D0DD
:201D8000032D1AD0042D37D039E001461D4A002005F5A2F733E006F031F8A18801960091F4
:201DA00001780523FF22002008F04EFC27E0C1B2012214480BF0E4FA21E0FF22811C01323B
:201DC00091421CD802460F49B01CFEF4EDF1002030703B207070A088FF21801C80B201905E
:201DE0000A4A0B48029600920391828841880088084B05F073FE02E002490AF089FB00209F
:201E000009B0F0BD234E1200D240110003F0800058501200483B110010B512480021C17183
:201E20000173017000F004FD00F08EFC0CF0E2F800F01CF80AF076F803F09CFC0BF07EFF0D
:201E400005F006FD0AF08DF80AF0C8F806480078000703D10BF0C0FC0BF0F6F900F06CFEB5
:201E600010BD0000DA401100D140110010B50BF055FE174A0621342005F5E0F4002803D18F
:201E800006211348FFF741DE124A0C21352005F5D5F4002803D10C210E48FFF736DE0E4A29
:201EA0000121372005F5CAF40B49002804D008780007000F022801D300200870074A012102
:201EC0003A2005F5BBF4002801D10449087010BDF6401100174D1200D1401100D240110071
:201EE00070B500242546042004F5BAF001266006040E052004F506F1002800D03443042020
:201F000004F50CF1062000F069F9042004F5A8F06D1CEDB2082DEAD3204670BD70B5054681
:201F2000082410E0280603D5062004F5F7F002E0062004F595F0042004F5F0F06806050E75
:201F4000042000F04BF9042004F58AF02046641EE4B20028E6D1042004F582F070BD70B554
:201F6000002310E0CC5C25092407240F30343035392D00D9ED1D392C00D9E41D5E00855511
:201F800035186C705B1C9342ECDB70BD7CB50C46054605F033FF0178FF2906D00223FF2226
:201FA00000200095019408F04FFB7CBD30B5044689B032A00B460068079006AA214618465D
:201FC00008F57EF200280CDD6846008B2018017A342906D1042207A90A30FFF7A1DD0028B7
:201FE00002D0002009B030BD6946088B2018807B33380006000E087533D06425642800D3ED
:202000000D75162004F58AF068461F21007D0BF0EBFC6846027D0021A81A83B2152005F5D4
:20202000C5F205AA0121382005F517F41449012008706946088B082221186846FFF74CDD53
:20204000B42069460872002048720A2001F5C2F7694688721620C8720C2000F0D7FC0120A7
:20206000C0E7162003F5FCF768460F21007D0BF0BBFC002005F522F3D3E70000DDDDDDDD2E
:20208000E640110030B5044689B032A00B460068079006AA2146184608F512F200280CDDF8
:2020A0006846008B2018017A342906D1042207A90A30FFF735DD002802D0002009B030BD28
:2020C0006946088B2018807B33380006000E087533D06425642800D30D75162004F51EF0E5
:2020E00068461F21007D0BF07FFC6846027D0021A81A83B2152005F559F205AA0121382017
:2021000005F5ABF31449012008706946088B082221186846FFF7E0DCB4206946087200200F
:2021200048720A2001F556F7694688721620C8720C200AF0EDF90120C0E7162003F590F7D6
:2021400068460F21007D0BF04FFC002005F5B6F2D3E70000DDDDDDDDE640110010B50BF0F7
:202160005FF810BD10B503460122114622200CF0F1F810BDF7B5184DAA20287000261446CC
:202180006E7003200BF0EEFF2246019900980CF0DBFA0EF51FF3044604E0019805F028F9F9
:2021A000012803D02878AA2806D00EE000980CF0B6FA2E700120FEBD0EF50CF3071BFF20EC
:2021C00091300AF06FFF8742E7D900980CF0A7FA2E700020FEBD00001C411100002101E02F
:2021E000491CC9B28142FBD37047000030B50D460446054904E02046641C00F007F80146E7
:202200006D1EF8D230BD0000FF01000010B5027821234A4002700020FF2401340A461A40DB
:202220004908212A08D0002A06D02143401CC0B20828F3D3084610BDC9B2F7E708B506A12A
:2022400009680091042802D26946085C01E068460078FFF787FF08BD7F2D140AF0B58DB075
:202260000CA968460BF02AF8040026D02C2101A8FFF74BDC6846017801AA20460BF038F96D
:20228000002862D001A8052233490130FFF748DC002812D16846C07AC00910D02F480078C2
:2022A00080070AD52E4908A800780978884204D168462146007800F097F80DB0F0BD294F0B
:2022C00038780128F9D001252749284E0D70002810D06846027821462548FFF7FDDB684653
:2022E0002449007808703570FF2175703346224A2D311BE02C2201A92048FFF7EDDB3D70CE
:2023000008A8417A007A0019FFF7ECFB012811D008A8007A021908A8417A002005F5DCF43E
:202320000020124B144A4B213070490114480AF047FFC2E73D7008A8417A007A0422001956
:20234000FFF7F0FB00203870B7E76846017802222046FFF7E7FBB0E7F0401100DB401100A9
:202360000C411100DA401100E8401100EA401100B8511200E74011001DD980002C50120009
:202380007850120010B51249124A0878022818D21378002B15D0401C08700F480178491CAF
:2023A000C9B2017000200AF0BBFF0C4800220078801EC1B20A480AF0E3FF0A480AF0E4FE02
:2023C00010BD002008701078FD210840107010BD0D411100DB40110012411100E24011003B
:2023E000DE5012003453120010B5044801780021017003480AF0A0FE10BD0000DB4011000C
:20240000345312000FB4FEB50D460CAA19480B99FFF472F1029000271648FDF4F9F6154EEF
:20242000044630192038C07F0A2800D1641E68000019FE2804DDFE20001BC10F08184510E7
:2024400030192A460A99FFF78AFD68000A210019315481194F70401C80B200900223FF22B5
:2024600001960020089908F0EFF80298FEBC08BC04B018474C2A12000FB47CB5054608AA81
:202480000B480799FFF438F104460948FDF4C0F680B20749019100900223FF222946002072
:2024A00008F0D2F820467CBC08BC04B0184700004C2A12000FB470B5174D2878012806D072
:2024C000022804D0002070BC08BC04B01847134800780028F7D00CF585F205AA10480499FD
:2024E000FFF40AF104462878012802D0022809D00FE00B48FDF48CF681B2094A002005F5B1
:202500000BF406E00648FDF483F680B20449FFF73DFD2046D7E70000D24011005440110083
:202520004C2912000FB4F8B5254E07463078012806D0022804D00020F8BC08BC04B0184794
:20254000204800780028F7D00CF54CF209AA1E480899FFF4D1F000901B48FDF459F61A4D65
:20256000044628192038C07F0A2800D1641E78000019FE2804DDFE20001BC10F081847109C
:2025800028193A460799FFF7EAFC780000190A2129540021421951703178012902D00229B8
:2025A00007D00BE0401C81B2074A002005F5B4F304E0401C80B20449FFF7E8FC0098BBE7E5
:2025C000D2401100544011004C2912000FB4F8B505460CF507F209AA17480899FFF48CF0D5
:2025E000009000271448FDF413F6134E044630192038C07F0A2800D1641E68000019FE2817
:2026000004DDFE20001BC10F0818451030192A460799FFF7A4FC68000A21001931548119A1
:202620004F70401C81B2044A002005F575F30098F8BC08BC04B018474C2A12000FB410B549
:202640000CF5D0F103AA09480299FFF455F004460648FDF4DDF581B2044A002005F55CF3A2
:20266000204610BC08BC04B0184700004C2A12001CB50CA003C8019100901C460622194676
:202680006846FFF74DDA002805D0A2786178207809F06EFC1CBD0023044A054905480AF0A5
:2026A0008FFD1CBDAAAAAAAAAAAA000019558000983A0000CC52120070B51446BD222270D9
:2026C00060700622A01CFFF707DA01202072022565720020A072BB20E0722073611C0C2023
:2026E00001F578F460731620A0730F2070BD000000B58DB007480AF047FD6A4606490A2058
:20270000FFF7DAFF01460A236A46FF2003F5E6F50DB000BDD04C1200F040110010B5FFF730
:20272000E7FF7D218901054805F510F001460023034A04480AF044FD10BD0000881300009E
:202740001D278000D04C120010B50023024A034903480AF035FD10BD1D2780008813000064
:20276000D04C1200F0B515460E46074691B01C46062219462848FFF7D3D9002809D0062225
:2027800021462548FFF7A8D9234A0621342005F564F022480078000713D11F480A220078E0
:2027A000010900075143000F0818C0B22121FFF727D9481C0AF0CEFD1948017800200AF07E
:2027C000AFFD154901201C39087323462A46314638460BF0B5F90020694608743820487428
:2027E0000D4904AC0622891FA01CFFF775D9FE20039008210B4A0C480294009201918288BC
:2028000041880088094B05F069F907485C300AF0BBFC11B0F0BD0000F6401100D140110059
:202820001241110003F0800058501200483B110010B50023024A034903480AF0C1FC10BD24
:202840004D28800080FC0A00B450120008B5002000906A460221392004F5F0F7002803D073
:2028600069464878401C48706A460221392004F5F4F70BF0FDFD08BD70B58CB006461C46FC
:2028800015462C216846FFF740D9E9B26A4620460AF02EFE00281FD0124D0120EE8068701F
:2028A0002C2269461048FFF717D908A8417900790019FFF77BFB012810D008A80079021928
:2028C00008A84179002005F507F27D210023074A090107480AF074FC0CB070BD00206870C5
:2028E000FAE70000D2401100A44C12008D2A80001850120030B51E4900200A78C5B0002A94
:2029000023D06A4610743C2050740C460A7D04AD1531A81CFFF7E0D8207DFF21154A801C76
:202920000295009203910190A089134B401C80B20122002105F0D2F82078401E20700C4857
:20294000E0300AF021FC45B030BD40AA1073887ACC7A012343AA6D461DC54B7A4878C122AB
:20296000891CFFF7CFF90248E0300AF0E5FBEAE7244F120003F08000483B1100F0B5CFB03F
:202980001F4616462C2143A8FFF7BFD81E4D6946A8890882294604AC06220E31A01CFFF7A4
:2029A0009BD8F1B243AA38460AF0A2FD010006A810D048AB197C5A7CC919FFF78DD848ABE0
:2029C000587CEA7AAB7A0830294601940093039202900CE032463946FFF77ED8E87AAB7AEE
:2029E0000836B2B2294601940093029203904B7A0A7A4878A91CFFF785F90348E0300AF0E0
:202A00009BFB4FB0F0BD0000244F1200F0B5CFB00F4604462C2144A8FFF777D816480AF056
:202A20008BFB164E002575702C22154944A8FFF753D840A9C87D8021084340A9C875FD208C
:202A4000E1B204AC00903A4644A8A31C0AF0D4FC69460D743D224A74FF210A4A801C0092BF
:202A6000039102940190084B01220021F08805F035F84FB0F0BD000018501200D240110021
:202A8000A44C120003F08000483B11000149002048707047D2401100FFB5941CC3B01546FF
:202AA0000E46FA2C2DD8032229464698FFF73AF807461549012008732A463146469B439813
:202AC0000BF03EF8022F18D10020694608743B2048742A4604ADA81C4699FEF7FDDFA0B262
:202AE0000190FF21094A0A48029500920391828841880088074B04F0F1FF05485C300AF05F
:202B000043FB47B0F0BD0000DA40110003F0800058501200483B110010B505480AF034FBAC
:202B200004480078000701D1FFF798FB10BD0000B8521200D140110010B50023024A0A2105
:202B400002480AF03DFB10BD192B8000B85212001FB50B4CA27A637A0191009303920290DC
:202B6000237AE2792078611CFFF7CCF805490020087005490870204628380AF0DDFA1FBD6F
:202B80000C4D1200E5401100DA40110030B50C4985B0002008700B49C42208706946087485
:202BA00009490124CA718D7A487A039504AB6D4619C50B7A0878491CFFF7A4F805B030BD24
:202BC000E5401100DA4011000C4D12007FB50022044600920192029203920D460868114621
:202BE000FDF436F386B26868FDF412F320280BD103E0112126E0112213E06A4610216868A7
:202C00000BF0F8FB102802D0FF2CF4D1F1E76A463146002005F0F2F9002807D0FF2C10D0C3
:202C200016220AA12046FFF727FC7FBDFF2C04D00AA12046FFF720FC7FBD08A0FFF7FEFC00
:202C40007FBD162101A0FFF7F9FC7FBD4552524F523A3078253032780A0000004F4B0A0020
:202C60007FB50022044600920192029203920D460868FDF4CDF220280BD103E0112128E0B2
:202C8000112215E06A46102128680BF0B3FB102802D0FF2CF4D1F1E7002006F0DBFE694682
:202CA000002006F051FF002807D0FF2C10D016220AA12046FFF7E0FB7FBDFF2C04D00BA1A3
:202CC0002046FFF7D9FB7FBD08A0FFF7B7FC7FBD162102A0FFF7B2FC7FBD00004552524F0A
:202CE000523A3078253032780A0000004F4B0A00F0B585B0044600270D460120009705F0A8
:202D0000DDFD060051D03022082101A8FEF7F6DE2868FDF47DF2082800DD08200821081A55
:202D2000002101AA08E0162143E0162237E02B685B5C1354401C491C0828F8DB6A460421EC
:202D400001A80BF057FB6A46107851780006C01909040818917809020818D1784018010C8E
:202D6000918106D082B26846C281304606F0F6FC07E081B200209181C043D081304606F0DC
:202D8000E5FC060011D0002211466868FDF460F281B21448814210D8FF2C09D0132212A1B9
:202DA0002046FFF769FB05B0F0BDFF2CBDD1BAE713210DA0FFF742FCF5E7304606F0E6FC58
:202DC0000028F2D13046143008F017FEFF2C04D009A12046FFF750FBE5E707A0FFF72EFC5E
:202DE000E1E70000FF7F00004552524F523A3078253032780A0000004F4B0A0010B5FF2888
:202E000003D004A1FFF738FB10BD02A0FFF716FC10BD00004F4B0A00F0B504460D460022C5
:202E2000086887B01146FDF413F2002705900397012005F043FD06005CD030220921684696
:202E4000FEF75CDE6868FDF4E3F1082822DC0821081A00216A4614E0162102E0162206E039
:202E600011212BA0FFF7EAFB07B0F0BD112228A12046FFF701FBF7E76B685B5C1354401C97
:202E8000491C0828F8DB03AA042168460BF0B2FA042802D0FF2CE9D1E2E76A46107B517BF0
:202EA0000006C01909040818917B09020818D17B4018010C118206D082B268464282304699
:202EC00006F04CFC07E081B200201182C0435082304606F03BFC05000CD0059881B200209E
:202EE00005F006F8002805D00146284606F012FC002802D0FF2CB1D1AEE7FF2C04D008A145
:202F00002046FFF7B9FAAFE705A0FFF797FBABE74552524F523A3078253032780A000000D8
:202F20004F4B0A00F0B585B0044600270D460120009705F0C3FC060051D03022082101A898
:202F4000FEF7DCDD2868FDF463F1082800DD08200821081A002101AA08E0162143E0162228
:202F600037E02B685B5C1354401C491C0828F8DB6A46042101A80BF03DFA6A461078517814
:202F80000006C01909040818917809020818D1784018010C918106D082B26846C2813046C0
:202FA00006F0DCFB07E081B200209181C043D081304606F0CBFB060011D000221146686842
:202FC000FDF446F181B21448814210D8FF2C09D0132212A12046FFF74FFA05B0F0BDFF2C71
:202FE000BDD1BAE713210DA0FFF728FBF5E7304606F004FC0028F2D13046143008F0FDFCCA
:20300000FF2C04D009A12046FFF736FAE5E707A0FFF714FBE1E70000FF7F00004552524F85
:20302000523A3078253032780A0000004F4B0A0070B50D460446096818A0FDF4F0F0184E8D
:2030400000280DD017A02968FDF4E9F0002813D0FF2C1ED0112214A12046FFF70DFA70BDBD
:20306000FF2C05D014A12046FFF706FA01200AE011A0FFF7E3FAF9E7FF2C06D011A12046B7
:20308000FFF7FAF90020707070BD0EA0FFF7D6FAF8E7112104A0FFF7D1FA70BD4F4E000066
:2030A000D43C11004F4646004552524F523A3078253032780A0000004543484F204F4E0AB9
:2030C0004F4B0A004543484F204F46460A4F4B0A0000000010B50446002208681146FDF49B
:2030E000B7F0C0B204280CD9FF2C05D011220BA12046FFF7C1F910BD112108A0FFF79EFA7C
:2031000010BD04F5DBF2FF2C04D008A12046FFF7B3F910BD05A0FFF791FA10BD4552524F74
:20312000523A3078253032780A0000004F4B0A0010B5044608F07EFA3C21064AFF2C5160A6
:2031400004D005A12046FFF797F910BD02A0FFF775FA10BDD43C11004F4B0A00F8B50546AB
:203160000C46002248681146FDF472F00646002211462068FDF46CF080B231460CF52EF11E
:20318000040018D0FF2D0CD011A12846FFF774F96079009023790FA128462268FFF76CF9B0
:2031A000F8BD0BA0FFF74AFA6379227909A02168FFF744FAF8BDFF2D05D0102209A1284698
:2031C000FFF75AF9F8BD102106A0FFF737FAF8BD4F4B0A0025642C25642C30782530327889
:2031E0000A0000004552524F523A3078253032780A0000001CB5044601A80CF52FF1FF2C40
:203200000ED00DA12046FFF737F96846C079009068468379828809A12046FFF72DF91CBD66
:2032200005A0FFF70BFA6846C3798279818803A0FFF704FA1CBD00004F4B0A0025642C2512
:20324000642C25640A00000070B506460C46002248689AB01146FCF4FBF70546002211466F
:203260002068FCF4F5F780B26B46642229460CF56FF1FF2E0BD00AA13046FFF7FDF809A3F1
:203280006A4664213046FFF7BDF81AB070BD04A0FFF7D4F903A269466420FFF797F9F4E741
:2032A0004F4B0A000000000030B5ADB005466946B4200CF5C3F10446FF2D0BD00AA128463B
:2032C000FFF7DAF809A36A4621462846FFF79AF82DB030BD04A0FFF7B1F904A269462046A4
:2032E000FFF774F9F4E700004F4B0A000000000038B505460C46002208681146FCF4A8F7EA
:2033000069460880002211466068FCF4A1F76946887000221146A068FCF49AF76946C8701D
:2033200068460CF5F3F1FF2D04D004A12846FFF7A3F838BD01A0FFF781F938BD4F4B0A00B7
:2033400038B50546002208681146FCF481F780B20BF5EAF7040018D0FF2D0CD011A12846BD
:20336000FFF78AF86079009023790FA128462268FFF782F838BD0BA0FFF760F96379227952
:2033800009A02168FFF75AF938BDFF2D05D0102209A12846FFF770F838BD102106A0FFF752
:2033A0004DF938BD4F4B0A0025642C25642C3078253032780A0000004552524F523A3078A7
:2033C000253032780A0000003EB505460C460868FCF41EF70E2805D0FF2D01D011222AE09A
:2033E00011212EE000200190029001AA072120680BF000F801A80BF5C1F7040018D0FF2D83
:203400000CD012A12846FFF737F86079009023790FA128462268FFF72FF83EBD0BA0FFF724
:203420000DF9637922790AA02168FFF707F93EBDFF2D05D010220AA12846FFF71DF83EBD99
:20344000102107A0FFF7FAF83EBD00004F4B0A0025642C25642C3078253032780A000000F2
:203460004552524F523A3078253032780A00000010B50446FF280BD005F036FF024609A1AA
:203480002046FEF7F9FF08A12046FEF7F5FF10BD05F02AFF014603A0FFF7D0F802A0FFF7B6
:2034A000CDF810BD25640A004F4B0A00FEB505460020009001906A460921029004F060FD47
:2034C000074600242EE0381B03286846015D10DA001940780007000D0918FF2D05D00A46A2
:2034E0001BA12846FEF7C8FF20E019A0FFF7A6F829E0061970780007000D0918FF2D1AD03E
:203500000A4613A12846FEF7B7FF7078B178000909014118FF2D12D00A460DA12846FEF7A2
:20352000ABFFE41CBC42CEDBFF2D0CD00DA12846FEF7A2FFFEBD06A0FFF780F8E5E704A041
:20354000FFF77CF8EDE707A0FFF778F8FEBD00006170706B657920696E6465783A25640AD6
:20356000000000004F4B0A00F0B58BB0002704460D460497059706970120039705F09EF9E8
:20358000060059D03022092107A8FEF7B7DA2868FCF43EF6082822DC0821081A002107AA4C
:2035A00014E0162102E0162206E0112149A0FFF745F80BB0F0BD112246A12046FEF75CFF5A
:2035C000F7E72B685B5C1354401C491C0828F8DB03AA042107A80AF00DFF042802D0FF2CE8
:2035E000E9D1E2E76A46107B517B0006C01909040818917B09020818D17B40180090010CBD
:203600009180009806D082B26846C280304606F0A5F807E081B200209180C043D0803046EA
:2036200006F094F8002807D004AA092106F088F8060001D0002535E0FF2CB4D1B1E7701BD7
:20364000032804A8415D12DA401940780007000D0A18FF2C06D0134622A12046009AFEF7B0
:203660000BFF23E01FA00099FEF7E8FF2DE0471978780007000D0A18FF2C1CD0134619A14C
:203680002046009AFEF7F8FE7878B978000909014218FF2C14D0134612A12046009AFEF7A1
:2036A000EBFEED1CB542CADBFF2C0ED016A12046FEF7E2FE7DE70BA00099FEF7BFFFE3E75C
:2036C00008A00099FEF7BAFFEBE70FA0FEF7B6FF6FE700004552524F523A3078253032780F
:2036E0000A0000006D6F64656C2069643A3078253038782C6170706B657920696E646578ED
:203700003A25640A000000004F4B0A0010B5044605F0A4FCFF2C04D004A12046FEF7ACFEEB
:2037200010BD02A0FEF78AFF10BD00004F4B0A0070B586B005460024E0B205F0D1FA0028E7
:2037400015D0C179FF2D1DD08A090B078E0789069B0FB60F890F0492029603930191817911
:2037600000910389224612A12846FEF785FE641C0A2CE1DBFF2D17D01AA12846FEF77CFE0E
:2037800006B070BD0B078E078A098906890F9B0FB60F009101960293039283790289214636
:2037A00003A0FEF74BFFE2E70EA0FEF747FFE7E7696E6465783A25642C616464723A256442
:2037C0002C696E746572666163653A25642C723A25642C703A25642C663A25642C6C3A253D
:2037E000640A00004F4B0A0010B5044603F55EF10146FF2C09D0024607A12046FEF73CFE91
:2038000006A12046FEF738FE10BD03A0FEF716FF02A0FEF713FF10BD25640A004F4B0A0049
:20382000FEB5054605F06EFD074605F063FD064605F04CFD044605F051FDFF2D0CD00190D8
:2038400033463A460AA100942846FEF715FE13A12846FEF711FEFEBD0090234632463946E9
:2038600003A0FEF7EBFE0DA0FEF7E8FEFEBD000072656C61793A25642C70726F78793A25D7
:20388000642C667269656E643A25642C6C6F7720706F7765723A25640A0000004F4B0A0021
:2038A00010B50446002208681146FCF4D1F480B206F016F8010012D0FF2C09D002460EA147
:2038C0002046FEF7D9FD10A12046FEF7D5FD10BD09A0FEF7B3FE0CA0FEF7B0FE10BDFF2C76
:2038E00005D0162209A12046FEF7C6FD10BD162106A0FEF7A3FE10BD697620696E646578CF
:203900003A307825780A00004F4B0A004552524F523A3078253032780A0000001CB50F4BDA
:2039200004469A88197858889B79FF2C0CD00093019203460A460A492046FEF79DFD09A1DE
:203940002046FEF799FD1CBD009202460448FEF775FE04A0FEF772FE1CBD00000C3D1100D3
:20396000BCF680004F4B0A001CB50446684605F077FEFF2C0AD00AA36A4606212046FEF75A
:2039800041FD08A12046FEF777FD1CBD04A269460620FEF71BFE03A0FEF750FE1CBD000050
:2039A000000000004F4B0A00F3B587B00025294E2C013068015B002922D0201807F0D1FBB1
:2039C0000799FF2931688C4625D06218917B0E078F078B098906B60FBF0F890F049705960A
:2039E00006930391137A5189FF3B013B00910290019361460B5B2A4617A10798FEF73CFD04
:203A00006D1C322DD3DB0798FF281ED022A1FEF733FD09B0F0BD6218917B0E078F078B0949
:203A20008906B60FBF0F890F0397049605930291117A0190FF3901390091538961460A5B66
:203A4000294605A0FEF7FAFDDAE713A0FEF7F6FDDFE70000C040110025642C616464723AA9
:203A600025642C6C69666574696D653A25642C727373693A25642C6C696E6B206E756D3A4B
:203A800025642C723A25642C703A25642C663A25642C6C3A25640A004F4B0A001FB500218A
:203AA000044600910191029103916946002005F0F1FF002802D0FF2C12D007E0FF2C0AD0CB
:203AC00009A36A4610212046FEF79CFC07A12046FEF7D2FC1FBD04A269461020FEF776FDCC
:203AE00002A0FEF7ABFD1FBD000000004F4B0A00F0B5054600208BB0089009900790039061
:203B0000049005900690FF2D18D005F0EDFB024650A12846FEF7B0FC01A805F0A1FDFF2D45
:203B200013D04FA301AA06212846FEF76BFC03A9002005F0AFFF00280DD014E005F0D4FBE8
:203B4000014644A0FEF77AFDE6E745A201A90620FEF73CFDEBE7FF2D0DD043A303AA10217D
:203B60002846FEF74FFC07AA0921002004F008FA0746002450E03CA203A91020FEF726FD33
:203B8000F1E7381B032807A8015D1CDA001940780007000D0918002004F0AAF90168FF2D7A
:203BA00009D00902090D021D009132A310212846FEF728FC34E009020B0D011D2DA210207A
:203BC000FEF704FD42E0061970780007000D0918002004F08DF90168FF2D27D00902090D4A
:203BE000021D009123A310212846FEF70BFC7078B178000909014118002004F079F9016848
:203C0000FF2D1BD00902090D021D009119A310212846FEF7F7FBE41CBC42B2DBFF2D15D0DE
:203C20001BA12846FEF728FC0BB0F0BD09020B0D011D10A21020FEF7C9FCD8E709020B0D1A
:203C4000011D0CA21020FEF7C1FCE4E710A0FEF7F5FCE9E7616464723A25640A000000001D
:203C60006D61633A000000006E6574206B65793A000000006170706B657920696E6465782D
:203C80003A25640A617070206B65793A000000004F4B0A00F0B5002587B007462C4602A865
:203CA000009005AB04AA214603A803F55DF4012817D16946088A898A41188EB264214843AD
:203CC0003146FDF79DDE80B2FF2F14D00190009668460389027B13A13846FEF7CDFB6D1C64
:203CE000ADB2641CE4B2052CD9D3002D0ED0FF2F0AD01AA10DE0009068460289017B3346F9
:203D000008A0FEF79BFCEAE714A008E0FF2F05D013A13846FEF7B0FB07B0F0BD10A0FEF724
:203D20008DFCF9E770696E206E756D3A25642C6368616E6E656C3A25642C706572696F6429
:203D40002074696D653A25646D732C6475747920726174696F3A256425250A004F4B0A0005
:203D600070776D206E6F74207365740A0000000038B504466A460121212003F55FF5012849
:203D800002D0002069460870FF2C68460DD001788807CA07C30FD20F0AA12046FEF76CFB5B
:203DA0000DA12046FEF768FB38BD00788107CA0FC107C90F03A0FEF741FC07A0FEF73EFC7E
:203DC00038BD000077617465723A25642C676174653A25640A0000004F4B0A00F3B583B0EF
:203DE0000024600026181C480568AF5D002F12D00398FF281CD003212046FDF717DE4200B0
:203E0000701941788078019100903B4613A1D21C0398FEF731FBA5208000641C8442E0DB21
:203E20000398FF2813D017A1FEF726FB05B0F0BD03212046FDF7FADD410070194278009242
:203E400083783A4605A0C91CFEF7F8FBE3E70DA0FEF7F4FBEAE70000CC4011006164647291
:203E60003A25642C6C69666574696D653A25642C69643A25642C64697374616E63653A25AF
:203E8000640A00004F4B0A00F0B587B0002704460D460097019702970120039704F00EFDEE
:203EA00006000FD03022082104A8FDF727DE2868FCF4AEF1082800DD08200821081A00213D
:203EC00004AA0DE0FF2C39D016222EA12046FEF7D3FA07B0F0BD2B685B5C1354401C491C0E
:203EE0000828F8DB03AA042104A80AF083FA6A46107B517B0006C01909040818917B0902A0
:203F00000818D17B4018010C118306D082B268464283304605F022FC07E081B20020118368
:203F2000C0435083304605F011FC0028CAD0694605F027FC064600256F4611E0162111A0AB
:203F4000FEF77CFBC5E778194178007809020143FF2C0ED00A460FA12046FEF78DFAAD1C84
:203F6000B542F0DBFF2C08D00DA12046FEF784FAAFE708A0FEF762FBF1E709A0FEF75EFB96
:203F8000A7E700004552524F523A3078253032780A000000616464723A307825780A0000FA
:203FA0004F4B0A0010B5044605F0B4F9FF2C04D004A12046FEF760FA10BD02A0FEF73EFBB6
:203FC00010BD00004F4B0A0010B50446FF2807D007A1FEF751FA08A12046FEF74DFA10BD63
:203FE00003A0FEF72BFB04A0FEF728FB10BD0000322E352E320A00004F4B0A0070B5054667
:204000000E46002208681146FCF422F1C0B20300FDF7BDDD082607090B050D0F1126002498
:204020000AE0012408E0022406E0032404E0042402E0052400E00624002211467068FCF4F4
:2040400007F10006000E11D0012811D0022811D0FF2D1AD0132211A12846FEF70DFA70BDCA
:20406000FF2D01D01222F6E712210FE0002102E0012100E00221204603F5FDF0FF2D09D098
:204080000AA12846FEF7F8F970BD132103A0FEF7D5FA70BD05A0FEF7D1FA70BD4552524F62
:2040A000523A3078253032780A0000004F4B0A0010B50446002208681146FCF4C9F0C0B20C
:2040C0000300FDF764DD081D07090B050D0F111D00200AE0012008E0022006E0032004E0F7
:2040E000042002E0052000E0062003F5AFF00146FF2C0DD0024608A12046FEF7BDF910BDDA
:20410000FF2C02D0122206A1F6E7122104A000E001A0FEF793FA10BD25640A4F4B0A00000C
:204120004552524F523A3078253032780A00000070B505460E46002208681146FCF488F0F5
:20414000C0B20300FDF723DD082207090B050D0F112200240AE0012408E0022406E003240F
:2041600004E0042402E0052400E00624002211467068FCF46DF0C1B2012912D9FF2D0BD0F1
:2041800013220FA12846FEF777F970BDFF2D01D01222F6E7122100E0132109A0FEF74EFAFF
:2041A00070BD204603F568F0FF2D04D008A12846FEF762F970BD06A0FEF740FA70BD000086
:2041C0004552524F523A3078253032780A0000004F4B0A0070B506460D4600220868114619
:2041E000FCF436F00446002211466868FCF430F0C1B2641CA0B203F55FF6FF2E04D004A1CE
:204200003046FEF739F970BD01A0FEF717FA70BD4F4B0A00F8B505460C4600220868114629
:20422000FCF416F086B216A16068FBF4F8F700280ED014A16068FBF4F2F7002807D0FF2D6D
:2042400014D0132210A12846FEF716F9F8BD012069460870FF2D0ED00FA12846FEF70CF903
:204260006A460121304603F548F6F8BD132106A0FEF7E4F9F8BD08A0FEF7E0F9F0E700005D
:204280004F4646004F4E00004552524F523A3078253032780A0000004F4B0A0010B504467E
:2042A000002208681146FBF4D3F70F49002809D0012807D0FF2C0DD011220CA12046FEF7C0
:2042C000DBF810BD0870FF2C09D00CA12046FEF7D3F810BD112105A0FEF7B0F910BD07A039
:2042E000FEF7ACF910BD0000544011004552524F523A3078253032780A0000004F4B0A0099
:2043000010B5044606F00EF8FF2C04D004A12046FEF7B2F810BD02A0FEF790F910BD00002F
:204320004C4F47204F4E0A4F4B0A000010B5FF2805D006A1FEF7A0F802F5F4F310BD03A0ED
:20434000FEF77CF90AF54EF3F6E700004F4B0A0010B5044603F536F2FF2C06D006A12046F5
:20436000FEF78AF802F5DEF310BD03A0FEF766F90AF538F3F6E700004F4B0A0070B506461E
:204380000C46002208681146FBF462F785B26068FBF43EF781B2FF20013081420CD9FF2E1F
:2043A00005D013220DA13046FEF766F870BD13210AA0FEF743F970BDCAB26D1CA8B2002193
:2043C000636802F5CDF0FF2E04D008A13046FEF753F870BD05A0FEF731F970BD4552524FA8
:2043E000523A3078253032780A0000004F4B0A00F0B50D46C1B00646FF2101316846FDF733
:2044000084DB002211462868FBF422F787B26868FBF4FEF680B24108C007C00F0C18FF20EC
:204420000130844206D8E1B26A46686809F0E2FFA0420DD0FF2E06D013220EA13046FEF7A9
:204440001BF841B0F0BD13210AA0FEF7F7F8F8E77F1CE2B2B8B26B46002102F531F1FF2E59
:2044600004D008A13046FEF707F8EAE705A0FEF7E5F8E6E74552524F523A307825303278D5
:204480000A0000004F4B0A00F0B58DB00E460546282101A8FDF739DB002211463068FBF4F3
:2044A000D7F687B27068FBF4B3F680B24108C007C00F0C18282C06D8E1B201AA706809F010
:2044C00099FFA04208D0FF2D20D0132212A12846FDF7D2FF0DB0F0BD0BAA01A9204605F52A
:2044E000EFF70028EFD001A80090234601220021384604F585F4FF2D04D00BA12846FDF70B
:20450000BBFFE7E708A0FEF799F8E3E7132102A0FEF794F8DEE700004552524F523A307893
:20452000253032780A0000004F4B0A0070B506460C46002208681146FBF48AF685B26068B4
:20454000FBF466F681B2FF20013081420CD9FF2E05D013220DA13046FDF78EFF70BD1321A8
:204560000AA0FEF76BF870BDCAB26D1CA8B20021636802F5A5F0FF2E04D008A13046FDF721
:204580007BFF70BD05A0FEF759F870BD4552524F523A3078253032780A0000004F4B0A0043
:2045A00010B50446002208681146FBF451F680B2C10701D0032805D2FF2C01D0112208E0E9
:2045C00011211BE007F08CF9002807D0FF2C14D016220CA12046FDF74FFF10BDFF2C06D0C9
:2045E0000CA12046FDF748FF02F59CF210BD09A0FEF724F80AF5F6F1F6E7162101A0FEF7D1
:204600001DF810BD4552524F523A3078253032780A0000004F4B0A00F8B505460C46002233
:2046200008681146FBF414F60646002211466068FBF40EF6C7B23046FEF49CF504000CD5E3
:20464000FF2D05D012220DA12846FDF715FFF8BD12210AA0FDF7F2FFF8BDFF2D0AD00BA123
:204660002846FDF709FF0AF5BDF1E0B2394603F521F2F8BD05A0FDF7E1FFF4E74552524FC6
:20468000523A3078253032780A0000004F4B0A0010B50446002208681146FBF4D9F5C0B212
:2046A00002F5D6F2002807D0FF2C14D011220CA12046FDF7E1FE10BDFF2C06D00CA1204633
:2046C000FDF7DAFE02F52EF210BD09A0FDF7B6FF0AF588F1F6E7112101A0FDF7AFFF10BD41
:2046E0004552524F523A3078253032780A0000004F4B0A00F8B504460D460022086811466E
:20470000FBF4A6F5C0B20090012805D9FF2C01D012222AE012212EE0002211466868FBF453
:2047200097F5C7B2012F05D9FF2C01D013221CE0132120E000221146A868FBF489F5C6B297
:20474000012E05D9FF2C01D014220EE0142112E000221146E868FBF47BF5C5B2012D01D85F
:204760002E420CD0FF2C05D0152220A12046FDF783FEF8BD15211DA0FDF760FFF8BD0098D2
:2047800007F0DEF8384607F0C5F8304607F07CF804F006FE012D04D004F0A0FD01280AD0AB
:2047A00018E0284607F086F802F5EEF102F5CEF504F0F2F90EE0284607F07CF804F008FBF1
:2047C00002F5F4F106F0AEFD02F59AF606F0FAFB06F0FEF9FF2C04D008A12046FDF74CFEB1
:2047E000F8BD06A0FDF72AFFF8BD00004552524F523A3078253032780A0000004F4B0A0073
:2048000070B505460E46002208681146FBF420F5C0B20300FDF7BBD9082207090B050D0F84
:20482000112200240AE0012408E0022406E0032404E0042402E0052400E00624002211465D
:204840007068FBF405F5C1B2012912D9FF2D0BD013220FA12846FDF70FFE70BDFF2D01D08A
:204860001222F6E7122100E0132109A0FDF7E6FE70BD204602F500F5FF2D04D008A12846C9
:20488000FDF7FAFD70BD06A0FDF7D8FE70BD00004552524F523A3078253032780A000000EE
:2048A0004F4B0A0070B505460C46002208681146FBF4CEF486B2002211466068FBF4C8F4D4
:2048C0000146304605F032FA002807D0FF2D10D016220AA12846FDF7CFFD70BDFF2D04D0B1
:2048E0000AA12846FDF7C8FD70BD08A0FDF7A6FE70BD162101A0FDF7A1FE70BD4552524F7C
:20490000523A3078253032780A0000004F4B0A00F3B50C460022086885B01146FBF498F423
:20492000C0B20390002211466068FBF491F487B200221146A068FBF48BF4054600221146D1
:20494000E068FBF485F40646002211462069FBF47FF4C4B2384608F0A5FB82B25100284678
:20496000484383B2701B414388B200216D4613C50748039903F5A7F20598FF2804D005A1C8
:20498000FDF77AFD07B0F0BD02A0FDF757FEF9E7FFFF00004F4B0A007CB505460C460022EB
:2049A00008681146FBF454F40006000E694608700DD0002211466068FBF44AF480B2694692
:2049C00048800A280BD2FF2D07D0132227E0FF2D01D0122223E0122127E0132125E00022F8
:2049E0001146A068FBF434F46946887100221146E068FBF42DF40004000C694688800BD026
:204A00000A460821222002F528F7FF2D11D00BA12846FDF731FD7CBDFF2D05D0152208A162
:204A20002846FDF729FD7CBD152105A0FDF706FE7CBD02A0FDF702FE7CBD00004F4B0A0036
:204A40004552524F523A3078253032780A0000007CB504460D460868FBF4DAF30C2807D0DC
:204A6000FF2C1BD0112213A12046FDF705FD7CBD0020009001906A460621286809F0BAFC4D
:204A80000628EDD1684604F003FEFF2C0BD00DA12046FDF7F1FC02F545F07CBD112105A050
:204AA000FDF7CCFD7CBD07A0FDF7C8FD09F59AF7F1E700004552524F523A307825303278CE
:204AC0000A0000004F4B0A00F8B506460D46002208681146FBF4BCF369460978C0074C080A
:204AE000C00F64000443002211466868FBF4B0F3FD21C0070C40800F044369460C70009897
:204B000002F56CF7FF2E04D004A13046FDF7B4FCF8BD02A0FDF792FDF8BD00004F4B0A0048
:204B200010B5044606F09EFD0C49002048607D214901481002F50AF601460023084A094874
:204B400008F03EFBFF2C04D007A12046FDF794FC10BD05A0FDF772FD10BD0000D43C1100D0
:204B6000A5A2800024E111004F4B0A00F8B505460C46002208681146FBF46AF3C0B2009033
:204B8000002211466068FBF463F3C7B200221146A068FBF45DF386B20098052805D9FF2D4F
:204BA00001D0122227E012212BE01FA1E068FBF41BF3002808D0002101700A46E068FBF48D
:204BC00047F380B2642805D9FF2D01D0142212E0142116E07043FBF4DBF3144A144BFBF493
:204BE0006FF3FBF4E9F382B2B01A83B2042F0CD9FF2D05D013220FA12846FDF73DFCF8BD07
:204C000013210CA0FDF71AFDF8BD3946009802F5CDF4FF2D04D00BA12846FDF72DFCF8BD39
:204C200008A0FDF70BFDF8BD250000007B14AE47E17A843F4552524F523A307825303278E9
:204C40000A0000004F4B0A0070B505460C46002208681146FBF4FCF286B215A16068FBF479
:204C6000DEF200280DD013A16068FBF4D8F2002809D0FF2D13D013220FA12846FDF7FCFBDC
:204C800070BD002400E00124FF2D0DD00EA12846FDF7F2FB2146304608F51AF170BD132171
:204CA00005A0FDF7CBFC70BD07A0FDF7C7FCF1E752000000570000004552524F523A30781C
:204CC000253032780A0000004F4B0A0070B505460C46002208681146FBF4BAF286B215A1F3
:204CE0006068FBF49CF200280DD013A16068FBF496F2002809D0FF2D13D013220FA1284614
:204D0000FDF7BAFB70BD002400E00124FF2D0DD00EA12846FDF7B0FB2146304608F5A2F063
:204D200070BD132105A0FDF789FC70BD07A0FDF785FCF1E752000000570000004552524FF2
:204D4000523A3078253032780A0000004F4B0A00F8B506460C46002208681146FBF478F2E5
:204D600080B200901CA16068FBF459F200280DD01AA16068FBF453F2002809D0FF2E21D0D7
:204D8000132217A13046FDF777FBF8BD002500E0012500221146A068FBF45AF287B2002253
:204DA0001146E068FBF454F284B2FF2E0FD010A13046FDF761FB23463A462946009808F579
:204DC000D9F0F8BD132106A0FDF738FCF8BD08A0FDF734FCEFE70000520000005700000053
:204DE0004552524F523A3078253032780A0000004F4B0A0070B505460C46002208681146EF
:204E0000FBF426F286B215A16068FBF408F200280DD013A16068FBF402F2002809D0FF2D5B
:204E200013D013220FA12846FDF726FB70BD002400E00124FF2D0DD00EA12846FDF71CFBA0
:204E40002146304608F5B2F070BD132105A0FDF7F5FB70BD07A0FDF7F1FBF1E7520000000E
:204E6000570000004552524F523A3078253032780A0000004F4B0A00F0B504460D4600225E
:204E8000086887B01146FBF4E3F1002705900397012003F013FD06005CD03022092168467B
:204EA000FCF72CDE6868FBF4B3F1082822DC0821081A00216A4614E0162102E0162206E01D
:204EC00011212BA0FDF7BAFB07B0F0BD112228A12046FDF7D1FAF7E76B685B5C1354401C7C
:204EE000491C0828F8DB03AA0421684609F082FA042802D0FF2CE9D1E2E76A46107B517BA2
:204F00000006C01909040818917B09020818D17B4018010C118206D082B268464282304618
:204F200004F01CFC07E081B200201182C0435082304604F00BFC05000CD0059881B2002081
:204F400002F0D6FF002805D00146284604F067FC002802D0FF2CB1D1AEE7FF2C04D008A19D
:204F60002046FDF789FAAFE705A0FDF767FBABE74552524F523A3078253032780A000000BC
:204F80004F4B0A0070B504460D46002208681146FBF45EF186B2002211466868FBF458F1CB
:204FA000012805D0002807D0FF2C12D013220BE0304604F0D7FE02E0304604F0F3FE002823
:204FC00009D0FF2C12D016220BA12046FDF754FA70BD13210BE0FF2C04D00BA12046FDF70E
:204FE0004BFA70BD08A0FDF729FB70BD162102A0FDF724FB70BD00004552524F523A3078CD
:20500000253032780A0000004F4B0A0010B50446002208681146FBF41BF1401C80B209F564
:205020008FF7FF2C04D004A12046FDF725FA10BD01A0FDF703FB10BD4F4B0A0070B505468C
:20504000002208681146FBF403F184B2FF2D08D006A12846FDF710FA641CA0B209F585F7EB
:2050600070BD02A0FDF7EAFAF6E700004F4B0A0010B50C46FF280CD008A1FDF7FDF9002239
:2050800011462068FBF4E4F0401C80B209F502F610BD02A0FDF7D2FAF1E700004F4B0A003F
:2050A00010B50C46FF280CD008A1FDF7E5F9002211462068FBF4CCF0401C80B209F503F62A
:2050C00010BD02A0FDF7BAFAF1E700004F4B0A0010B50C46FF280CD008A1FDF7CDF900229E
:2050E00011462068FBF4B4F0401C80B209F506F610BD02A0FDF7A2FAF1E700004F4B0A003B
:2051000010B50C46FF280CD008A1FDF7B5F9002211462068FBF49CF0401C80B209F504F628
:2051200010BD02A0FDF78AFAF1E700004F4B0A0010B50C46FF280CD008A1FDF79DF900229D
:2051400011462068FBF484F0401C80B209F51FF610BD02A0FDF772FAF1E700004F4B0A0021
:2051600070B50546002208681146FBF471F084B2FF2D08D006A12846FDF77EF9641CA0B2FA
:2051800009F50AF770BD02A0FDF758FAF6E700004F4B0A0070B50546002208681146FBF432
:2051A00057F084B2FF2D08D006A12846FDF764F9641CA0B209F5CEF570BD02A0FDF73EFA7A
:2051C000F6E700004F4B0A007CB506460C46002208681146FBF43CF085B26068FBF418F085
:2051E00010280CD0FF2E05D013220FA13046FDF743F97CBD13210CA0FDF720FA7CBD6A46FE
:205200000821606809F0F6F86D1CA8B2694609F506F7FF2E04D008A13046FDF72DF97CBDB6
:2052200005A0FDF70BFA7CBD4552524F523A3078253032780A0000004F4B0A0070B506460D
:205240000C460022086886B01146FBF401F085B2002211466068FAF4FBF76946087000225C
:205260001146A068FAF4F4F76946487000221146E068FAF4EDF76946488000221146206983
:20528000FAF4E6F769468880002211466069FAF4DFF76946887100221146A069FAF4D8F79F
:2052A0006946C87100221146E069FAF4D1F76946087200221146206AFAF4CAF7694648724A
:2052C000FF2E0AD007A13046FDF7D6F86D1CA8B2694609F5BCF606B070BD02A0FDF7AEF985
:2052E000F4E700004F4B0A00F8B50C46FF2821D012A1FDF7C1F800221146E068FAF4A8F76A
:20530000C7B200221146A068FAF4A2F7C6B2002211466068FAF49CF7C5B20022114620685A
:20532000FAF496F7401C80B23B463246294609F5ACF6F8BD01A0FDF781F9DCE74F4B0A0031
:2053400070B50C46FF281AD00FA1FDF795F800221146A068FAF47CF786B200221146606839
:20536000FAF476F785B2002211462068FAF470F7401C80B23246294609F5A3F670BD02A06A
:20538000FDF75CF9E3E700004F4B0A0070B505460E46002208681146FAF45AF784B2002212
:2053A00011467068FAF454F7C6B2052E0CD9FF2D05D013220CA12846FDF75EF870BD1321F9
:2053C00009A0FDF73BF970BDFF2D09D00AA12846FDF752F8641CA0B2314609F599F670BD70
:2053E00005A0FDF72BF9F5E74552524F523A3078253032780A0000004F4B0A0070B50C4684
:20540000FF2813D00BA1FDF737F8002211466068FAF41EF7C5B2002211462068FAF418F7FA
:20542000401C80B2294609F58BF670BD01A0FDF705F9EAE74F4B0A0070B50C46FF2813D03A
:205440000BA1FDF719F8002211466068FAF400F7C5B2002211462068FAF4FAF6401C80B291
:20546000294609F5A5F670BD01A0FDF7E7F8EAE74F4B0A00F8B506460C46002208681146DA
:20548000FAF4E6F685B2002211466068FAF4E0F6074600221146A068FAF4DAF6C4B2FF2ED7
:2054A0000AD007A13046FCF7E7FF6D1CA8B22246394609F50EF7F8BD01A0FDF7BFF8F4E772
:2054C0004F4B0A0070B506460D46002208681146FAF4BEF684B2002211466868FAF4B8F6BE
:2054E000C5B2FF2E09D007A13046FCF7C5FF641CA0B2294609F53CF670BD02A0FDF79EF890
:20550000F5E700004F4B0A000249896A002900D008477047683E110010B508F0A9FF10BDE5
:20552000FFB5B3B0284C02AE014622783046419F3F9DFCF7D1DA207862788619304634992B
:20554000FCF7CADA6078A278861930463599FCF7C3DAA078E278861930463699FCF7BCDA70
:20556000E2783C999019FCF7B7DA3A46912102A806F560F72FA80190042314A22021009784
:205580003D9806F568F610222FA94298FCF7A4DA0024FF21002002F5D9F02855641CE4B2D1
:2055A000102CF6D31022294627A8FCF795DA10222BA83E99FCF790DA27AA2021409B429814
:2055C00006F5D6F537B0F0BD943E11007072636B00000000FFB597B00D460446302102A84B
:2055E000209F229EFCF791DA1022214602A8FCF773DA1022294606A8FCF76EDA10220AA8DD
:205600001999FCF769DA12AA302102A806F512F70EAD12AC0195042313A2202100941A9875
:2056200006F519F610220EA93846FCF755DA019504230FA2202100941A9806F50CF61022B3
:205640000EA92198FCF748DA019504230AA2202100941A9806F5FFF510220EA93046FCF794
:205660003BDA1BB0F0BD00007072736B000000007072736E000000007072646B0000000069
:2056800070B50E4690B0154601461C4610226846FCF722DA1022314604A8FCF71DDA08AB8C
:2056A0006A462021284606F563F51022214608A8FCF736DA002802D0002010B070BD0120C4
:2056C000FBE730B500231A464C1E04E0855CEB18521CDBB2D2B2A242F8DB40182038C07F29
:2056E000984201D1012030BD002030BD102809D0202807D0402805D0802803D0042801D0FE
:205700000020704701207047F8B517480027056816483C460688761E60002018295C0029F2
:2057200006D14019C178002902D18079002808D003212046FCF764D94000C01C80B286423B
:2057400007D0E41CA520A4B280008442E4D3002F01D0012100E0002105480173034870308B
:2057600007F012FDF8BD0000CC40110058501200DA40110010B50023024A0349034807F0AA
:205780001FFD10BD0957800010270000C8501200FEB5064600210898099C15460291132851
:2057A00027D1607823780107090D0B430109A078E21C00010143184600F022F8694608721C
:2057C0000121002002F094FB01460A4803F0A2FF20786946487260788872A078C87202A909
:2057E0000420019100902B46034A0449304602F043FEFEBD483B11000CF08000AC3C1100EB
:2058000010B502F0FBFB10BDFEB5064600210898099C1546029103281CD1617820780A0721
:20582000120D1043A27809091201114300F018F8694608722078487260788872A078C872C4
:2058400002A90420019100902B46034A0349304602F012FEFEBD00000CF08000AC3C1100A5
:2058600010B502F0F9FA10BDF0B58BB006461546202102A8109F119CFCF747D9022F1CD1B2
:20588000617820780907090D084300216A461172217851726178917202AC1B210B3200F083
:2058A00013F8C01CC1B21E2907D800912B46044A01940449304602F0DFFD0BB0F0BD00008A
:2058C00009F08000AC3C110010B502F059FB10BD38B514461946009002A306A22046FCF7A2
:2058E00021FE38BD636F6E6669672063616C6C6261636B003C6E2E25733E7372633D3078F6
:205900002578206170706B65795F6C6973743A0010B5039B029C1A78002A04D007A10BA007
:20592000FCF7C8FD10BD9A7859781207120D1143E41EE2B2DB1CFFF7CBFF10BD636F6E66B3
:20594000696720636C69656E740000003C6E2E25733E6170706B6579206C697374206572CD
:20596000726F72203D25640008B500920B46024602A106A0FCF79EFD08BD0000636F6E66C4
:2059800069672063616C6C6261636B003C6E2E25733E6170706B6579207372633D30782540
:2059A00078206E69643D30782578206169643D307825780A0000000038B5059B04991A78FC
:2059C000042907D0009104230CA201210FA0FCF771FD38BD002A04D008A115A0FCF76AFD80
:2059E00038BD9A7859781407DB78240D12091B0121431A43FFF7B8FF38BD0000636F6E66F0
:205A0000696720636C69656E740000003C7725642E25733E657870656374206C656E2025AA
:205A2000642062757420726563762025640A00003C6E2E25733E6170706B65792073746174
:205A4000747573206572726F72203D2564000000FEB5064600210898099C1546029113282C
:205A60001DD1617820780A07120D1043A278090912011143E21C00F017F8694608722078F3
:205A8000487260788872A078C87202A90420019100902B46024A0349304602F0EDFCFEBD22
:205AA0000CF08000AC3C110010B502F0F7FA10BD3EB50546002106981446029100280DD10C
:205AC00000F012F86946087202A90120019100902346034A0349284602F0CEFC3EBD00008E
:205AE0000FF08000AC3C110010B505F03FFF10BD3EB51446054600220698079902920128B4
:205B00000ED1087800F012F86946087202A90120019100902346034A0349284602F0ACFC0B
:205B20003EBD00000FF08000AC3C110010B505F01FFF10BD10B50B46024602A105A0FCF7B4
:205B4000B9FC10BD636F6E6669672063616C6C6261636B003C6E2E25733E626561636F6EEA
:205B6000207372633D307825782C7374617475733D25640A0000000010B50299039A012974
:205B800002D11178FFF7D6FF10BD000010B50249024802F043FE10BD843C1100EC3C1100AD
:205BA000F0B58FB006461546342102A8149F159CFBF7ABDF012F12D120786946087220780F
:205BC00002AC3121621C00F043F8401CC0B200902B46044A04490194304602F04DFC0FB0AD
:205BE000F0BD000006F08000AC3C11007CB51C4615460191009003A306A221462846FCF763
:205C000091FC7CBD636F6E6669672063616C6C6261636B003C6E2E25733E636F6D706F73BC
:205C20006974696F6E207372633D3078256420706167653D256420646174613A00000000F4
:205C400010B5039B029A19785B1CFFF7CFFF10BD10B5104602F012FB10BD00003EB5054687
:205C60000698144600280ED1029000F011F86946087202A90120019100902346024A034982
:205C8000284602F0F9FB3EBD12F08000AC3C1100002070473EB50546069807991446012864
:205CA00010D100200290087800F012F86946087202A90120019100902346034A0349284650
:205CC00002F0DAFB3EBD000012F08000AC3C11000020704710B50B46024602A105A0FCF717
:205CE000E9FB10BD636F6E6669672063616C6C6261636B003C6E2E25733E64656661756C11
:205D0000742074746C207372633D307825782C7374617475733D25640A00000010B50299B1
:205D2000039A012902D11178FFF7D4FF10BD00003EB505460698144600280DD100F012F874
:205D40006946087202A90120019100902346034A0349284602F090FB3EBD000015F08000BF
:205D6000AC3C1100002070473EB5054606980799144601280ED1087800F012F869460872D2
:205D800002A90120019100902346034A0349284602F072FB3EBD000015F08000AC3C1100CD
:205DA0000020704710B50B46024602A105A0FCF781FB10BD636F6E6669672063616C6C6296
:205DC00061636B003C6E2E25733E667269656E64207372633D307825782C737461747573B4
:205DE0003D25640A0000000010B50299039A012902D11178FFF7D6FF10BD00003EB505467A
:205E00000698144600280DD100F012F86946087202A90120019100902346034A0349284603
:205E200002F02AFB3EBD000018F08000AC3C1100002070473EB505460698079914460128F9
:205E40000ED1087800F012F86946087202A90120019100902346034A0349284602F00CFB69
:205E60003EBD000018F08000AC3C11000020704710B50B46024602A105A0FCF71BFB10BD53
:205E8000636F6E6669672063616C6C6261636B003C6E2E25733E70726F7879207372633DAA
:205EA000307825782C7374617475733D25640A0010B50299039A012902D11178FFF7D8FFAD
:205EC00010BD70477047704770477047704700003EB5054606990798144602290CD102A922
:205EE00000F010F802A90420019100902346034A0349284602F0C0FA3EBD00001BF0800017
:205F0000AC3C1100002070473EB5054606990798144603290CD102A900F010F802A9042060
:205F2000019100902346034A0349284602F0A4FA3EBD00001BF08000AC3C110000207047E9
:205F4000704700003EB514465A881B88019302920B460246009402A10548FCF7ABFA3EBDE0
:205F6000636F6E6669672063616C6C6261636B00D0F58000FFB585B00E980F9C06283CD0A5
:205F8000082838D16078217807020F43E078A1780002084301906079217905020D43694634
:205FA0000D80E079A17906020E4369464E8003F09BF9381A80B202F081FC3246294603F0B7
:205FC000CDFB05460199079801F092FF0146284600F0C0FE69460872214602AC0822601CAC
:205FE000FBF77ADD092000900194194A1949079B059802F041FA09B0F0BD607821780602FA
:20600000E0780E43A17807020F436079217905020D4369460D8003F067F9301A80B202F09C
:206020004DFC294603F092FB05463946079801F05FFF0146284600F07DFD694608722146C1
:2060400002AC0622601CFBF747DD0720CBE7000030F08000AC3C1100F8B5079B069D591CFF
:206060009A780C4611025E781A793143DE7812023243DB1C072D11D0092D0ED1657926794F
:206080002C0234436D462C805C791D7923022B436D466B806B46FFF755FFF8BD6379247937
:2060A0001B0223436C4623800023DB436380F1E7FFB585B00E980F9C06283CD0082838D15F
:2060C0006078217807020F43E078A1780002084301906079217905020D4369460D80E07946
:2060E000A17906020E4369464E8003F0FDF8381A80B202F0E3FB3246294603F02FFB054625
:206100000199079801F0F4FE0146284600F082FE69460872214602AC0822601CFBF7DCDCB0
:20612000092000900194194A1949079B059802F0A3F909B0F0BD607821780602E0780E43F7
:20614000A17807020F436079217905020D4369460D8003F0C9F8301A80B202F0AFFB29468A
:2061600003F0F4FA05463946079801F0C1FE0146284600F065FD69460872214602AC0622B8
:20618000601CFBF7A9DC0720CBE7000030F08000AC3C110030B585B0054608990998144699
:2061A00004290CD102A900F04FFD02A90C20019100902346034A0449284602F05DF905B087
:2061C00030BD00001EF08000AC3C110030B587B005460A990B9814460B2910D00D290CD11D
:2061E00002A900F01BFE02A90E20019100902346064A0749284602F03FF907B030BD02A900
:2062000000F024FD02A90C20EFE700001EF08000AC3C11007047000030B587B005460A9978
:206220000B981446192910D01B290CD102A900F019F802A90E20019100902346064A07496E
:20624000284602F019F907B030BD02A900F008F802A90C20EFE700001EF08000AC3C110059
:206260000020704700207047FFB585B00E980F9C062836D0082832D16078217807020F4303
:20628000E078A1780002084301906079217905020D4369460D80E079A17906020E4369462E
:2062A0004E8003F021F8381A80B202F007FB3246294603F053FA019900F0B2FD6946087203
:2062C000214602AC0822601CFBF706DC092000900194164A1649079B059802F0CDF809B073
:2062E000F0BD607821780602E0780E43A17807020F436079217905020D4369460D8002F063
:20630000F3FF301A80B202F0D9FA294603F01EFA394600F09DFC69460872214602AC062262
:20632000601CFBF7D9DB0720D1E7000021F08000AC3C1100FFB585B00E980F9C042837D065
:20634000062833D16078217807020F436079217905020D4369460D80E079A17906020E436D
:2063600069464E8002F0C0FF381A80B202F0A6FA3246294603F0F2F900F056FD69460872A8
:20638000207848726078887200200873C872A11C02AC0422601DFBF79FDB0920019400903C
:2063A000174A1849079B059802F066F809B0F0BD6078217806020E436079217905020D4392
:2063C00069460D8002F090FF301A80B202F076FA294603F0BBF900F03FFC69460872207820
:2063E00048726078887200200873C872A0784873E078887302A9072001910090D0E700006B
:2064000021F08000AC3C1100FFB585B00E980F9C062836D0082832D16078217807020F4385
:20642000E078A1780002084301906079217905020D4369460D80E079A17906020E4369468C
:206440004E8002F051FF381A80B202F037FA3246294603F083F9019900F0EAFC6946087296
:20646000214602AC0822601CFBF736DB092000900194164A1649079B059801F0FDFF09B06C
:20648000F0BD607821780602E0780E43A17807020F436079217905020D4369460D8002F0C1
:2064A00023FF301A80B202F009FA294603F04EF9394600F0D5FB69460872214602AC0622FB
:2064C000601CFBF709DB0720D1E7000021F08000AC3C1100FFB585B00E980F9C062836D093
:2064E000082832D16078217807020F43E078A1780002084301906079217905020D436946D5
:206500000D80E079A17906020E4369464E8002F0EBFE381A80B202F0D1F93246294603F0B0
:206520001DF9019900F000FD69460872214602AC0822601CFBF7D0DA092000900194164A90
:206540001649079B059801F097FF09B0F0BD607821780602E0780E43A17807020F43607941
:20656000217905020D4369460D8002F0BDFE301A80B202F0A3F9294603F0E8F8394600F086
:20658000DFFB69460872214602AC0622601CFBF7A3DA0720D1E7000021F08000AC3C110067
:2065A0003EB514465A881B88019302920B460246009402A10548FBF77DFF3EBD636F6E66B5
:2065C00069672063616C6C6261636B0080F58000F8B5079B069D591C9A780C4611025E78F5
:2065E0001A793143DE7812023243DB1C072D11D0092D0ED1657926792C0234436D462C8013
:206600005C791D7923022B436D466B806B46FFF7C7FFF8BD637924791B0223436C4623806B
:206620000023DB436380F1E7FFB589B01298139C14283BD0162837D16078217807020F43BF
:20664000102205A8A11CFBF747DAE07CA17C05020D4369460D80607D217D06020E436946FC
:206660004E8002F041FE381A80B202F027F93246294603F073F805A900F05AFC6946087223
:206680002078487260788872214602AC04221231601DFBF721DA092001940090184A1949DC
:2066A0000B9B099801F0E8FE0DB0F0BD6078217806020E43102205A8A11CFBF70DDAE07CB7
:2066C000A17C05020D4369460D8002F00DFE301A80B202F0F3F8294603F038F805A900F084
:2066E00033FB694608722078487260788872A07C4873E07C887302A9072001910090CDE749
:2067000021F08000AC3C110030B585B00546089909981446142910D016290CD102A900F01A
:2067200009FC02A90920019100902346064A0749284601F0A1FE05B030BD02A900F006FB19
:2067400002A90720EFE7000021F08000AC3C110030B585B00546089909981446142910D0E9
:2067600016290CD102A900F0E7FB02A90920019100902346064A0749284601F07DFE05B0F2
:2067800030BD02A900F0E4FA02A90720EFE7000021F08000AC3C1100FEB506460898099C1D
:2067A0001546122817D1617820780907090D0843A11C00F015F8694608722078487260786D
:2067C000887202A90320019100902B46024A0349304601F051FEFEBD36F08000AC3C1100B6
:2067E00010B503F0B1F910BDFEB506460898099C1546022816D1617820780907090D0843D8
:2068000000F016F869460872207848726078887202A90320019100902B46034A03493046BD
:2068200001F02AFEFEBD000036F08000AC3C110010B503F00FF910BD30B58BB005460E9847
:20684000144600280DD102A91E2000F011F8C1B202A8009101902346034A0449284601F055
:206860000BFE0BB030BD000033F08000AC3C110010B503F035F910BD38B514460D460090EE
:2068800003A307A221462846FBF74CFE38BD0000636F6E66696720636C69656E740000008E
:2068A0003C6E2E25733E6E65746B6579207372633D30782578206C6973743A0010B5039A38
:2068C0000299FFF7D9FF10BD10B50B46024602A105A0FBF7EFFD10BD636F6E666967206338
:2068E0006C69656E740000003C6E2E25733E6E65746B6579207372633D307825782C696E51
:206900006465783D307825783A00000010B5029A0399032A05D18A784B7811021943FFF750
:20692000D3FF10BDFEB506460898099C1546122817D1617820780907090D0843A11C00F068
:2069400015F869460872207848726078887202A90320019100902B46024A0349304601F07D
:206960008BFDFEBD36F08000AC3C110010B503F077F910BD3EB50546069907981446002941
:206980000CD102A900F010F802A90120019100902346034A0349284601F06EFD3EBD0000C2
:2069A00024F08000AC3C1100002070473EB5054606990798144601290CD102A900F010F8F3
:2069C00002A90120019100902346034A0349284601F052FD3EBD000024F08000AC3C110091
:2069E00000207047704700003EB5054606990798144602290CD102A900F010F802A90420B9
:206A0000019100902346034A0349284601F034FD3EBD000039F08000AC3C1100002070474E
:206A20003EB5054606990798144603290CD102A900F010F802A90420019100902346034A2D
:206A40000349284601F018FD3EBD000039F08000AC3C1100002070477047704770470000DD
:206A60003EB505460698144600280DD100F012F86946087202A90220019100902346034A12
:206A80000349284601F0F8FC3EBD000027F08000AC3C1100002070473EB5054606981446BF
:206AA00001280DD1FFF7F6FF6946087202A90220019100902346034A0349284601F0DCFC93
:206AC0003EBD000027F08000AC3C110010B50B46024602A105A0FBF7EDFC10BD636F6E6637
:206AE00069672063616C6C6261636B003C6E2E25733E72656C6179207372633D30782578C4
:206B00002C7374617475733D25640A0010B50299039A022902D11178FFF7D8FF10BD0000B7
:206B200010B50249024801F079FE10BDAC3C1100EC3C110010B502F0EDFD10BDFFB58BB037
:206B4000149815991446042826D148780A780502C87815438A780602164300206A461072C8
:206B600002AF0422781CFAF7B7DF02F0BDFB281A80B201F0A3FE314602F0E8FD7A1D1E214F
:206B800000F010F8401DC0B2019700902346034A03490B9801F070FC0FB0F0BD3CF08000EC
:206BA000AC3C110010B502F0CBFD10BD3EB512881C46069D02920191009003A306A229468B
:206BC0002046FBF7AFFC3EBD636F6E6669672063616C6C6261636B003C6E2E25733E62697B
:206BE0006E64207372633D3078257820656C656D656E743D25642C7369675F69643D307889
:206C000025782C6B657920696E64657865733A007CB5079A069C93785578190229431579B7
:206C2000D6782B0233436D46AB800023DB43EB80521D641F0092A3B201AAFFF7B7FF7CBD70
:206C400010B502F0ECFD10BD032070470020704710B502F09BFD10BD10B502F0A8FD10BDD1
:206C600010B502F0CBFD10BDFFB58BB01498159C1546042828D16078217806020E43E078DA
:206C8000A17807020F4302F02FFB301A80B201F015FE394602F05AFD064600206946087287
:206CA000214602AC0422601CFAF716DF611D304600F010F8401DC0B2019400902B46034A99
:206CC00003490B9801F0D8FB0FB0F0BD2AF08000AC3C110010B5491D02F053FD10BD0000C8
:206CE0003EB512881C46069D02920191009003A3064A29462046FBF715FC3EBD636F6E66DD
:206D000069672063616C6C6261636B0020F680007CB5079A069C937855781902294315795F
:206D2000D6782B0233436D46AB800023DB43EB80521D641F0092A3B201AAFFF7D1FF7CBD55
:206D400010B502F04AFD10BD00207047002070470020704710B502F0DDFC10BDFFB58BB097
:206D60001498159906282ED148780A7806021643C8788A78040214436A46148048790A79C2
:206D8000050215436A4655800020107202AF0622781CFAF7A1DE02F0A7FA301A80B201F090
:206DA0008DFD2A46214602F0D9FCFA1D1E2100F011F8C01DC0B201970090044A04490D9BA2
:206DC0000B9801F059FB0FB0F0BD00003FF08000AC3C110010B502F0B3FC10BDFEB5099B2D
:206DE000089D5A1C144699785A7809021E791143DF7832023A436E46B280627924791202CB
:206E00002243F280DB1DED1F0093ABB201AAFFF7CDFEFEBD10B502F002FD10BD0020704726
:206E200010B502F0B3FC10BD10B502F0C0FC10BD10B502F0E3FC10BDFFB58BB01498159933
:206E400006282DD148780A7806021643C8788A78040214436A46148048790A7905021543DD
:206E60006A4655800020107202AF0622781CFAF733DE02F039FA301A80B201F01FFD2A465E
:206E8000214602F06BFCF91D00F010F8C01DC0B201970090034A04490D9B0B9801F0ECFAF1
:206EA0000FB0F0BD2DF08000AC3C110010B5C91D02F067FC10BD00007FB50646548810880F
:206EC0001D460B460899019302900096039403A3064A2846FBF726FB7FBD0000636F6E66B1
:206EE00069672063616C6C6261636B0064F68000FEB5099B089D5A1C144699785A780902E1
:206F00001E791143DF7832023A436E46B2806279247912022243F280DB1DED1F0093ABB241
:206F200001AAFFF7C9FFFEBD10B502F056FC10BD002070470020704700207047F7B5404D99
:206F40000027687890B016460C46012808D1002000F5C2F61098FF2808D03AA1FBF78CFA73
:206F6000A868012806D0022808D00AE035A0FBF765FBF5E71098FF282BD102E01098FF2897
:206F800027D0022C25D330192038C17F0A2922D00D2927D000203055109828702AA130467B
:206FA000F9F422F1040007D0002020706078641C00280ED001270094002524482901081851
:206FC00041683046F9F42BF100280ED06D1C542DF3D313B0F0BD0021C177827F0D2ADBD106
:206FE0008177D9E70021C177D6E7002D01D00F2001E01648007A01260F9012E0002C13D016
:2070000013A12046F9F4F0F0040009D0002020706078641C0028DCD0B100684644507F1C42
:20702000761C0F988642E9DB084928014218127ABA42CED10A58694610989047C9E7000050
:20704000D43C11000A0000003D000000C0EA80002C00000010B50549002208702638C3B2F2
:207060000121104607F076F910BD0000184111001CB5002300930824024B0194DB7905F518
:2070800084F01CBD943E11001CB5002369460B807D21C90012E06A46938007E000BF00BF11
:2070A00000BF00BF6C46A288521CA2806A4692888A42F3D36C462288521C22806A461288D4
:2070C0008242E8D31CBD000070B50C467D21C900154641430023354A354806F071F8A07805
:2070E000002819D0012817D0022814D1E078314E04283AD015DC01282BD002280BD1B1681F
:20710000002901D02CA08847022210212846FAF7F5DCF068B06270BD10212846FAF7F5DC5D
:2071200070BD08282DD01028FAD110212846FAF7ECDC00245A21412000F508F32855641CAD
:20714000062CF7DB316A002901D028468847706AE0E73168002901D022A088470122102140
:207160002846FAF7CBDC7068D4E73169002901D028A08847042210212846FAF7BFDC706921
:20718000C8E710212846FAF7C0DC00240A21002000F5DCF22855641C062CF7DBB16900299E
:2071A00001D028468847F069B4E700000955800098FA1100683E11003D5F3D5F3D5F3D5F25
:2071C0003D5F3D5F3D5F3D5F3D5F3D5F3D5F3D5F3D5F3D5F3D5F3D5F3D5F3D5F20626565DB
:2071E00070200A002A2E2A2E2A2E2A2E2A2E2A2E2A2E2A2E2A2E2A2E2A2E2A2E2A2E2A2E25
:207200002A2E2A2E2A2E2A2E20626C696E6B696E670A00007E7E2E7E7E2E7E7E2E7E7E2EEE
:207220007E7E2E7E7E2E7E7E2E7E7E2E7E7E2E7E7E2E7E7E2E7E7E2E2076696272617465F1
:207240000A000000FEB5054688790E464709304614210830FAF759DC042F14D800240EE047
:207260002946684600F056FAA00020188019052269460830FAF730DC641CE4B26D1DBC4297
