:02000004A0005A
:200000004258323400E01200600600000DE012000000100000E00F0000000200F8B500F0EB
:2000200099F80121022000F0D3F901242403374A6021204600F02EF9354EB169334A081929
:200040006032602100F026F900F09CF9040001D100F0E8FA2D48844201D1002500E0B56921
:20006000A16DE06D401A21212818C9014718206D0007810F02290ED001291AD0800F22D05E
:2000800000F0D0FA2348006BC006C00E142824D3FF218E3123E00F2000F0B8FA0221002013
:2000A00000F04AF9012212053846A16D00F0E9F8E8E7032000F0AAFA012212053846A16D2A
:2000C00000F0C6F8DEE7032000F0A0FA012212053846A16D00F0DEF8D4E7FF21B231204650
:2000E00000F068FA002801D100F09CFA01200005006880F30888216D074809078A0F71693D
:200100000468064B2846A047F8BD000050E61200F0DF12008010202004001000993300003F
:2001200010B50B4A58246143084B8918CA69984204D91A43CA615942401810BD0005000D4D
:20014000120B12031043C861002010BDFF0F0000000012200349012088610249FF2080394B
:200160008863704780031220F8B504460F468068FFF7D6FF0246E0684104490F08D00129FA
:2001800003D0022906D1022603E00026022501E0002600258104C305890F5B0F09059B030B
:2001A000194303055B0FDB021943B3075B0D1943AB07DB0D194343075B0E80061943400FE0
:2001C0004000014358200F4B7843C018816100210164E1684B0249031B0F090FDB02C90103
:2001E0000B439B1C436421680160616881600120B8408106890E8006800C01430248016285
:200200001046F8BD0000122080031220F3B581B002990E4E01248C4031682142FCD00B4F09
:200220004037BC63A506AD0EA106890C0D4309E00299FFF775FF0549C0310D62316821429E
:20024000FCD0BC630028F3D1FEBD0000C00212200B4610B501463B2000F0AEF8002010BDDD
:200260001CB505206946087101236A46194601A800F05AF968460078C007F5D16846007868
:200280001CBD0B4610B501466B2000F015F9002010BD0000FEB50446080C029088B20025B0
:2002A000012716463F04019012E015A000680090200C69464870200A8870CC703B4632465D
:2002C0000421684600F030F9E419F6196D1CADB202988542E9D3019800280ED008A0006872
:2002E0000090200C69464870200A8870CC70324604216846019B00F017F90020FEBD0000BB
:20030000030000001CB500216A461170002804D0012804D002280AD10CE0052000E0352073
:200320001070012301AA1946684600F0FDF8684600791CBD1520F3E738B50CA212680092C6
:200340006A465070917000F013F80321684600F01FF9FFF785FF0020FFF7D4FF0446012089
:20036000FFF7D0FF0002204338BD00000100000008B50620694608700121684600F008F992
:2003800008BD000010B50B4C206D2146C30708460A4680326030116B002B03D0C90700D0C4
:2003A000002010BDC90703D1616D526B9142F8D9004810BD50E612001CB50C460121009348
:2003C0000191134601462246012000F011F81CBD054A0023936050610348C030016303498F
:2003E00041631361704700000000302018420000FFB585B00E980F99850784088807AD0FEA
:20040000470A294E002C25D0284838183060601E706025480721403041610021C16001214A
:20042000C160B16006990162079901622048016AC06A0390089800910190002102946846CE
:20044000FFF792FE059931610021FFF7DFFE0020B0603061002D24D0164838183060681E4C
:200460007060114900224031CA600120B06006980862079BA000C3180B62059B3361B36A81
:200480005B07FCD5B36ADB07FCD1089BC418002003E00B6A2354401CC0B2A842F9D3B26059
:2004A000326109B0F0BD00000000302000031F0020E61200000307001CB50C4602210093D6
:2004C00001911346014622460120FFF791FF1CBD054A0260091F01650021C1640221C16435
:2004E0000121816070470000000107007FB504460C480D46C0680390204660300190009241
:20050000002102936846FFF72FFE25610021FFF77DFEA06A4007FCD5A06AC007FCD1A0607C
:2005200020617FBD20E61200F0B59446164C85B0144A22605A1E6260134D072640356E61E5
:200540000026EE600126EE60A660002703E0C25D2A627F1CFFB28F42F9D30C480169C06927
:200560000390604600910190002102936846FFF7FBFD26610021FFF749FE0020A060206148
:2005800005B0F0BD000307000000302020E6120070B5074C0D46064640212046FFF798FF1C
:2005A0002B46324601212046FFF7A0FF70BD000000003020FEB50646806D0F460101000570
:2005C000090C000D01252D050024019100900DE00122120329460020B8476100715A8142B9
:2005E0000FD1012000032D18641CA4B201988442EED329460020009AB8476100715A8142A5
:2006000001D00020FEBD0120FEBD000004490A6A000712091201000F02430A6270470000E5
:2006200000201320014902200860704740102020000000000000000000000000409200007A
:2006400060003020000000000000000080A40000EC003020000000000000000082A4000064
:20066000965FFFFFFFFFFFFFFFFFFFFFFFFFFFFFFFFFFFFFFFFFFFFFFFFFFFFFFFFFFFFFA3
:20068000FFFFFFFFFFFFFFFFFFFFFFFFFFFFFFFFFFFFFFFFFFFFFFFFFFFFFFFFFFFFFFFF7A
:2006A000FFFFFFFFFFFFFFFFFFFFFFFFFFFFFFFFFFFFFFFFFFFFFFFFFFFFFFFFFFFFFFFF5A
:2006C000FFFFFFFFFFFFFFFFFFFFFFFFFFFFFFFFFFFFFFFFFFFFFFFFFFFFFFFFFFFFFFFF3A
:2006E000FFFFFFFFFFFFFFFFFFFFFFFFFFFFFFFFFFFFFFFFFFFFFFFFFFFFFFFFFFFFFFFF1A
:20100000FE66E50432D5C9AC99C83E27ED7B255046BBEB321CB06F22A8C7B0C3F0887946D0
:201020006B3DCFF791E3D6299B63D560064388C85D84000000000000000000000000000022
:20104000000000000000000000000000000000000A0000007B000000988601009C860100C9
:20106000000000000000000000000000000000000000000000000000000000000000000070
:20108000680C12008D01100001081000E1081000000000000000000000000000000000001A
:2010A0000000000000000000000000000108100000000000000000004B01100001081000A2
:2010C000010810003B15100045151000911A1000C9161000B9161000A916100001081000BC
:2010E0003D1D10004D1D10005D1D1000CD1D1000DD1D10000108100001081000B91810006B
:2011000001081000151D1000010810004600000005F31000C1E4100059E3100039E31000E0
:201120005DE6100029F710006DF41000F9F41000A5F31000C1F61000F5F610006180100063
:20114000AD7F1000957F1000191E1100451E1100D51B1100B91B1100F11B1100D89D1200E9
:2011600024541100325411001DD71000750A100000000000E984100000000000000000003F
:201180000348854600F048FB0048004741DA1000680C1200084B19680868203080F309882E
:2011A000022080F31488BFF36F8F3FBCAE4608BC04BC62B618470000A47B1100EFF31080C2
:2011C00072B6704780F310887047EFF309800E4B1A6820381060F0C044464D4656465F4652
:2011E000F0C008B572B613F095FE62B60CBC116808681030F0C8A046A946B246BB4680F3C2
:2012000009882038F0C81847A47B1100014CA047014C20476D1D10000101100020467146ED
:2012200009F0A2F90146A07D0847421C0178401C0029FBD1801A704710B5002200E0521CB9
:20124000835C8C5CA34201D1002BF8D1D8B2E1B2401A10BD70B5104D002800D128680024A9
:2012600014E00A4602E09E4203D0521C1378002BF9D1DAB2224307D0002B06D0002C04D0DE
:2012800000210170401C04E00446401C0678002EE7D12860204670BD888611000321001DF7
:2012A000401E037812021A43491EF9D510467047F7B5009C0F4600262578641C002D05D0C0
:2012C00000F096F80068405DC007F5D12B2D02D02D2D18D0641E39462046029A00F08CF81B
:2012E000002F04D03968A14201D1009939607105022400290BDA4042002803DD02F0B4F891
:201300000460A007FEBD012080020643E3E70028F8DA02F0A9F804600048FEBDFFFFFF7FE1
:20132000F0B51FB488B00B990998002448400999C00F490049080991C0070B990090490023
:2013400049080B9109990898A64608431CD00B990A98084318D0099801244000420D480025
:20136000410D099824050003000B204309900B980003000B20430B9050181C494018002255
:2013800001901446104605E0002001460DB0F0BD032801DA034600E003239C46C11A0AAE8C
:2013A0000AE05F0008ADED5B4F00F75B7D430027AA187C41491C5B1E6145F2DD410004AB9D
:2013C0005A522104120C0A43240C401C0828DFDB019802900099704601910090059B049A81
:2013E0000799069800F068F8D0E700000DFCFFFF004870471C621100F7B582B0029C002770
:201400002078641C15460197302802D0002D15D015E020780127641C782804D0582802D08A
:20142000002D09D00BE0002D01D0102D07D1002710252078641C02E0082500E00A250026F0
:20144000009610E00099012769430818020C294680B2714300908E183804864201D30120E7
:2014600001902078641C294600F0FBF90028E9DA0398002805D0002F01D0641E00E0029CED
:2014800004600198002806D001F0EEFF02210160C81E05B0F0BD009930040843F9E710B5EA
:2014A000002B08DA0024401C614192185B411A4301D14008400010BDF0B51FB482B005463E
:2014C0000C0003D0084601F081FF02E001F07EFF2030024600902146284601F777FB049B18
:2014E000059A04460F4618431143084314D0184610431BD0009840210A1A1846059901F723
:2015000075FB05460E46009A0599049801F75EFB084305D0012004E02046394607B0F0BD29
:201520000020C11705430E432C43374300990E986305401A7905E40A00220C43FD0A0A3012
:2015400002D500200146E9E70105101969410C9C0D9D00196941FFF7A2FFDFE7F0B5074640
:201560000846584087B0C00F049048000E46590040084908BC1A884105D2384631461E468E
:2015800017460B4602465800400810434CD0300D039040055900400D490D0590401A0290B4
:2015A000402872DA18030121000B09050843019004980092002805D0019952420020884103
:2015C00000920190029840210A1A0199009801F7FDFA05460C466B4607CB00F02FF9C01997
:2015E0007141039A0E0D0023D71756401A467A40164344D0049A002A2DD0029A012A039A2A
:2016000015DC1205C01A914101263605001C7141D20F059ED2070093019202962A462346F2
:20162000FFF74AFF07B0F0BD38463146FAE71605224A0F46B218C01AB74101210905001C6D
:201640004F4100187F41114618187941E20F10436D19644113E0E2076D0815436408C20794
:201660001443039A01261205C01A91413605001C7141CE07400830434908C01851412A46C8
:201680002346FFF70CFFCDE7FFE7049801224000C117121A00238B4104983146C417381A14
:2016A000A141EEE730B40124E407634030BC55E730B40124E407614030BC4FE70000E0FF1E
:2016C000F0B50C465C4085B0E40FE40703944C000026640859009446490802460296224326
:2016E00021D062460A431ED06200570D4A000E032303550D012402462C492405781B1B0BA9
:20170000360B401823432643614600901C46501AB44103D30098401C009002E092180098EB
:201720005B41002803DA0020014605B0F0BD0020012109050746864611E064461D46141BA9
:20174000B54106D36546521BB341744607430C43A646CD0740084908284392185B41054606
:201760000D43EAD11046184313D06046194650407140084306D06046101AB34106D20122A4
:20178000002306E000220123DB0702E00122D2435310009874460105381C6141029C039D0F
:2017A00000196941FFF77BFEBFE70000FD0300004A0009030123090B1B0519430A4B10B52D
:2017C000520D9A4202DA0020014610BD064B34339A4203DC9A1A01F709FA10BD034BD21897
:2017E00001F7F4F910BD0000FF030000CDFBFFFF10B5002904DB0124E40740428C412146DC
:20180000002B04DB1C460123DB075242A341994200D1904210BD0000064C0125064E05E0E2
:20182000E36807CC2B430C3C98471034B442F7D3FFF7AAFC487B1100687B110010B5202A7E
:2018400006DBCB170846203A1041C1170B4306E00B461341D0402024A21A91400843194690
:2018600010BD3A2800D23038202302469A43412A01D310463738884201D30020C04370471B
:20188000FEE70000401E0028FCD17047FEB53C48066845688468C1680291016901914169B9
:2018A0000091876937A1012011F030F943A1012011F02CF944A10120029A11F027F946A1AF
:2018C0000120019A11F022F947A10120009A11F01DF93A4648A1012011F018F922464AA187
:2018E000012011F013F932464BA1012011F00EF92A464DA1012011F009F9E41C2DD0344634
:201900004DA1012011F002F950A10120226811F0FDF852A10120626811F0F8F853A1012046
:20192000A26811F0F3F855A10120E26811F0EEF856A10120226911F0E9F858A101206269FF
:2019400011F0E4F859A10120A26911F0DFF85BA10120E26911F0DAF8FEBD2C465BA1D0E791
:2019600010B5EFF308814A680548083100F0B8F8FFF78CFF002041780029FCD110BD000042
:2019800060BD110021212121212121212121486172644661756C742048616E646C65722056
:2019A000697320747269676765726564212121212121212121210D0A0000000050726F6C70
:2019C0006F673A0D0A00000052342020203D203078253038780D0A0052352020203D203065
:2019E00078253038780D0A0052362020203D203078253038780D0A0052372020203D2030D4
:201A000078253038780D0A006C722020203D203078253038780D0A006D737020203D2030B6
:201A200078253038780D0A0070737020203D203078253038780D0A004D53502053746163C3
:201A40006B20496E666F3A0D0A00000052302020203D203078253038780D0A005231202058
:201A6000203D203078253038780D0A0052322020203D203078253038780D0A00523320205B
:201A8000203D203078253038780D0A0052313220203D203078253038780D0A004C52202011
:201AA000203D203078253038780D0A0050432020203D203078253038780D0A007850535264
:201AC000203D203078253038780D0A0050535020537461636B20496E666F3A0D0A000000BF
:201AE0000160EFF3098343608260C460056146618761704700B5734611F020F800BD00007E
:201B00007FB50C4603281AD1002211462068FFF7CFFB85B2002211466068FFF7C9FB86B2FE
:201B20006A461021A06811F095FE6A463146284609F0ACF9002803D005A001F063FD7FBDC8
:201B400033460CA26946102001F076FD7FBD00007761726E696E673A206170706B657920E5
:201B600073746F72616765206661696C6564210A00000000736574206170706B6579206941
:201B80006E6465782069732025642C206170706B65792069733A00007FB50D46022803D061
:201BA0000CA001F02FFD7FBD002211462868FFF77FFB84B26A461021686811F04BFE6946C7
:201BC00020460AF08DFB23460BA26946102001F033FD7FBD6572726F723A206E65746B6530
:201BE00079206164642061726763206E756D206572726F72210A0000736574206E65746B63
:201C0000657920696E6465782069733A25642C6E65746B65792069733A200000F8B50D46DD
:201C20001B496A461180032829D1002211462868FFF73EFB0646002211466868FFF738FBE4
:201C400084B26846448000221146A868FFF730FB85B209F023FF301A86B2304609F024FDCE
:201C6000034668460188224618460AF0D7F829460AF0ECF8002803D006A001F0C3FCF8BD02
:201C80002B46224631460EA001F0BCFCF8BD0000BDBC0000616464207375627363726970BB
:201CA00074696F6E20616464726573732073746F72616765206661696C6564210A0000009F
:201CC00061646420737562736372697074696F6E20616464726573733A656C656D656E746C
:201CE0003D2025642C6D6F64656C3D2025642C61646472657373203D202564200A00000099
:201D000010B501280CD1002208681146FFF7D0FA84B220460BF0C2FC214602A001F072FC92
:201D200010BD0000736574206D6573682061646472206973203A25640A00000010B501282B
:201D40000BD1002208681146FFF7B2FA034908600A46042106200BF083FA10BD147F1100E4
:201D6000F8B50D461C496A46118003282BD1002211462868FFF79CFA06460022114668686C
:201D8000FFF796FA84B269464C8000221146A868FFF78EFA85B209F081FE301A87B2E8B239
:201DA00008F0E6FF0646384609F07EFC6946098822460AF033F831460AF00EF8002803D0CA
:201DC00006A001F01FFCF8BD2B46224639460BA001F018FCF8BD0000BDBC000062696E64C9
:201DE000206170706B65792073746F72616765206661696C6564210A000000007365742008
:201E000062696E64206170706B6579203A656C656D656E743D2025642C6D6F64656C3D20B7
:201E200025642C6170706B65795F696E6465783D202564200A00000070B50C46022813D157
:201E4000002211462068FFF733FA85B2002211466068FFF72DFA84B22146284608F03CFF8B
:201E6000214602A001F0CEFB70BD000064656C657465206170706B65795F696E64657820BE
:201E8000256420737563636573736564210A000010B501280AD1002208681146FFF708FA02
:201EA00080B20AF0C9F902A001F0ACFB10BD000064656C657465206E65746B657920737502
:201EC00063636573736564210A000000F8B50D461B496A461180032829D10022114628682A
:201EE000FFF7E6F90646002211466868FFF7E0F984B26846448000221146A868FFF7D8F9B1
:201F000085B209F0CBFD301A86B2304609F0CCFB0346684601882246184609F07FFF2946E5
:201F200009F0C9FF002803D006A001F06BFBF8BD2B46224631460EA001F064FBF8BD000030
:201F4000BDBC000061646420737562736372697074696F6E20616464726573732073746F1E
:201F600072616765206661696C6564210A00000064656C65746520737562736372697074A0
:201F8000696F6E20616464726573733A656C656D656E743D2025642C6D6F64656C3D20252C
:201FA000642C616464726573733D202564200A0070B50C46022815D1002211462068FFF71D
:201FC00077F985B2002211466068FFF771F981B2284608F0DBFE002805D0011D04A2102056
:201FE00001F02AFB70BD06A001F00CFB70BD0000676574206170706B65792069733A0000B3
:202000007761726E696E673A206E6F2076616C6964206170706B65792121210A000000004C
:2020200030B59BB00C460546642101A800F7ADFD164968460180022D22D100221146206853
:20204000FFF736F90546002211466068FFF730F984B269464C8009F021FD281A80B209F07B
:2020600023FB69460988224609F0D8FE01AA642109F0C7FE002805DD05A201A901F0DCFABB
:202080001BB030BD08A001F0BDFAF9E7BDBC00006765742062696E64206170706B65792018
:2020A0006973203A000000006E6F2076616C69642062696E64206170706B6579210A00004B
:2020C00010B501280FD1002208681146FFF7F0F880B209F0BFFF002806D0014604A208315E
:2020E000102001F0A9FA10BD05A001F08BFA10BD676574206E65746B6579206973203A0021
:202100007761726E696E673A6E6F207661696C64206E65746B65795F6B6579210A000000FF
:2021200070B586B00C4605461B4968468182142100F72BFD022D2DD1002211462068FFF71A
:20214000B7F80546002211466068FFF7B1F884B26946CC8209F0A2FC281A80B209F0A4FAD0
:202160006946898A224609F059FE694609F069FE05062D0E02D109A001F044FA00246E460D
:202180006D0805E06000315A0CA001F03BFA641CA542F7DC06B070BDBDBC00006E6F20761F
:2021A000616C696420737562736372697074696F6E2061646472657373210A0067657420AF
:2021C000737562736372697074696F6E2061646472657373206973203A2025640A000000CB
:2021E00070B50C46022803D00CA001F00BFA70BD002211462068FFF75BF885B200221146A2
:202200006068FFF755F80446014628460AF05AF9214608A001F0F6F970BD00006572726F93
:20222000723A61726763206E756D206572726F72210A00007365742069765F696E646578AE
:20224000206973203A307825780A00001CB50C46012803D009A001F0D5F91CBD00200090C9
:2022600001900DA0216801F0CDF96A460621206811F0F0FA684609F06DFD1CBD6572726FF4
:20228000723A61726763206E756D20696E76616C6964210A00000000736574206D61632096
:2022A00069733A25730A000030B59BB00C466421684600F76AFC002211462068FEF7F8FF67
:2022C00085B203221AA1206800F76AFC002828D119A809F02DFD17A219A9062001F0ACF9C6
:2022E00009F0DCFB014616A001F08CF9284609F0F1FE014616A001F085F90BF053F901464B
:202300001AA001F07FF9284609F0A4FE00280AD0284609F09FFE0146083119A2102001F02F
:202320008BF91BB030BD19A001F06CF9F9E70000414C4C004A6D657368206D61633A000017
:202340004A6D65736820616464723A2025640A004A6D6573682069765F696E646578203D14
:20236000203078253038780A000000004A6D65736820736571203D20307825780A0000005A
:202380004E65746B65793A2000000000696E76616C6964206E65746B65795F696E64657865
:2023A000210A000010B5012812D1002208681146FEF77EFF84B2214606A001F023F909F07D
:2023C0006DFB401C80B22346012200210FF07CFD10BD0000736574207265616C636F6D6D59
:2023E00020636F6E66696720616464722069732025640A0010B50FF061FD014601A001F0E2
:2024000001F910BD676574207265616C636F6D6D20636F6E666967206164647220697320D8
:2024200025640A0038B5012813D1002208681146FEF73EFF84B2214606A001F0E3F80FF0E6
:202440003DFD401C002180B2E3B2012200910FF069FD38BD736574207265616C636F6D6D34
:2024600020636F6E6669672062617564203D2025640A00007CB50C46042825D100221146DC
:202480002068FEF715FFC5B2002211466068FEF70FFF6946087100221146A068FEF708FF4B
:2024A0006946487100221146E068FEF701FF6946887109F0F3FA01A9401C009180B22B4636
:2024C000012200210BF01CFF7CBD0000F8B50D461C496A46118003282BD100221146286893
:2024E000FEF7E6FE0646002211466868FEF7E0FE84B269464C8000221146A868FEF7D8FE96
:2025000085B209F0CBFA301A87B2E8B208F030FC0646384609F0C8F869460988224609F061
:202520007DFC314609F0D7FC002803D006A001F069F8F8BD2B46224639460BA001F062F8E9
:20254000F8BD0000BDBC0000756E62696E64206170706B65792073746F7261676520666127
:20256000696C6564210A000073657420756E62696E64206170706B6579203A656C656D659A
:202580006E743D2025642C6D6F64656C3D2025642C6170706B65795F696E6465783D2025A1
:2025A00064200A0070B5002404E00D5D165D75401D55641C8442F8DB70BD10B502F0FAFE67
:2025C00010BD000010B519F769FD0349042008600CF058FE10BD000080E200E0FFB5244D95
:2025E00089B000242C80234817464DC86D464DC568468473C4730D22401C00F7ADFA079490
:202600000C9804940609354605940694761C13E0401C0880010A6A469173D07304AA6946F9
:20262000099801F04BFC2001C219134604A91020FFF7B8FF641CA4B20D49AC420888E7DB76
:20264000401C0880010A6A469173D07304AA6946099801F033FC3001C2190C99103A081A59
:20266000134604A91030FFF79DFF0DB0F0BD0000808611008C5B11000FB4F0B589B0284DF3
:202680000020159F2880274A04900590069007905CCA6D465CC56A469073D07300A80D2230
:2026A000013000F759FA04AA69460E9801F006FC1698002406093546761C13E0401C0880E4
:2026C000010A6A469173D07304AA69460E9801F0F5FB2001C219134604A91020FFF762FF8B
:2026E000641CA4B20E49AC420888E7DB401C0880010A6A469173D07304AA69460E9801F093
:20270000DDFB3001C2191699103A081A134604A91030FFF747FF09B0F0BC08BC04B01847FC
:20272000808611007C5B110010B50248006801F091FC10BDC47C110010B50248006801F01F
:202740005FFE10BDF07C1100F8B50D4EB06A00248506AD0E01273846A040284204D0F06230
:202760000848A10040588047641CE4B2052CF2D3A80604D52020F062034800688047F8BDB5
:20278000001020207CC211000C7D110070B594B0054602A812900E460AA8144613461390A4
:2027A0000AAA02A930460FF05BFD61880194491C09B20091002814D00020800012A90A58F5
:2027C000214600232846443100F00FF82078400041B2284611F073FD002804D0002014B00B
:2027E00070BD0120E9E70120F9E7FFB5AFB0399C00202056029002460FA830991E46389DA9
:20280000039011F0CAFE029830998000411806901FA804910746029A11F0BFFE17AB07AA14
:20282000394600960194039800F009FCAD1E21E02946319811F0D4FE002878D000225001A4
:2028400017A9411800940B4605910121891A4A0107AE871917A9511896193A46304601911F
:2028600000F065FB009432463846019B059900F0FDFA6D1E2DB2002DDADC0021319811F025
:20288000AFFE002855D00020420117A901255718281A07AE40014518921980193B462946BD
:2028A00006460094019200F042FB02980090231D07AA27A8039911F0C8FD27A92A46234683
:2028C000084611F0ACFD27A923460846309A11F0A6FD27A9221D0846029B11F018FD27A92B
:2028E00023460846049A11F09AFD27A932462346084611F094FD2B463946009432460198C5
:2029000000F0B4FA234627AA17A907A802F062FA07A9029A2F9811F040FE2F990698029ACE
:20292000401817A911F039FE33B0F0BDFFE7012285E70120A8E7000010B50248006801F02A
:20294000C1FC10BD087D1100F7B50E468AB000210091019102910391049105910691079158
:20296000C117090F02070918002A0BD000282AD00A0912010F11801A7F1C00250897C4B261
:202980007F1E34E000281ED00F1100247D1E0CE02001811904AB6A461020FFF703FE6A46B4
:2029A00004A9274801F08AFA641CAC42F0DB3801811904AB6A4610201039FFF7F3FD204A52
:2029C00004AB103231E080201D4A6946087404AB20322AE02801811904AB6A461020FFF770
:2029E000E1FD6A4604A9164801F068FA6D1CBD42F0DB089A0020120104A9103A03E01318BE
:202A0000F35C0B54401CA042F9DB80200855002000E00855641C102CFBDB094A0B46203214
:202A20001020FFF7BFFD04AB6A4619461020FFF7B9FD04A902480C9A01F040FA0DB0F0BDE8
:202A400080FA110070B5002310E0CC5C25092407240F30343035392D00D9ED1D392C00D9AF
:202A6000E41D5E00855535186C705B1C9342ECDB70BD000010B58CB00021089109910A91C4
:202A80000B911CA11EC9079404AC0EC41D4A0021435C5354491C1029FADB6A4608A91948D6
:202AA00001F00CFA68460078174A8028694603D210200BF08DFB08E010200BF089FB124BC5
:202AC00004AA19461020FFF76DFD0F480F4A00780D49802804D210200BF07AFB0CB010BD34
:202AE00010200BF075FB094B04AA19461020FFF759FDF3E700000000000000000000000084
:202B00000000008780FA110090FA1100A0FA110010B512F07DF810BD10B5034800780028A4
:202B200001D100F0C1FA10BDF0FA1100F8B5044616480078002801D100F0B6FAFF200025A5
:202B400069460870102C1DD21148104E005D48701836307D0E4F8007800F7F1E02280BD047
:202B6000304600F0D7FA02280CD33C7002226946304600F0FAFB07E03C700222304600F01E
:202B8000C4FB01E00025ED432846F8BDF0FA11005E7C110070B5074B0646187814460D4637
:202BA000002801D100F080FA22462946304600F003F870BDF0FA110070B50E461821484314
:202BC000134914464518E86A1835002804D001280FD0022805D113E0284600F09BFAA04277
:202BE00001D2002411E022463146284600F0BDFB0BE0284600F08EFAA042F4D20446F2E75C
:202C00003146284600F081FB0446204670BD0000F0FA1100F7B598B007A802904020039063
:202C200000200C460490189915460826069105902178641C002970D0252907D002A800F0E7
:202C400045FB05980028F3DA1BB0F0BD0122002013460227217823291BD02B2916D02D2905
:202C600002D0302906D101E0184300E03843641C002AEFD1002122781346303B0A2B0AD2C1
:202C80000A23594389183039641CF4E704210843EDE73043EBE70023D7B22E2F0AD1641C19
:202CA00022781746303F0A2F04D20A277B439B18303BF4E76C2A0DD0682A0BD0702A48D025
:202CC0000BDC252A4FD0582A28D0632A0CD0642A4DD10EE02278641CECE7732A2AD0752AFF
:202CE00013D0782A43D119E02868011D296001783AE02A68171D2F601768009101900A2256
:202D0000394602A800F011FA31E02A68171D2F6017680A220091019007E02AE02A68171DA5
:202D20002F601768102200910190394602A800F061FA1CE02868011D2960076839787F1CCF
:202D4000002914D002A800F0C1FA05980028F5DA0DE028680823011D296001680020102273
:202D600000960190E2E7252102A800F0AFFA641C67E7002800DC67E70498002804D00246DA
:202D800007A91898FFF706FF04990598401805905AE7000010B50749002048600649002321
:202DA0008A69C8698B61CB61194690470CF06AFA10BD0000402013209886110010B50248A3
:202DC000006801F0EDFD10BD007D110010B50248406801F0E5FD10BD007D110010B5024861
:202DE000006801F0DDFD10BDFC7C110070B5114D114CAB4205D00020206060600220A06026
:202E000006E007C40121132089030004FFF6BDFEBFF35F8F0120094900058860BFF34F8FDC
:202E200025200749C003FFF6B0FE06490648FFF6ACFE70BD993300000CF5120000ED00E082
:202E4000C61D0000340A0000CCF5120010B50248006801F0A1FE10BDF47C110010B502481A
:202E6000406801F099FE10BDF47C1100FFB589B0129D00240E4607462C570246009401A86B
:202E80002B1D0B9911F0E1FA01A92A46084611F0D6FA39462B4601AA084611F0C0FA0B99E9
:202EA0002B4601AA084611F0BAFA0C992B1D32460094084611F0C9FA2A4601A80C9911F029
:202EC000BEFA01A92B1D3A460846009411F0BDFA01A92B1D009408460B9A11F0B6FA0B9960
:202EE0002B1D3A460094084611F0AFFA31462B4608460B9A11F093FA2B1D01AA394600940F
:202F00000B9811F0A2FA0C992B4608460B9A11F086FA0C992B1D32460094084611F095FA10
:202F2000224601A90B9811F038FB0DB0F0BDFFB599B0229D002416462C570F46009431461F
:202F400009A82B1D199A11F080FA09A92A46084611F075FA19992B4609AA084611F05FFAEC
:202F600031462B4609AA084611F059FA2B1D3A46009409A81C9911F0B3F91C992B1D3A4628
:202F80000094084611F061FA00942B1D314601A8199A11F05AFA39462B4601AA084611F005
:202FA0003EFA00942B1D324601A8199911F098F92A4630461C9911F042FA31462B1D01AA56
:202FC0000846009411F041FA00942B1D324611A8199911F03AFA1C992B4611AA084611F0AF
:202FE0001EFA1C992B1D3A460094084611F02DFA2A4609A911A811F022FA11A92B1D01AA8D
:203000000846009411F021FA00942B1D11A901A8199A11F01AFA01A92B4609AA084611F08E
:20302000FEF93A462B1D01A91046009411F00DFA224611A9199811F0B0FA1DB0F0BDFFB589
:2030400089B0139C0025129965571E461746002904D02A46684611F0A0FA05E02946684683
:2030600011F0F3F8012000902A463846099911F094FA2A4630460A9911F08FFA23466A4668
:203080000A99099801F0A6FEA420055923466A460A990998A84723466A463146384601F0EA
:2030A00099FE0DB0F0BD000010B5114C02202061606110A0A0611248E06101208002002179
:2030C000A162206261620BA0E162A0640D48E064A165102061652065E1650BA1E01DFFF6B8
:2030E0006CFD0AA12046FFF668FD2020A07110BDF0FA11005465726D696E616C00000000A7
:203100007CBD11007CC111005254540053454747455200000269C1688A4203D88068401AE3
:20312000801800E0501A401E7047FFB583B00E4670420D9F0C9C0090002900DB084601254F
:2031400002E0FFF6B3FC6D1C05998842F9DA0698A84200D90546002C04D0002E01DB7807F0
:2031600000D5641EB80702D50698002810D0F8070ED1002C0CD0A5420AD22021641E0398B5
:2031800000F0A4F80398C0680028F2DA07B0F0BD0398C0680028F9DB002E02DA2D21009ED3
:2031A00002E0780707D52B21039800F08FF80398C0680028EADBB807800F022810D10698CD
:2031C00000280DD1002C0BD0A54209D23021641E039800F07BF80398C0680028F2DAD5E7DC
:2031E000019700943146069B059A039800F002F8CCE70000FFB581B001261F4635460A9C22
:20320000029802E0FFF63CFC6D1C03998842F9D2AF4200D93D460B98C00718D1002C16D099
:203220000B98800701D5002F02D0202000900CE03020FBE7641E0099019800F047F8019823
:20324000C06800283DDB002C01D0A542F2D30198C068002835DB012F01D97F1E06E0314660
:203260000298FFF60DFC0399884202D303984643F1E7154F31460298FFF602FC0146029A34
:203280007143511A0291395C019800F01FF80198C068002805DB30460399FFF6F1FB060085
:2032A000E8D10B98C0070CD0002C0AD0A54208D22021641E019800F009F80198C068002812
:2032C000F2DA05B0F0BD00003754110010B5044680686368421C934205D323681954A2605D
:2032E000E068401CE060A2686068824209D121682069FFF74FFCA168884203D00020C0435E
:20330000E06010BD0020A06010BDF7B5054682B000200090EC6817462869A04201D9061BBB
:2033200002E0A968201A0E1AA868761E001BB04200D80646BE4200D33E46686832460019AB
:203340000399FFF609FC0098BF1B801900900398A41980190390A868A04200D10024EC6085
:20336000002FD9D1009805B0F0BDF7B50446C7688068E168C51B606816464018B54205D9F3
:203380000199FFF6E9FBB819E060FEBD2A460199FFF6E2FB0198761B411932466068FFF659
:2033A000DBFBE660FEBD000037B514460846064B6A46214600F078F904466946002000F0D0
:2033C0000FFD20463EBD0000612D10002021020C01D010211046020A01D0104608390209BC
:2033E00001D01046091F820801D01046891E420801D0881E7047081A7047F8B5040C8BB2DB
:20340000264682B25E430D0C1046370C5843360480190021794116466E43370C360480194D
:20342000794126466E438919F8BD000008B572B613460A46009002A101200FF067FBFEE736
:20344000417373657274696F6E204661696C65643A2066696C652025732C206C696E652089
:2034600025642C2025730A00004870479486110002E008C8121F08C1002AFAD1704770479C
:20348000002001E001C1121F002AFBD170470000F0B51FB486B00998089A030D0021024324
:2034A00014D05148514A1818504305141198012810981AD0281A401C00264D4F4D49009628
:2034C00001910490002812DA444211E01198012449A3012801D11098C1430698119A8460AD
:2034E0000360C26041600BB0F0BD4042E4E70446210500203F4A001C51410391029012E012
:20350000E00707D032463B4601990098FDF708FF0191009032463B4610461946FDF700FF04
:2035200006460F466410002CEAD10498039B0028029A0999089806DAFDF7F2FE019B009A55
:20354000FDF7EEFE05E0FEF7BBF8019B009AFEF7B7F804460E460022284BFEF749F903D8DF
:203560000020C043014607E00022254B20463146FDF7F4FFFEF71CF9102409E0002C0ADB6C
:203580000A220023FFF6A6FA079B30321A55641E02460A43F2D11122641C079B121B1C1943
:2035A000119B012B03D0012308430ED10AE0084304D0112010900020119077E71098151A42
:2035C0006D1E0BE01098824202DD00236D1C03E0824201DA00236D1E002BEED0069811991D
:2035E0008260C16030C07EE701FCFFFF104D0000000014400000F03F300000000000F04335
:203600000000E03F0FB410B511F064FF03AA09480299FFF7C9FE04460648FDF706FE81B286
:20362000044A00200AF0F6F9204610BC08BC04B0184700005CF611000FB4F8B5054611F00B
:2036400049FF09AA17480899FFF7AEFE009000271448FDF7EAFD134E044630192038C07F54
:203660000A2800D1641E68000019FE2804DDFE20001BC10F0818451030192A460799FFF770
:20368000E1F968000A210019315481194F70401C81B2044A00200AF0BDF90098F8BC08BC09
:2036A00004B018475CF61100FFB597B00646002518E2252877D100242746FD49049400E04A
:2036C0000443761C32780120203A90400842F7D130782A280ED00222307801463039092984
:2036E00016D804990A235943303940181443761C0490F1E7189802C804911890002904DAA2
:203700000120400304434842049002200443761C30782E2814D1042004437078761C2A28CB
:2037200009D11898761C80C8189009E00A214F43303FC719761C3078014630390929F5D99E
:2037400030786C2810D006DC4C281AD068280ED06A2817D104E0742813D07A2812D110E04D
:203760000120400504430CE00121090501E0032109050C437178814203D10120000524183C
:20378000761C761C3078119066280BD013DC58287DD009DC00287BD04528F6D04628F4D0DA
:2037A00047281AD1A5E118E0632835D0642870D0652812D19DE170286CD008DC6728F1D0DF
:2037C00069287BD06E280DD06F2806D1BAE073282ED0752871D0782859D01A9A1999904715
:2037E0006D1C7EE16002400F022809D003280DD00428189801680DD00D60001D189070E180
:203800001898EA1701680D604A60F6E7189801680D80F2E70D70F0E718986A46017811726B
:20382000001D18900020507202A80090012005E0189802C8189000200091C04361070DD581
:20384000002101E00199491C0191B94212DA8142F8DB009A515C0029F4D10BE0002101E036
:203860000199491C01918142FADB019A0099895C0029F5D1019904981A9B471A21463846E6
:20388000199A00F097FA0199401945180BE04FE02CE113E04EE0009800990078491C0091BD
:2038A0001A9A199990470198401E0190401CF2D1214638461A9B199A10E137E00A20002184
:2038C000009001916002410F022907D0189A01CA1892C2179446032908D00AE01898C01DBD
:2038E000C108C90005C91891944607E000B2C2179446042902D140B2C1178C460022614634
:20390000944506DA0A460021404291418C462D2102E0210504D52B216A461173012103E0A3
:20392000E10701D02021F7E7029155E00A200AE0102008E0102000900021042004430191DD
:20394000082703E008200021019100906002410F022907D0189A01CA1892002294460329E7
:2039600008D008E01898C01DC108C90005C91891944603E080B2042900D1C0B200210291DE
:20398000210729D51199702906D0009A1021019B4A401A4305D00EE040216A461173012120
:2039A00008E06146014306D030216A4611731199517302210291009A0821019B4A401A436F
:2039C0000AD16146014301D1610705D530216A46117301217F1E02911199582904D035A161
:2039E0000E910DA90D910DE037A1F9E76146019B009AFFF66FF80E9B8C469B5C0D9A521E6D
:203A00000D92137061460143F0D10D9805A9081A20300190600703D501200004844300E077
:203A200001270198874201DD381A00E00020019900904118029809180498401A0490E00321
:203A400006D421461A9B199A049800F0B3F94519002706E003A81A9AC05D199990476D1C8C
:203A60007F1C02988742F5DBE0030CD521461A9B199A049800F09EF9451904E01A9A30207C
:203A8000199990476D1C0099481E00900029F5DC08E00D980D990078491C0D911A9A199977
:203AA00090476D1C0199481E01900029F1DC63E109280100303132333435363738396162D9
:203AC0006364656600000000303132333435363738394142434445460000000000F05AF96F
:203AE0004519761C3078002800D0E2E528461BB0F0BD600700D406271898C01DC108C90002
:203B000048680A680831C30FDB071891190001D09CA108E0210501D59BA104E0E10701D009
:203B20009AA100E09AA1430011985B08109165280CD006DC452809D046281DD0472841D1D2
:203B400041E0662818D067283CD13CE00021112F01DB112000E0781C0191009008A911A8A8
:203B6000FFF796FC139905910021119A15927F1C12980197009150E00120C00703900120CE
:203B8000019008A9009711A8FFF782FC139A149905920022119B009212981593059A01924A
:203BA000002901D0104602E0791C40180190381A01D5019804E04042401E0090781C01901B
:203BC000C01B029043E0012F00DA01270021112F01DD112000E038460191009008A911A8C9
:203BE000FFF756FC13990591119A0021129815920091019721070CD40599B94201DB0199DE
:203C000000E00191012904DD159A491E515C302906D0B84201DA011D05DA0121029115E0B9
:203C20000199491EEDE7002805DC0099411800910199091A03E0019A411C914200DD019149
:203C40000099401A401C02900120C0070390200706D402990198814202DB0020C04302907E
:203C600000206946C87707AF012103980337C907884224D0022011902B2012900398002888
:203C80000CDA404203902D20129007E00A210398FEF6F6FE30317F1E039039701199481E5B
:203CA00011900029F2DC03980028EFD1791E129808703078202108404530BF1E387006A857
:203CC000C01BC01D039010980078002800D00120019941180298C017091803980918049883
:203CE000401A401E0490E00306D421461A9B199A049800F05FF8451910980078002803D090
:203D00001A9A199990476D1CE00324D521461A9B199A049800F04EF845191CE00098002846
:203D200007DB00990598884203DD1598405C199901E0199930201A9A904700986D1C401CDB
:203D400000900298401E0290002804D11A9A2E20199990476D1C0199481E01900029DDDCC5
:203D600005E038781A9A7F1C199990476D1C0399481E03900029F4DC21461A9B199A049854
:203D8000ACE600002D0000002B0000002000000000000000F8B5044600251E4617468804B0
:203DA00004D405E039462020B0476D1C641EF9D52846F8BDFFB50446002581B01E46C80311
:203DC00001D5302700E02027880404D505E038460399B0476D1C641EF9D5284605B0F0BD8B
:203DE0000A68531C0B60107070470000F0B59646154A0023146824E0A600724656439D0029
:203E00006F18F75DC25C76185740C754E7186A1CBC46B25CC75D7A406746C2556700FF18B4
:203E2000AA1CBC46B25CC75DED1C7A406746C2556200A218755DD218865C75405B1C855442
:203E4000DBB2A342D8DBF0BD7086110010B50D480CF04DF807F068FA002812D0012808D0CA
:203E600002280CD003280CD0222207A111A0FFF7DDFA114800680BF070FE002801D107F0B0
:203E8000E5F810BD2CD111002E2E5C2E2E5C6A6D657368424C455C7372635C626561726511
:203EA000725C6164765C6A6D6573685F6164762E63000000300000007484110030B5ADB0E0
:203EC0000D46144669460AF0DBF86A462146284602F06CF800202DB030BD0000FFB591B0FF
:203EE000002415461E46089409940A94142224490CA80B94FEF630FE3709009401940294F1
:203F00007F1C03940494059406940794300707D03801321A411908A810391032FEF61CFED3
:203F200000240CAE7F1E12E02001411904AB6A461020FEF737FB721C04A91298FFF7BEFF4B
:203F40001022711C6846FEF607FE641CE4B2BC42EADB04AB6A4608A91020FEF723FB721C41
:203F600004A91298FFF7AAFF1022711C6846FEF6F3FD11220CA91198FEF6EEFD15B0F0BD18
:203F8000685B110070B50646104615460C4608300DF0FCFC00280BD006804480102181802D
:203FA000C580083004462946FEF6EFFD204670BD122202A109A0FFF739FA00002E2E5C6691
:203FC00072656572746F735C6170705C6F736170705F7461736B2E63000000006D736720B7
:203FE000213D204E554C4C0070B5154D044669688847EA680021204690472A6802212046CC
:2040000090472A680021204690470720E1680122C00108188261207A8240521E9006800E92
:2040200002021043032212028918086308616A69002120469047EA6801212046904770BD6C
:20404000AC7C110010B50248FFF7CEFF10BD00002C7D1100F8B50646C0680321090247181F
:20406000B968002916D0CD220FA119A0FFF7DEF900240BE0A96E0120A040014204D0B86392
:204080002146304604F08EFD641CE4B2307AA04203D9EFE70521C9014518A86E0028E7D12D
:2040A000304604F031FDF8BD2E2E5C706C665C7065726970686572616C5C6170705F646D64
:2040C00061635C6170705F646D61632E630000007265672D3E7374617475735F6572725FA6
:2040E0006C203D3D20300000F8B50C46054604F059FC06460C2358436A682168031DD15025
:2041000001466B68626808315A506A68216911502D4F0021FA68284690477A690221284663
:2041200090473146284604F01BFC60694104490F0DD0012908D0022904D0682223A12DA059
:20414000FFF774F9022203E00022022101E000220021EB688504C705AD0F7F0F2D05BF03A6
:204160003D4307057F0FFF023D4352021543C9010D434107490E0D438106490F49000D4377
:204180000002C00F582105437143C8188561002202646269550252032D0F120FED02D201F5
:2041A0001543AD1C4564A2685A50E16881600120B04081068006890E800C01430720C001EA
:2041C000181801623046F8BDAC7C11002E2E5C706C665C7065726970686572616C5C617039
:2041E000705F646D61635C6170705F646D61632E630000003000000010B501460148FFF7BE
:2042000073FF10BD2C7D1100F3B50646C0680521C90183B04518049901248C40296C214283
:20422000FCD003210902411802918C63A706A106BF0E890C0F430721C90140180190049829
:204240000C214843009008E004F08AFB01980762286C2042FCD0029884637168009808589F
:20426000049900283046EFD104F0D6FB304604F04BFC05B0F0BD000010B501460148FFF720
:20428000C3FF10BD2C7D110070B50D4E0546F26800219047326802212846904732680021FB
:2042A000284690476C6804E02146284606F0E5F82468002CF8D1726900212846904770BD6A
:2042C0009054110070B5054644680EE0E968086C227AD040C00707D0CB6C012090408343E2
:2042E0001843C864606880472468002CEED170BDC06842688A4342607047C06842680A43ED
:2043000042607047C06840687047C06841607047C06802688A4302607047C068006870477E
:20432000C06802680A4302607047C0680160704770B50E460446EFF3108572B6406801F04A
:20434000FAFA002804D073220CA116A0FFF76EF83146606801F0C8FA207A002803D0002072
:20436000002D03D003E001202072F9E762B6002802D0204606F07AF970BD00002E2E5C7091
:204380006C665C7065726970686572616C5C6170705F68776563635C6170705F687765631A
:2043A000632E63003000000010B501460148FFF7BFFF10BD407D110070B50C4C05466168A4
:2043C0008847E26800212846904722680221284690472268002128469047E868002141606A
:2043E00001210161E2682846904770BDD87C110010B50248FFF7E0FF10BD0000407D110099
:20440000F8B50446E1680120C8610021606801F09AFA0546876946690721E068C901411827
:204420002022E868FEF698FB1D21E0684901411820222869FEF690FB0F480121C2682046DF
:204440009047EFF3108572B6606801F03BFA606801F06AFA002802D00020207200E001202E
:20446000002D00D162B6002802D0204606F0FEF83846B047F8BD0000D87C110070B5174DC2
:2044800004462B690179C668002298472A68022120469047AA68012120469047EA680021BF
:2044A00020469047207C000181194A68E08892B2000410434860207C000181194A68208999
:2044C000120C1204104348606A69002120469047EA6801212046904770BD0000A854110091
:2044E00070B5144E044633690179C56800229847F268002120469047207C000141194A6846
:20450000E08892B2000410434860207C000141194A682089120C120410434860207C0001D2
:204520002958012211432950726902212046904770BD0000A8541100F8B50F4609491646E5
:20454000CA681D46046900219047A8070649400A40182060B008401E606027610120A060C2
:20456000F8BD00004854110000021F0010B50B46024601210148FFF7DFFF10BD507D110070
:2045800001698A6AD207FCD18A600A610149CA68012110474854110010B50248FFF7F0FF2C
:2045A00010BD0000507D1100006960307047000010B50248FFF7F8FF10BD0000507D1100F9
:2045C000FFB581B01E4605460DF05BFB0090144F2C69FA680021284690477A690221284630
:2045E0009047204600990DF07BFB039820663002000E20663004000E2066F0B22066204635
:204600000B9B0A9A02990DF079FB7A69032128469047FA6801212846904705B0F0BD0000CD
:20462000485411001CB5019300920B46024601210148FFF7C5FF1CBD507D1100F8B5244F41
:20464000044679688847FA680021204690473B69E179002220469847607B002809D03B69BB
:20466000E17A0422204698473B69A17A0322204698473B69217A0122204698473B69617A25
:20468000022220469847002505266019017B3B693246204698476D1C761CEDB2F6B2002D7C
:2046A000F3D02169002088602169A08848612069A1798030016720690649803041677A697C
:2046C000002120469047FA68012120469047F8BD485411001842000010B50B4902228A80B8
:2046E00001228A714873182008731920C8711A2008721B2048721C2088721D20C872084618
:20470000FFF79CFF10BD0000507D1100FFB587B006900469119901208004814204D39B22C9
:2047200039A144A0FEF782FE474F8D088E07B60FFA680021069890477A690221069890474E
:2047400012988007470A002D2ED0404838182060681E6060072060650020E0640120E06459
:20476000A060099820660A982066182238496846FEF6F2F92046EC300290109803900F2222
:2047800005980121D203C9039043084311018843059004956846FFF72FFD08992161FFF7A7
:2047A0006BFD0020A0602061002E22D0294838182060701E60600023E3640120A060099815
:2047C00020660A98A9000818206608982061A06A4007FCD5A06AC007FCD110980918002098
:2047E00003E0226E0A54401CC0B2B042F9D3A3602361154C0321626906989047E2680121A4
:20480000069890470BB0F0BD2E2E5C706C665C7065726970686572616C5C7373695C617061
:20482000705F717370695C6170705F717370692E630000006C656E677468203C20307834C8
:2048400030303030000000004854110000021F0020551100000207003EB51446069A002A24
:2048600001D0022200E00122019302920B460246009401210148FFF749FF3EBD507D110069
:20488000FFB505460469254887B0C2681F46119E00212846904721480221426928469047E8
:2048A0001F482060701E6060072060650020E0640120E064A060002004E00999095C21667C
:2048C000401CC0B2B842F8D3182216496846FEF643F9204660300290109803900F2205983D
:2048E0000121D203C90390430843110188430496059000266846FFF77FFC08992161FFF76D
:20490000BBFCA6602661054C0321626928469047E2680121284690470BB0F0BD4854110008
:2049200000030700085511001CB5019300920B46024601210148FFF7A3FF1CBD507D1100B5
:20494000FFB581B004460DF09CF90F4D0746EA6826690021204690476A690221204690477B
:20496000394630460DF0BCF9304602AE0ECE0DF0C5F96A69032120469047EA6801212046C5
:20498000904705B0F0BD00004854110010B50B46024601210148FFF7D3FF10BD507D1100F5
:2049A00070B5064605462036A86A006B0406240E2ED0A00606D5327B1AA102200EF0A6F887
:2049C000A86A406CE00602D528460EF045FE200706D5327B1BA102200EF098F8A86AC06B55
:2049E000600706D5327B1FA102200EF08FF8A86A006CA00706D5327B22A102200EF086F853
:204A0000A86A806BE007CFD028460EF0B5FECBE7A86A8068002804D122480121C268284627
:204A2000904770BD73706925642C6D756C74695F6D617374657220636F6E74656E74696F68
:204A40006E0A000073706925642C52656365697665204649464F204F766572666C6F770A58
:204A60000000000073706925642C52656365697665204649464F20556E646572666C6F7758
:204A80000A00000073706925642C5472616E736D6974204649464F204F766572666C6F7701
:204AA0000A00000078541100406BEFF3108272B6C16F090708D4C16F490705D501690223C3
:204AC00099430161012000E00020002A00D162B67047406B01690222114301617047000007
:204AE000F8B50646051D40682A4F840A8005800D0090796830468847BA682146304690474E
:204B0000FA680021304690473B6929790122304698473B696979002230469847287A746B89
:204B2000400709D53B69A9790322304698473B69E979022230469847287A2021000700287F
:204B400004DA8120A0602069084303E00120A060206988432061287AC1078007C00F090F51
:204B60000001C91C0143E16060680421084360603A680221304690473A68002130469047B0
:204B8000204600990FF05AFE7A69002130469047F8BD000060541100F8B50646406B3546D5
:204BA00020350090009880680107090F012954D0022939D0042920D0062907D00C291CD0AA
:204BC0002A7E26A102200DF0A1FFEBE7746B6069C7B2B80708D527A101200DF097FF00E0BC
:204BE00020686069C007FBD13807DBD525A101200DF08CFF01202874D4E73046726B0AE0BE
:204C00001168436A1970016A491E0162436A5B1C4362002903D05169C907C3D0F0E70021D6
:204C200041620FF0CBFDBDE73169304600290FD0426B09E04169097811604169491C41616B
:204C40000169491E0161ADD0D16F8907AAD5F1E7002141610FF08CFEA4E7F8BD7561727435
:204C60003A256420756E6578706563746564206969640A0075617274206F76657272756ECF
:204C80000A00000075617274206672616D696E67206572726F720A00F8B516460F4604464E
:204CA0001D461A46314638460FF020FE67622662A5620698E062094802214269204690478B
:204CC000207B800603D5204600F00AF8F8BD606B4168012211434160F8BD000060541100C8
:204CE00030B587B004460FF0EFFC0546182216496846FDF631FF0194606B0290606A039060
:204D0000206A0490207B000701D5680800E0012003F098FEFF2205994007C132C00D914369
:204D2000014320340591207E002801D00B2000E009200F22D203C003914301436846059155
:204D4000FFF75AFA07B030BDC0541100F0B516460F46044687B01D461A46314638460FF0B2
:204D6000C5FD67612661A5610C98E06117480421426920469047207BC00621D520460FF00F
:204D8000A3FC182212496846FDF6E6FE019460690290606B0390206920340490207E0028D5
:204DA00001D00A2000E008200F220599D204C0049143014368460591FFF71EFA07B0F0BDB9
:204DC000606B4168022211434160F7E760541100D8541100F0B5164689B00F4604461D462A
:204DE0001A46314668460FF02AFB21462B466A4608460FF014FB69462B46324608460FF041
:204E00000EFB39462B466A4608460FF008FB09B0F0BD00000249896A002900D008477047F6
:204E2000E484110008B508460B310091417A827A491ECBB22821095C801C06F0F5F906F062
:204E4000B9FD08BDF0B585B030220D211048FFF799F8032202700F2304464370C020208454
:204E60001B20FF2160844931A18400250126A576E676F702E78404976F4663C70549032042
:204E80000DF044FE302120460BF045F905B0F0BD040D0000CC7A110070B50C461D462C22F1
:204EA00019460A48FFF76EF8002228210A540849CD802C210BF02FF9204621780A3006F0DF
:204EC0001DF90121002006F025FE70BD020E0000D2FA110008B500931346024602A1032090
:204EE0000DF014FE08BD000064656675616C742068616E646C65722C6D736769643A203031
:204F00007825782C20646573745F69643A20307825782C207372635F69643A203078257856
:204F20000A00000010B500F079FB10BD10B502A103200DF0EBFD10BD636861720000000096
:204F400010B502A103200DF0E1FD10BD646573630000000010B502A103200DF0D7FD10BD56
:204F6000696E636C0000000010B5180A06F0DCF80021084606F0CEFD10BD000003490A6B1C
:204F800052005208C00702430A6370470000102010B50C460A788EB018A103200DF0B6FDA2
:204FA0002078022822D006281ED1A378E278217960790D930AAB07C3A379E279217A607A2D
:204FC000069007A80EC0A37AE27A217B607B029003A80EC0A17BE07B01910090237C627CAD
:204FE0000AA103200DF092FD0EB010BDE378A27814A103200DF08AFDF6E70000626F6E647B
:205000005F696E645F25640A000000004373726B203D2025783A25783A25783A25783A2573
:20502000783A25783A25783A25783A25783A25783A25783A25783A25783A25783A25783A58
:2050400025780A00417574685F25642C4C746B2050726573656E745F25640A00F8B50C46E6
:205060000A7826A103200DF051FD2078294C2A4F01251026002828D0072825D127A1032067
:205080000DF044FDE18822223846FEF77BFF4570072101702549044641820025FDF64AFD10
:2050A00061196D1CEDB28870102DF7D30025FDF641FD61196D1CEDB20875082DF7D326773E
:2050C000222120460BF027F8F8BD19A103200DF01DFDE18822223846FEF754FF05704570C7
:2050E000032181700022C27009230371467104238371C17102722221E4E700006761706386
:205100005F626F6E645F7265715F696E645F25640A000000D2FA1100140E00004741504340
:205120005F4C544B5F455843480A0000A4A60000474150435F50414952494E475F5245517F
:205140000A0000007047000010B51A4602A103200DF0DCFC10BD0000636F6E6E65637469AE
:205160006F6E5B25785D20636F6E6669726D65640A00000010B503A103200DF0C7FC0020B0
:2051800010BD0000706172616D20757064617465640A000010B508780C460D2808D017DC89
:2051A000012820D0022872D003282BD00C280ED110F0CCFC0246637842A103200DF0A6FCA1
:2051C0006078442864D0002801D106F037F810BD11282FD012282DD01B28F8D140A10320EC
:2051E0000DF094FCF1E74878002804D0F52240A148A0FEF71BF94FA103200DF087FCFFF71C
:2052000021FE10BD4DA103200DF080FC0A220D214E48FEF7B7FE1B21017000214170472296
:20522000428046228280C180494A02810A210AF072FF10BD10F08AFC0246637845A10320D6
:205240000DF064FC60784428F3D1494800680AF09FFC0400EDD0206841782A2902D02B29E0
:2052600005D010E0831C02782A21012003E0831C02782B21002005F0F9FF00233D4A28219C
:205280003D480AF04DFE206807F0E8FA10BD12E005F0D4FFFDF64EFC5021FDF607FC08466A
:2052A00050301421FDF602FC01460023314A32480AF036FEEAE74A7830A103200DF026FC15
:2052C000E4E70000256C643A20616476207564697265637420696E642025780A0000000047
:2052E0006372656174652074696D65720A0000002E2E5C2E2E5C6A6D657368424C455C73C6
:2053000072635C424C455C424C455F61646170742E630000706172616D2D3E7374617475B3
:20532000733D3D4741505F4552525F4E4F5F4552524F520072657365740A00006164642005
:2053400070726F66696C650A000000001B0D0000FF010000256C643A207363616E20706145
:20536000737369766520696E642025780A00000074841100CD2D10002CD111006761706D1B
:205380002063616E63656C65642025780A00000010B5087803F01AFE10BD0000014903206D
:2053A000486370470010202010B503200EF01AFB10BD000010B50120800200F051FE09F0D3
:2053C00079FE00200EF00EFB0A49012008700A490420086009490A68024207D0002C07D181
:2053E000FF22023206A10FA0FEF720F8641CF2E710BD00004C7C110000E100E000E200E073
:205400002E2E5C706C665C6278323430305C7372635C736C6565705C7379735F736C6565BA
:20542000702E6300726564756E64616E745F74696D65000004490A68C00752085200C00F97
:2054400002430A60704700004000112004494A69000712091201000F02434A61704700008A
:205460004000112004494A680005120B1203000D02434A60704700004000112004498A6822
:205480000005120B1203000D02438A6070470000400011200449CA680005120B1203000DAE
:2054A0000243CA60704700004000112004490A690005120B1203000D02430A6170470000EA
:2054C00040001120014610B50748002300685A1E406810F0D3F8012804D01F2203A10AA0FE
:2054E000FDF7A4FF10BD00006C7B11002E2E5C6672656572746F735C6170705C626C655FA3
:205500007461736B2E6300003000000010B50988180A05F0EFFD10BD10B5E12019460622A4
:205520000001FEF72FFD0446012020700549A180618005A103200DF0E9FA062120460AF0CE
:20554000EAFD10BDFFFF0000626C655F706172616D5F7570646174655F7265715F68616ED7
:20556000646C65720A00000010B50888472802D1888805F0D3FE10BDFFB581B00C9F1C464E
:2055800015460E46880704D5002211460120FCF7B1FA280B04D0002211460120FCF7AAFA84
:2055A000600804D0002211460120FCF7A3FA0A98400804D0002211460120FCF79BFA0B9802
:2055C000400804D0002211460120FCF793FA780904D0002211460120FCF78CFA0D9800097F
:2055E00004D0002211460120FCF784FA0198B107C007084329040843E10308430A994903D3
:2056000008430B9909030843390108430D9908430149486305B0F0BD4000102010B501221F
:205620000D210748FEF7AEFC01220446027005A103200DF06BFA012120460AF06CFD10BD8C
:20564000020D0000626C655F72657365743A636D642D3E6F7065726174696F6E203D20253A
:2056600078200A0004490A68FF231B049A43000402430A60704700008000102010B5034881
:205680000078022801D10DF037FB10BD4C7C110010B54A8A180A002105F010FD10BD000016
:2056A00010B50A4C207800280ED109A103200DF02DFA0B4910200A6B824302430A6300E0EF
:2056C00030BF20780228FBD110BD00004C7C1100736F66742077616B6575700A0000000034
:2056E000000010201CB50E4C20600E4800680DF05DFA0025ED43FFF7C1FF20682A46006852
:20570000694610F0F7F80128F5D1FFF7C9FF684681880029EFD0827900980AF003FDEAE741
:205720006C7B1100F87B110003490A68120A120202430A60704700008000102070B50C4672
:205740000646FF21154691310748FDF61EFA224631460548FDF600FA034828602009000150
:20576000103080B270BD0000F0F81100F8B505460FF0A6F90DF032FE044603F033FC06005C
:2057800001D0072C05D0E00700D030BF0FF0A4F9F8BD2A4FB96838680C1A012E0FD0651E48
:2057A0002748456000F052FD0AF038FE30BF0AF0FFFD23480069002807D0012106E06D1C1D
:2057C000684379680019451AEAE700211C480068012E0DD100290BD07A680021AA180B46E0
:2057E0004B41821A994103D3EB2216A11CA023E0001B3968FDF644F905460FF047FBB868B6
:20580000A04204D339686943C943814201D2012400E00024396869430818094DB860686014
:2058200000F014FD002CB1D12868B9688842ADD9FF22053203A11AA0FDF7F8FD787B110015
:20584000000020202E2E5C6672656572746F735C6170705C7461736B5F696E69742E630096
:205860002875696E7436345F742977616B6575704D6174636856616C7565202B205254430F
:2058800057616B65757044656C6179203E52544356616C75654166746572536C656570007D
:2058A0005254435F43555252454E54434E545F47455428293C3D7274634D61746368436FA7
:2058C000756E74008188037B02684B439A184389491C5B1E438189B281800389994201D15D
:2058E000002181801046704710B50B46044600F015F8227B1946FDF62FF9204600F001F8B6
:2059000010BD4189491C4181C188491C89B2C1800289914201D10021C1807047C2880168A3
:20592000007B4243501870474089002801D0002070470120704741890089814201D10120CE
:2059400070470020704742898A4201D8002070478388026859180389994200D3C91A007BF4
:205960004143881870477047704710B500220169026108460AF70CFB10BD10B50878144668
:20598000002808D010460AF735FD002803D1012120460AF75DFD002010BD0000F8B5000BFA
:2059A000801CC6B20848012700683F03C519002406E00021284603F037FCED19641CE4B2F8
:2059C000B442F6D3F8BD0000407C110010B50446F2200AF00DFE808A001980B210BD10B579
:2059E0000446F2200AF004FE007D201AC0B210BDFFB585B0044600271E46808A274901AD73
:205A0000009743C513210F233A4649020698FEF6C1F805003ED101211C200AF7ABFB2061D1
:205A20008775C775476087600761069909888182F10701D00121C903079A11430180A18AAD
:205A40004180F221E1820121E1811830A06014486060144A0421182003F0F8FC114E12A173
:205A6000361F032072680DF051F816480268002A01D0002000E07068306013A103200DF08F
:205A800045F818A1032032680DF040F8A08A00210AF7DEFC284609B0F0BD0000BC4F110008
:205AA0006C501100447C1100696D6167655F73697A655F6C696D6974203D20307825780AE1
:205AC000000000000CF5120063757272656E745F696D6167655F62617365203D203078250A
:205AE000780A00006F74615F696D6167655F62617365203D20307825780A000070B5144639
:205B00000D460DF02BFC012120460AF7A1FCF2200AF06EFD29460AF063FD014622460248AF
:205B20000AF71EFC70BD000005F20000F8B506461F460D46F2200AF05BFD044638460AF748
:205B400059FC0146A06862684019904204D9D9220BA11748FDF76AFC022910D1A0603246EB
:205B60002946E06803F0D2FBE0684019E060A1686068814203D1032138460AF769FCF8BDA8
:205B80002E2E5C69705C626C655C70726F66696C65735C62786F74615C62786F7461735C62
:205BA0007372635C62786F7461732E630000000018641100004870473450110010B5487879
:205BC000002803D00878114600F0B6F8002010BD70B515460C46F2200AF00AFD21460AF022
:205BE000FFFC014601232A4603480AF76DFB04700AF7A2FB70BD000003F20000F8B50546EF
:205C000017460E46F2200AF0F3FC044638460AF7F1FB0246022805D02B7A12A102200CF066
:205C200075FFF8BD287A002816D1A1686068814212D1E07D01280FD1A07DB0420CD1286831
:205C4000606000201749A060096801226868120389184018E060F8BD13A102200CF056FF76
:205C6000F8BD00007570646174655F72657120696E2077726F6E672073746174653A7365AE
:205C8000727665725F73746174653A25642C7570646174655F73656374696F6E3A25640A32
:205CA00000000000407C110062786F7461735F72785F696E666F5F75706461746520636865
:205CC00065636B206661696C0A00000070B514460D46F2200AF08CFC807D0A2301022246D0
:205CE0000B48C91D0AF7F0FA04460220FFF76EFE2080042060800020207104222946601D4B
:205D0000FCF62AFF20460AF717FB002070BD0000140C000070B505460C46F2200AF068FC50
:205D200029460AF05DFC0146224602480AF718FB70BD000001F2000070B504460D46F220A0
:205D40000AF056FC84750121C175002181604160022128460AF77CFB70BD10B5002904D00B
:205D60000120400200F0C4F910BDFF200130F9E704480268C90752085200C90F0A4302605D
:205D80007047000040201320081A1949001F0B400105490D09040B43C101420210B54A40BF
:205DA000D20FD2430124D207E4061209A3431A4363001A4303024B40DB0FDB43DB07A400C9
:205DC0009B08A24313430322920713439A0A80029202800D0243E0148243C80F80020243EE
:205DE0001F20C00282430F200003101810BD0000FFFF00F8FFB5B3B0284C02AE01462278A4
:205E00003046419F3F9DFCF6A7FE20786278861930463499FCF6A0FE6078A27886193046CE
:205E20003599FCF699FEA078E278861930463699FCF692FEE2783C999019FCF68DFE3A465E
:205E4000912102A80DF0BAF92FA80190042314A2202100973D980DF0C2F810222FA94298A9
:205E6000FCF67AFE0024FF21002006F091FE2855641CE4B2102CF6D31022294627A8FCF6D5
:205E80006BFE10222BA83E99FCF666FE27AA2021409B42980DF030F837B0F0BD1085110041
:205EA0007072636B00000000FFB597B00D460446302102A8209F229EFCF667FE1022214630
:205EC00002A8FCF649FE1022294606A8FCF644FE10220AA81999FCF63FFE12AA302102A8E0
:205EE0000DF06CF90EAD12AC0195042313A2202100941A980DF073F810220EA93846FCF60D
:205F00002BFE019504230FA2202100941A980DF066F810220EA92198FCF61EFE019504239B
:205F20000AA2202100941A980DF059F810220EA93046FCF611FE1BB0F0BD00007072736B48
:205F4000000000007072736E000000007072646B0000000070B50E4690B0154601461C4610
:205F600010226846FCF6F8FD1022314604A8FCF6F3FD08AB6A46202128460CF0BDFF102227
:205F8000214608A8FCF60CFE002802D0002010B070BD0120FBE7002204E0401E80B20B5CE7
:205FA0009A18D2B20028F8D110467047F7B52B4D2868800008F0ACFD0446286800220021BB
:205FC0000346534307E08E00B718009EF65D6718491CDE55C9B28142F5DB521CD2B2042A68
:205FE000EDD3002220460299FDF700FF01260EE00DF05EFC20460DF0C9F9204608F0AAFE34
:20600000324620460299FDF7F1FE761CF6B2A86886422046ECDB0DF04BFC20460DF0B6F98F
:206020002A7A20460299FDF7E1FE2A680021002013464B4307E025185E5D85006F18019DA5
:20604000401CEE55C0B29042F5DB491CC9B20429EDD3204603F03CFAFEBD0000708611006F
:2060600010B50B4948600B4A104203D04A680242FCD110BD074AD243104204D04A680346CE
:206080009343FBD110BD1E2203A111A0FDF7CEF900102020AAAAAAAA2E2E5C706C665C6291
:2060A00078323430305C7372635C7379735F696E746567726174696F6E5C636C6B5F676183
:2060C00074655C636C6B5F676174652E630000003000000004490348086148610349086131
:2060E00048617047AAAAAAAA002013200090142010B50B4948610B4A104203D04A6902424E
:20610000FCD110BD074AD243104204D04A6903469343FBD110BD672203A111A0FDF786F99D
:2061200000201320AAAAAAAA2E2E5C706C665C6278323430305C7372635C7379735F696ED9
:20614000746567726174696F6E5C636C6B5F676174655C636C6B5F676174652E63000000B5
:206160003000000010B50B4908610B4A104203D00A690242FCD110BD074AD243104204D016
:206180000A6903469343FBD110BD302203A111A0FDF74CF900901420AAAAAAAA2E2E5C7060
:2061A0006C665C6278323430305C7372635C7379735F696E746567726174696F6E5C636C84
:2061C0006B5F676174655C636C6B5F676174652E630000003000000010B50B4948610B4AE6
:2061E000104203D04A690242FCD110BD074AD243104204D04A6903469343FBD110BD42228E
:2062000003A111A0FDF712F900901420AAAAAAAA2E2E5C706C665C6278323430305C737287
:20622000635C7379735F696E746567726174696F6E5C636C6B5F676174655C636C6B5F674B
:206240006174652E63000000300000000248806902490820086070470000202080E200E0FC
:2062600070B5094C1D46207000206070A270002A02D0E01CFCF670FCA17800232A46204647
:20628000C91C0EF0D3F970BD54BD110001700A0A42700A0C8270090EC1707047F8B50C46C3
:2062A000054616460978007804F0C6F807466178E87804F0C1F84740A178A87804F0BCF8F1
:2062C0004740E178687804F0B7F8474037702178687804F0B1F807466178287804F0ACF8B9
:2062E0004740A178E87804F0A7F84740E178A87804F0A2F8474077702178A87804F09CF8CE
:2063000007466178687804F097F84740A178287804F092F84740E178E87804F08DF84740F6
:20632000B7702178E87804F087F807466178A87804F082F84740A178687804F07DF84740A6
:20634000E178287804F078F84740F770F8BD000070B588B00C46694605460C72200A1101DA
:206360000843694648721009887202AE10221946F01CFCF6F1FB132000902346034A044965
:206380000196284605F07CF808B070BD04591100C07E1100F0B585B00C4604281CD1002286
:2063A00011462068FAF784FF87B2002211466068FAF77EFF86B200221146A068FAF778FF81
:2063C00085B26A461021E0680DF044FA6B462A4631463846FFF7BCFF05B0F0BDFEB50646FA
:2063E00000210898099C1546029113281DD1617820780A07120D1043A27809091201114399
:20640000E21C00F017F8694608722078487260788872A078C87202A90420019100902B467E
:20642000024A0349304605F02BF8FEBDCE581100E07E110010B504F029FD10BD3EB56C4684
:20644000217214010B0A23436C4663721209A27202AB0322019300920B46024A024905F08E
:206460000FF83EBD0A591100C07E110070B50C46032815D1002211462068FAF719FF86B28D
:20648000002211466068FAF713FF85B200221146A068FAF70DFF82B229463046FFF7CEFF27
:2064A00070BD0000FEB5064600210898099C1546029103281CD1617820780A07120D104350
:2064C000A27809091201114300F018F8694608722078487260788872A078C87202A90420BB
:2064E000019100902B46034A0349304604F0C8FFFEBD0000CE581100E07E110010B504F025
:20650000EBFB10BD0EB56B4619720A0A5A7202AB0222019300920B46024A034904F0B0FF66
:206520000EBD00000D591100C07E110070B50C4603280ED1002211462068FAF7B9FE85B269
:20654000002211466068FAF7B3FE81B22846FFF7D9FF70BDF0B58BB006461546202102A84A
:20656000109F119CFCF611FB022F1CD1617820780907090D084300216A4611722178517211
:206580006178917202AC1B210B3200F013F8C01CC1B21E2907D800912B46044A0194044956
:2065A000304604F06DFF0BB0F0BD0000CB581100E07E110010B504F02BFC10BD7047000096
:2065C00010B5039B029C1A78002A04D031210748FDF718F810BD9A7859781207120D114349
:2065E000E41EE2B2DB1CFFF7E9FF10BDA86611007047000010B50299039B042906D11A78F9
:20660000002A04D03E210848FCF7FCFF10BD9A7859781407DB78240D12091B0121431A4398
:20662000FFF7E6FF10BD0000A866110070B588B00C46694605460C72200A11010843694636
:2066400048721009887202AE10221946F01CFCF683FA132000902346034A044901962846E6
:2066600004F00EFF08B070BD07591100C07E1100F0B585B00C4604281CD10022114620682E
:20668000FAF716FE87B2002211466068FAF710FE86B200221146A068FAF70AFE85B26A46E3
:2066A0001021E0680DF0D6F86B462A4631463846FFF7BCFF05B0F0BDFEB5064600210898AD
:2066C000099C1546029113281DD1617820780A07120D1043A278090912011143E21C00F089
:2066E00017F8694608722078487260788872A078C87202A90420019100902B46024A0349F2
:20670000304604F0BDFEFEBDCE581100E07E110010B504F00BFC10BD704700003EB5054671
:20672000002106981446029100280DD100F012F86946087202A90120019100902346034AE0
:206740000349284604F09CFE3EBD0000D1581100E07E110010B506F0BBFF10BD7047000054
:206760003EB514460546002206980799029201280ED1087800F012F86946087202A9012016
:20678000019100902346034A0349284604F078FE3EBD0000D1581100E07E110010B506F09E
:2067A00099FF10BD704710B50299039A012902D11178FFF7F7FF10BD10B50249024804F033
:2067C00061FF10BDC07E11002C831100F0B58FB006461546342102A8149F159CFCF6D5F9CF
:2067E000012F12D1207869460872207802AC3121621C00F01BF8401CC0B200902B46044A8F
:2068000004490194304604F03BFE0FB0F0BD0000C8581100E07E1100704710B5039B029A31
:2068200019785B1CFFF7F8FF10BD704770B510460D4604F07FFD0446A84203DD31210248F1
:20684000FCF7E0FE204670BD6C671100704700003EB505460698144600280ED1029000F07A
:2068600011F86946087202A90120019100902346024A0349284604F003FE3EBDD45811005C
:20688000E07E110000207047704700003EB50546069807991446012810D1002002900878E9
:2068A00000F012F86946087202A90120019100902346034A0349284604F0E2FD3EBD000089
:2068C000D4581100E07E110000207047704710B50299039A012902D11178FFF7F7FF10BD42
:2068E000704700003EB505460698144600280DD100F012F86946087202A901200191009094
:206900002346034A0349284604F0BAFD3EBD0000D7581100E07E1100002070477047000024
:206920003EB5054606980799144601280ED1087800F012F86946087202A9012001910090E8
:206940002346034A0349284604F09AFD3EBD0000D7581100E07E110000207047704710B53F
:206960000299039A012902D11178FFF7F7FF10BD704700003EB505460698144600280DD1AD
:2069800000F012F86946087202A90120019100902346034A0349284604F072FD3EBD000018
:2069A000DA581100E07E110000207047704700003EB5054606980799144601280ED1087839
:2069C00000F012F86946087202A90120019100902346034A0349284604F052FD3EBD0000F8
:2069E000DA581100E07E110000207047704710B50299039A012902D11178FFF7F7FF10BD1B
:206A00001CB5002200920B460192024A024904F037FD1CBD1F591100C07E110070B50C4626
:206A200002280ED1002211462068FAF741FC85B2002211466068FAF73BFC81B22846FFF7E7
:206A4000DFFF70BD70470000F0B585B01D468446140A68460A9F0B9E0C9B44720272857287
:206A6000C77206731A0A82734373C1730A0A027402AA09200B4601920090034A034960464F
:206A800004F0FEFC05B0F0BD22591100C07E1100F0B587B00C46072836D100221146206866
:206AA000FAF706FC80B20590002211466068FAF7FFFB80B2049000221146A068FAF7F8FBC5
:206AC000C0B2039000221146E068FAF7F1FBC7B2002211462069FAF7EBFBC6B200221146D0
:206AE0006069FAF7E5FB054600221146A069FAF7DFFB81B2E8B20096029101903B46039ABF
:206B000004990598FFF7A0FF07B0F0BD704770471CB5002200920B460192024A024904F0E0
:206B2000AFFC1CBD25591100C07E110070B50C4602280ED1002211462068FAF7B9FB85B296
:206B4000002211466068FAF7B3FB81B22846FFF7DFFF70BD70477047704770477047000020
:206B60003EB5054606990798144602290CD102A900F010F802A90420019100902346034AED
:206B80000349284604F07CFC3EBD0000DD581100E07E110000207047704700003EB5054653
:206BA00006990798144603290CD102A900F010F802A90420019100902346034A0349284630
:206BC00004F05EFC3EBD0000DD581100E07E11000020704770470000F0B585B01D460A9B47
:206BE00084460C0ACFB25E881448E9B22D0A86426846447207728172C572188807D1010ACE
:206C0000684641731978017302A906200CE0010A68464173197801735888010A6846C17311
:206C20009978817302A90820134601910090044A0449604604F024FC05B0F0BDFFFF00004C
:206C400028591100C07E110070470000FEB50C4615496A469180052825D100221146206854
:206C6000FAF726FB87B2002211466068FAF720FB86B200221146A068FAF71AFB6946C880C6
:206C800000221146E068FAF713FB85B2002211462069FAF70DFB83B201A800902A463146AD
:206CA0003846FFF799FFFEBDBDBC0000FFB585B00E980F9C062807D008282FD0344935482C
:206CC000FCF7A0FC09B0F0BD607821780602E0780E43A17807020F436079217905020D435F
:206CE00069460D8004F0DAFE301A80B204F0DCFC294605F08BF805463946079804F046F8C2
:206D00000146284601F004F869460872214602AC0622601CFBF620FF072030E06078217837
:206D200007020F43E078A1780002084301906079217905020D4369460D80E079A179060228
:206D40000E4369464E8004F0A9FE381A80B204F0ABFC3246294605F061F8054601990798F2
:206D600004F014F80146284601F095F969460872214602AC0822601CFBF6EEFE0920009065
:206D80000194054A0549079B059804F079FB99E78A03000008671100F2581100E07E1100C3
:206DA000F8B50C4611496A46118004281DD1002211462068FAF77CFA86B20022114660683E
:206DC000FAF776FA85B200221146A068FAF770FA6946488000221146E068FAF769FA82B27F
:206DE0006B462946304601F05BF9F8BDBDBC0000F8B5079D069E2A780746002A03D0B421D4
:206E00001448FCF7FFFBA8786A78010228791143EB786C1C02021A43ED1C072E11D0092E8D
:206E20000ED160792379000218436B46188068792B79000218436B4658803846FFF704FF76
:206E4000F8BD60792379000218436B4618800020C043F1E7A8661100F0B585B01D460A9B66
:206E600084460C0ACFB25E881448E9B22D0A86426846447207728172C572188807D1010A4B
:206E8000684641731978017302A906200CE0010A68464173197801735888010A6846C1738F
:206EA0009978817302A90820134601910090044A0449604604F0E4FA05B0F0BDFFFF00000C
:206EC0002B591100C07E1100FEB50C4615496A469180052825D1002211462068FAF7E8F9B4
:206EE00087B2002211466068FAF7E2F986B200221146A068FAF7DCF96946C880002211465D
:206F0000E068FAF7D5F985B2002211462069FAF7CFF983B201A800902A4631463846FFF7AF
:206F20009BFFFEBDBDBC0000FFB585B00E980F9C06283CD0082838D16078217807020F430A
:206F4000E078A1780002084301906079217905020D4369460D80E079A17906020E43694661
:206F60004E8004F09BFD381A80B204F09DFB3246294604F053FF05460199079803F006FFFE
:206F80000146284601F012F969460872214602AC0822601CFBF6E0FD092000900194194ADD
:206FA0001949079B059804F06BFA09B0F0BD607821780602E0780E43A17807020F43607902
:206FC000217905020D4369460D8004F067FD301A80B204F069FB294604F018FF0546394614
:206FE000079803F0D3FE0146284600F0F3FE69460872214602AC0622601CFBF6ADFD0720F4
:20700000CBE70000F2581100E07E110030B585B0054608990998144604290CD102A900F04E
:20702000DDFE02A90C20019100902346034A0449284604F025FA05B030BD0000E05811000D
:20704000E07E110030B587B005460A990B9814460B2910D00D290CD102A901F0ABF802A9A9
:207060000E20019100902346064A0749284604F007FA07B030BD02A900F0B2FE02A90C208E
:20708000EFE70000E0581100E07E11007047000030B587B005460A990B981446192910D082
:2070A0001B290CD102A900F019F802A90E20019100902346064A0749284604F0E1F907B00C
:2070C00030BD02A900F008F802A90C20EFE70000E0581100E07E1100002070470020704715
:2070E000F0B585B01D460A9B84460C0ACFB25E881448290A8642684644720772EDB2C17261
:207100008572188807D1010A684641731978017302A906200CE0010A68464173197801735F
:207120005888010A6846C1739978817302A90820134601910090044A0449604604F0A0F961
:2071400005B0F0BDFFFF000010591100C07E1100FFB585B00E980F9C062836D0082832D165
:207160006078217807020F43E078A1780002084301906079217905020D4369460D80E07995
:20718000A17906020E4369464E8004F087FC381A80B204F089FA3246294604F03FFE0199DB
:2071A00001F00AF869460872214602AC0822601CFBF6D2FC092000900194164A1649079B8A
:2071C000059804F05DF909B0F0BD607821780602E0780E43A17807020F4360792179050252
:2071E0000D4369460D8004F059FC301A80B204F05BFA294604F00AFE394600F0F3FD69467C
:207200000872214602AC0622601CFBF6A5FC0720D1E70000E3581100E07E1100F0B585B035
