:020000040010EA
:1000000070651200110D110085081000CF14110049
:1000100000000000000000000000000000000000E0
:10002000000000000000000000000000D9101100D6
:1000300000000000000000004B01100085081000C7
:1000400065111000B3081000210D1100F90D110009
:10005000290A1000190A1000090A1000850810006A
:10006000B1101000C1101000D11010004511100087
:1000700055111000290D1000390D10001D0C100035
:1000800009111000A510100085081000460000009E
:10009000F5A1100069961000BD9410006D94100039
:1000A00001981000B5A31000A9A21000DDA2100055
:1000B00021A210004DA3100081A3100021491000BF
:1000C0006D4810005548100015C110003DC11000CA
:1000D000E1BE1000C5BE1000FDBE1000509E120013
:1000E000E8381100F638110041871000910810001F
:1000F0000000000000000000000000000000000000
:100100000348854600F08AFB00480047A98C100090
:1001100070651200084B19680868203080F3098860
:10012000022080F31488BFF36F8F3FBCAE4608BC3B
:1001300004BC62B61847000034391100EFF3108098
:1001400072B6704780F310887047EFF309800E4B4A
:100150001A6820381060F0C044464D4656465F4647
:10016000F0C008B572B60EF027F962B60CBC116883
:1001700008681030F0C8A046A946B246BB4680F3D6
:1001800009882038F0C818473439110008F054FAAB
:10019000019A02B010470000214608F065FA0446B3
:1001A000004800474186010010B5431A934209D226
:1001B0008318881803E0401E01785B1E1970521ED8
:1001C000F9D210BD03460B439B0703D009E008C9D1
:1001D000121F08C0042AFAD203E00B780370401CF7
:1001E000491C521EF9D210BD30B505462A460B46B1
:1001F00010781C78521C5B1C002801D0A042F7D05C
:10020000002C03D0002802D06D1CEFE7284630BD3B
:10021000421C0178401C0029FBD1801A704710B5A0
:10022000002200E0521C835C8C5CA34201D1002BB5
:10023000F8D1D8B2E1B2401A10BD0321001D401E12
:10024000037812021A43491EF9D510467047000080
:10025000F7B5009C0F4600262578641C002D05D0BC
:1002600000F0E8F80068405DC007F5D12B2D02D002
:100270002D2D18D0641E39462046029A00F0DEF873
:10028000002F04D03968A14201D10099396071056D
:10029000022400290BDA4042002803DD01F06EFA47
:1002A0000460A007FEBD012080020643E3E70028AA
:1002B000F8DA01F063FA04600048FEBDFFFFFF7F3B
:1002C000F0B51FB488B00B990998002448400999EB
:1002D000C00F490049080991C0070B9900904900D7
:1002E00049080B9109990898A64608431CD00B9918
:1002F0000A98084318D0099801244000420D48008C
:10030000410D099824050003000B204309900B9828
:100310000003000B20430B9050181C49401800228A
:1003200001901446104605E0002001460DB0F0BDD6
:10033000032801DA034600E003239C46C11A0AAEF3
:100340000AE05F0008ADED5B4F00F75B7D430027DF
:10035000AA187C41491C5B1E6145F2DD410004ABDB
:100360005A522104120C0A43240C401C0828DFDBDB
:10037000019802900099704601910090059B049AA3
:100380000799069800F0BAF8D0E700000DFCFFFFCF
:100390000EB5C217C10F5040CA0740180021054BC7
:1003A0000293019200910A460B4600F0A7F803B0B1
:1003B00000BD0000330400004A0009030123090BBB
:1003C0001B051943094B10B5520D9A4201DA002062
:1003D00010BD064B34339A4203DC9A1A01F7C6FB70
:1003E00010BD03495118884010BD0000FF030000F4
:1003F000CDFBFFFF4A0009030123090B1B0519432D
:100400000A4B10B5520D9A4202DA0020014610BD87
:10041000064B34339A4203DC9A1A01F7A7FB10BD4E
:10042000034BD21801F792FB10BD0000FF03000040
:10043000CDFBFFFF0048704724341100F7B582B0B0
:10044000029C00272078641C15460197302802D0B2
:10045000002D15D015E020780127641C782804D0E1
:10046000582802D0002D09D00BE0002D01D0102D0E
:1004700007D1002710252078641C02E0082500E041
:100480000A250026009610E0009901276943081804
:10049000020C294680B2714300908E1838048642BF
:1004A00001D3012001902078641C294600F0DBF97B
:1004B0000028E9DA0398002805D0002F01D0641E37
:1004C00000E0029C04600198002806D001F056F973
:1004D00002210160C81E05B0F0BD00993004084338
:1004E000F9E710B5002B08DA0024401C614192188E
:1004F0005B411A4301D14008400010BDF0B51FB464
:1005000082B005460C0003D0084601F007F902E06E
:1005100001F004F92030024600902146284601F7F8
:1005200015FB049B059A04460F46184311430843E4
:1005300014D0184610431BD0009840210A1A1846C0
:10054000059901F713FB05460E46009A0599049894
:1005500001F7FCFA084305D0012004E020463946A3
:1005600007B0F0BD0020C11705430E432C433743AD
:1005700000990E986305401A7905E40A00220C439D
:10058000FD0A0A3002D500200146E9E701051019ED
:1005900069410C9C0D9D00196941FFF7A2FFDFE73F
:1005A000F0B507460846584087B0C00F0490480091
:1005B0000E46590040084908BC1A884105D2384601
:1005C00031461E4617460B46024658004008104367
:1005D0004CD0300D039040055900400D490D059059
:1005E000401A0290402872DA18030121000B090515
:1005F0000843019004980092002805D001995242C6
:100600000020884100920190029840210A1A019925
:10061000009801F79BFA05460C466B4607CB00F0A5
:100620000FF9C0197141039A0E0D0023D7175640D8
:100630001A467A40164344D0049A002A2DD0029AD2
:10064000012A039A15DC1205C01A914101263605CC
:10065000001C7141D20F059ED207009301920296B1
:100660002A462346FFF74AFF07B0F0BD3846314619
:10067000FAE71605224A0F46B218C01AB7410121FF
:100680000905001C4F4100187F4111461818794197
:10069000E20F10436D19644113E0E2076D08154342
:1006A0006408C2071443039A01261205C01A914137
:1006B0003605001C7141CE07400830434908C01878
:1006C00051412A462346FFF70CFFCDE7FFE7049888
:1006D00001224000C117121A00238B4104983146B1
:1006E000C417381AA141EEE730B40124E40763408F
:1006F00030BC55E730B40124E407614030BC4FE71B
:100700000000E0FFF0B50C465C4085B0E40FE40764
:1007100003944C0000266408590094464908024698
:100720000296224321D062460A431ED06200570D32
:100730004A000E032303550D012402462C492405CB
:10074000781B1B0B360B4018234326436146009051
:100750001C46501AB44103D30098401C009002E09C
:10076000921800985B41002803DA0020014605B08A
:10077000F0BD0020012109050746864611E06446C8
:100780001D46141BB54106D36546521BB341744642
:1007900007430C43A646CD07400849082843921852
:1007A0005B4105460D43EAD11046184313D060461D
:1007B000194650407140084306D06046101AB341B4
:1007C00006D20122002306E000220123DB0702E01B
:1007D0000122D2435310009874460105381C614130
:1007E000029C039D00196941FFF77BFEBFE70000F3
:1007F000FD03000010B5002904DB0124E40740429A
:100800008C412146002B04DB1C460123DB075242AE
:10081000A341994200D1904210BD0000064C012531
:10082000064E05E0E36807CC2B430C3C9847103498
:10083000B442F7D3FFF768FCA8381100E83811007C
:1008400010B5202A06DBCB170846203A1041C11705
:100850000B4306E00B461341D0402024A21A9140DE
:100860000843194610BD3A2800D2303820230246EA
:100870009A43412A01D310463738884201D30020D9
:10088000C0437047FEE70000401E0028FCD17047BF
:1008900000B5734610F03CFD00BD000070B50024AB
:1008A00004E00D5D165D75401D55641C8442F8DB47
:1008B00070BD10B503F00CF810BD0000FFB5244D5D
:1008C00089B000242C80234817464DC86D464DC57D
:1008D00068468473C4730D22401C01F7FDF8079429
:1008E0000C9804940609354605940694761C13E08A
:1008F000401C0880010A6A469173D07304AA6946B5
:10090000099801F09DFB2001C219134604A910208B
:10091000FFF7C4FF641CA4B20D49AC420888E7DBB2
:10092000401C0880010A6A469173D07304AA694684
:10093000099801F085FB3001C2190C99103A081A88
:10094000134604A91030FFF7A9FF0DB0F0BD000059
:100950009C4011001C2C11000FB4F0B589B0284D3B
:100960000020159F2880274A049005900690079044
:100970005CCA6D465CC56A469073D07300A80D22B0
:10098000013001F7A9F804AA69460E9801F058FB56
:100990001698002406093546761C13E0401C088092
:1009A000010A6A469173D07304AA69460E9801F051
:1009B00047FB2001C219134604A91020FFF76EFF60
:1009C000641CA4B20E49AC420888E7DB401C0880D6
:1009D000010A6A469173D07304AA69460E9801F021
:1009E0002FFB3001C2191699103A081A134604A9B0
:1009F0001030FFF753FF09B0F0BC08BC04B0184733
:100A00009C4011000C2C110010B50248006801F048
:100A100017FC10BD5C3A110010B50248006801F0E7
:100A20005FFE10BD7C3A1100F8B50E4EB06A00248E
:100A30008506AD0E01273846A040284206D0F06258
:100A40000948A1004058002800D08047641CE4B247
:100A5000052CF0D3A80604D52020F06203480068D6
:100A60008047F8BD00102020A49D1100443A1100D9
:100A700070B594B0054602A812900E460AA8144616
:100A8000134613900AAA02A930460AF0E6FD6188CF
:100A90000194491C09B20091002814D00020800064
:100AA00012A90A58214600232846443100F00FF8C5
:100AB0002078400041B228460CF09BFD002804D06D
:100AC000002014B070BD0120E9E70120F9E7FFB56F
:100AD000AFB0399C00202056029002460FA83099F2
:100AE0001E46389D03900CF0F2FE0298309980006B
:100AF000411806901FA804910746029A0CF0E7FEE1
:100B000017AB07AA394600960194039800F02BFC16
:100B1000AD1E21E0294631980CF0FCFE002878D06B
:100B20000022500117A9411800940B46059101219C
:100B3000891A4A0107AE871917A9511896193A461A
:100B40003046019100F087FB009432463846019B05
:100B5000059900F01FFB6D1E2DB2002DDADC00217F
:100B600031980CF0D7FE002855D00020420117A97B
:100B700001255718281A07AE400145189219801907
:100B80003B46294606460094019200F064FB029819
:100B90000090231D07AA27A803990CF0F0FD27A9B0
:100BA0002A46234608460CF0D4FD27A923460846CA
:100BB000309A0CF0CEFD27A9221D0846029B0CF0AE
:100BC00040FD27A923460846049A0CF0C2FD27A938
:100BD0003246234608460CF0BCFD2B4639460094AD
:100BE0003246019800F0D6FA234627AA17A907A88B
:100BF00002F0A0FA07A9029A2F980CF068FE2F992C
:100C00000698029A401817A90CF061FE33B0F0BDA7
:100C1000FFE7012285E70120A8E7000010B50248A0
:100C2000006801F0DFFC10BD603A1100F7B50E4618
:100C30008AB00021009101910291039104910591E4
:100C400006910791C117090F02070918002A0BD056
:100C500000282AD00A0912010F11801A7F1C0025D2
:100C60000897C4B27F1E34E000281ED00F11002464
:100C70007D1E0CE02001811904AB6A461020FFF7AD
:100C80000DFE6A4604A9274801F0DAF9641CAC425B
:100C9000F0DB3801811904AB6A4610201039FFF7E8
:100CA000FDFD204A04AB103231E080201D4A694628
:100CB000087404AB20322AE02801811904AB6A468B
:100CC0001020FFF7EBFD6A4604A9164801F0B8F9B9
:100CD0006D1CBD42F0DB089A0020120104A9103AF5
:100CE00003E01318F35C0B54401CA042F9DB802096
:100CF0000855002000E00855641C102CFBDB094A55
:100D00000B4620321020FFF7C9FD04AB6A46194696
:100D10001020FFF7C3FD04A902480C9A01F090F9D6
:100D20000DB0F0BD2441120010B50248006801F07A
:100D300003FD10BD803A110010B50248406801F073
:100D4000FBFC10BD803A110010B58CB00021089159
:100D500009910A910B911CA11EC9079404AC0EC401
:100D60001D4A0021435C5354491C1029FADB6A4692
:100D700008A9194801F064F968460078174A8028E4
:100D8000694603D2102007F069F808E0102007F048
:100D900065F8124B04AA19461020FFF77FFD0F4893
:100DA0000F4A00780D49802804D2102007F056F829
:100DB0000CB010BD102007F051F8094B04AA1946D9
:100DC0001020FFF76BFDF3E70000000000000000BB
:100DD000000000000000008724411200344112008E
:100DE000444112008307FF22DB0E9A408907090E57
:100DF000994000280BDA0007000F083883080848DC
:100E00009B001818C36993430B43C3617047830861
:100E100004489B001818036893430B430360704712
:100E200000ED00E000E400E010B503480078002881
:100E300001D100F0CDFA10BDC89D1200F8B50446EE
:100E400016480078002801D100F0C2FAFF200025E2
:100E500069460870102C1DD21148104E005D487074
:100E60001836307D0E4F8007800F7F1E02280BD072
:100E7000304600F0E3FA02280CD33C7002226946A7
:100E8000304600F006FC07E03C700222304600F0DD
:100E9000D0FB01E00025ED432846F8BDC89D1200B7
:100EA000F639110070B5074B0646187814460D4602
:100EB000002801D100F08CFA22462946304600F085
:100EC00003F870BDC89D120070B50E461821484346
:100ED000134914464518E86A1835002804D001283B
:100EE0000FD0022805D113E0284600F0A7FAA0424F
:100EF00001D2002411E022463146284600F0C9FB09
:100F00000BE0284600F09AFAA042F4D20446F2E739
:100F10003146284600F08DFB0446204670BD000097
:100F2000C89D1200F7B598B007A802904020039022
:100F300000200C4604901899154608260691059045
:100F40002178641C002970D0252907D002A800F060
:100F500051FB05980028F3DA1BB0F0BD01220020F8
:100F600013460227217823291BD02B2916D02D299F
:100F700002D0302906D101E0184300E03843641C58
:100F8000002AEFD1002122781346303B0A2B0AD2E7
:100F90000A23594389183039641CF4E704210843B3
:100FA000EDE73043EBE70023D7B22E2F0AD1641CC4
:100FB00022781746303F0A2F04D20A277B439B181A
:100FC000303BF4E76C2A0DD0682A0BD0702A48D049
:100FD0000BDC252A4FD0582A28D0632A0CD0642A4B
:100FE0004DD10EE02278641CECE7732A2AD0752AD2
:100FF00013D0782A43D119E02868011D29600178AF
:101000003AE02A68171D2F601768009101900A22A4
:10101000394602A800F01DFA31E02A68171D2F603A
:1010200017680A220091019007E02AE02A68171D3C
:101030002F601768102200910190394602A800F035
:101040006DFA1CE02868011D2960076839787F1C4B
:10105000002914D002A800F0CDFA05980028F5DA8E
:101060000DE028680823011D296001680020102276
:1010700000960190E2E7252102A800F0BBFA641C6B
:1010800067E7002800DC67E70498002804D00246E0
:1010900007A91898FFF706FF0499059840180590CE
:1010A0005AE700000148006800470000EC3A1100D0
:1010B00010B50248006801F03FFD10BDCC3A1100A8
:1010C00010B50248406801F037FD10BDCC3A110060
:1010D00010B50248006801F02FFD10BDC83A11009C
:1010E00070B5044680692038807F042808D28000CB
:1010F000044D211D26680EC92D583046A847206092
:1011000070BD0000C826110070B50C4842680C493B
:101110000A6082694A600169406AC907C90F084DBF
:10112000C407E40F0835002902D0286801F0C2FD89
:10113000002C02D0686801F0BDFD70BD00001320D6
:10114000D43A110010B50248006801F057FE10BDF6
:10115000E43A110010B50248406801F04FFE10BD9E
:10116000E43A110010B506A1032004F0EBFE04A13F
:10117000032010F0A3F80648006801F0BDFF10BD81
:101180005744545F49525148616E646C65720A005D
:10119000F03A1100FFB589B0129D00240E460746B3
:1011A0002C570246009401A82B1D0B990CF0E7FA6E
:1011B00001A92A4608460CF0DCFA39462B4601AA5A
:1011C00008460CF0C6FA0B992B4601AA08460CF00B
:1011D000C0FA0C992B1D3246009408460CF0CFFA49
:1011E0002A4601A80C990CF0C4FA01A92B1D3A4615
:1011F000084600940CF0C3FA01A92B1D0094084680
:101200000B9A0CF0BCFA0B992B1D3A460094084639
:101210000CF0B5FA31462B4608460B9A0CF099FAB9
:101220002B1D01AA394600940B980CF0A8FA0C99D2
:101230002B4608460B9A0CF08CFA0C992B1D324663
:10124000009408460CF09BFA224601A90B980CF07A
:101250003EFB0DB0F0BDFFB599B0229D00241646AF
:101260002C570F460094314609A82B1D199A0CF0F3
:1012700086FA09A92A4608460CF07BFA19992B46EA
:1012800009AA08460CF065FA31462B4609AA084619
:101290000CF05FFA2B1D3A46009409A81C990CF03B
:1012A000B9F91C992B1D3A46009408460CF067FAD0
:1012B00000942B1D314601A8199A0CF060FA3946AA
:1012C0002B4601AA08460CF044FA00942B1D324626
:1012D00001A819990CF09EF92A4630461C990CF089
:1012E00048FA31462B1D01AA084600940CF047FA33
:1012F00000942B1D324611A819990CF040FA1C9944
:101300002B4611AA08460CF024FA1C992B1D3A46CC
:10131000009408460CF033FA2A4609A911A80CF0EB
:1013200028FA11A92B1D01AA084600940CF027FAEF
:1013300000942B1D11A901A8199A0CF020FA01A9FB
:101340002B4609AA08460CF004FA3A462B1D01A9BF
:10135000104600940CF013FA224611A919980CF0CB
:10136000B6FA1DB0F0BDFFB589B0139C00251299E7
:1013700065571E461746002904D02A4668460CF0D9
:10138000A6FA05E0294668460CF0F9F8012000901D
:101390002A46384609990CF09AFA2A4630460A99A4
:1013A0000CF095FA23466A460A99099801F0C2FEA4
:1013B000A420055923466A460A990998A847234656
:1013C0006A463146384601F0B5FE0DB0F0BD00006A
:1013D00010B5114C02202061606110A0A06112487C
:1013E000E061012080020021A162206261620BA005
:1013F000E162A0640D48E064A1651020616520658C
:10140000E1650BA1E01D00F798FB0AA1204600F75B
:1014100094FB2020A07110BDC89D12005465726D10
:10142000696E616C0000000080EB120080EF12001A
:101430005254540053454747455200000269C16861
:101440008A4203D88068401A801800E0501A401E73
:101450007047FFB583B00E4670420D9F0C9C009004
:10146000002900DB0846012502E000F7DFFA6D1CC9
:1014700005998842F9DA0698A84200D90546002C59
:1014800004D0002E01DB780700D5641EB80702D512
:101490000698002810D0F8070ED1002C0CD0A542D9
:1014A0000AD22021641E039800F0A4F80398C068B3
:1014B0000028F2DA07B0F0BD0398C0680028F9DB15
:1014C000002E02DA2D21009E02E0780707D52B219D
:1014D000039800F08FF80398C0680028EADBB8078B
:1014E000800F022810D1069800280DD1002C0BD0B7
:1014F000A54209D23021641E039800F07BF80398BE
:10150000C0680028F2DAD5E7019700943146069BBF
:10151000059A039800F002F8CCE70000FFB581B00F
:1015200001261F4635460A9C029802E000F768FA39
:101530006D1C03998842F9D2AF4200D93D460B9801
:10154000C00718D1002C16D00B98800701D5002FAA
:1015500002D0202000900CE03020FBE7641E0099B0
:10156000019800F047F80198C06800283DDB002C86
:1015700001D0A542F2D30198C068002835DB012FC5
:1015800001D97F1E06E03146029800F739FA039927
:10159000884202D303984643F1E7154F314602983B
:1015A00000F72EFA0146029A7143511A0291395CF2
:1015B000019800F01FF80198C068002805DB30464C
:1015C000039900F71DFA0600E8D10B98C0070CD06C
:1015D000002C0AD0A54208D22021641E019800F0F8
:1015E00009F80198C0680028F2DA05B0F0BD0000E3
:1015F000902A110010B5044680686368421C93422B
:1016000005D323681954A260E068401CE060A2681A
:101610006068824209D121682069FFF743FCA16814
:10162000884203D00020C043E06010BD0020A060CD
:1016300010BDF7B5054682B000200090EC68174653
:101640002869A04201D9061B02E0A968201A0E1AD7
:10165000A868761E001BB04200D80646BE4200D3E2
:101660003E46686832460019039900F735FA00983B
:10167000BF1B801900900398A41980190390A868D3
:10168000A04200D10024EC60002FD9D1009805B011
:10169000F0BDF7B50446C7688068E168C51B60689F
:1016A00016464018B54205D9019900F715FAB81940
:1016B000E060FEBD2A46019900F70EFA0198761BFC
:1016C00041193246606800F707FAE660FEBD000087
:1016D0000FB410B504A9074B02AA039800F00EF945
:1016E000044602A9002000F0A5FC204610BC08BC5E
:1016F00004B018473520100037B514460846064B8D
:101700006A46214600F0FAF804466946002000F0D7
:1017100091FC20463EBD0000352010002021020C27
:1017200001D010211046020A01D0104608390209E2
:1017300001D01046091F820801D01046891E4208B8
:1017400001D0881E7047081A7047F8B5040C8BB298
:10175000264682B25E430D0C1046370C58433604C1
:1017600080190021794116466E43370C36048019E2
:10177000794126466E438919F8BD0000004870473C
:101780002841110002E008C8121F08C1002AFAD13E
:1017900070477047002001E001C1121F002AFBD1F1
:1017A00070470000F0B51FB484B007980699020D89
:1017B000014314D04A484B491018484305140F9868
:1017C00001280E981CD0281A401C0024464E474978
:1017D000009401910290002814DA474227E00F9804
:1017E000012443A3012808D0002104980F9A8460A3
:1017F0000360C260416009B0F0BD0E98C143F4E7D8
:101800004042E2E7074612E0F80707D02246334697
:1018100001990098FEF754FD01910090224633464D
:1018200010461946FEF74CFD04460E467F10002F69
:10183000EAD10298019B0028009A0799069802DADB
:10184000FEF73EFD01E0FEF75DFF04460E46002276
:10185000284BFEF7CFFF03D80020C043014607E026
:101860000022254B20463146FEF79AFEFEF7C2FDC8
:10187000102409E0002C0ADB0A22002300F7EAF812
:10188000059B30321A55641E02460A43F2D11122DA
:10189000641C059B121B1C190F9B012B03D00123F9
:1018A00008430ED10AE0084304D011200E90002016
:1018B0000F9084E70E98151A6D1E0BE00E98824269
:1018C00002DD00236D1C03E0824201DA00236D1E5D
:1018D000002BEED004980F998260C16030C08AE777
:1018E00001FCFFFF104D0000000024400000F03F0D
:1018F000300000000000F0430000E03FFFB597B06B
:101900000646002518E2252877D100242746FD4900
:10191000049400E00443761C32780120203A904081
:101920000842F7D130782A280ED0022230780146BA
:101930003039092916D804990A23594330394018F7
:101940001443761C0490F1E7189802C8049118908B
:10195000002904DA01204003044348420490022095
:101960000443761C30782E2814D104200443707868
:10197000761C2A2809D11898761C80C8189009E08E
:101980000A214F43303FC719761C30780146303961
:101990000929F5D930786C2810D006DC4C281AD0EB
:1019A00068280ED06A2817D104E0742813D07A284A
:1019B00012D110E00120400504430CE0012109058B
:1019C00001E0032109050C437178814203D1012014
:1019D00000052418761C761C3078119066280BD0F0
:1019E00013DC58287DD009DC00287BD04528F6D0B0
:1019F0004628F4D047281AD1A5E118E0632835D04D
:101A0000642870D0652812D19DE170286CD008DC64
:101A10006728F1D069287BD06E280DD06F2806D1B9
:101A2000BAE073282ED0752871D0782859D01A9A28
:101A3000199990476D1C7EE16002400F022809D081
:101A400003280DD00428189801680DD00D60001DE2
:101A5000189070E11898EA1701680D604A60F6E77F
:101A6000189801680D80F2E70D70F0E718986A4643
:101A700001781172001D18900020507202A8009089
:101A8000012005E0189802C8189000200091C0437A
:101A900061070DD5002101E00199491C0191B9426E
:101AA00012DA8142F8DB009A515C0029F4D10BE094
:101AB000002101E00199491C01918142FADB019A60
:101AC0000099895C0029F5D1019904981A9B471A5D
:101AD00021463846199A00F097FA0199401945189D
:101AE0000BE04FE02CE113E04EE000980099007805
:101AF000491C00911A9A199990470198401E01902B
:101B0000401CF2D1214638461A9B199A10E137E061
:101B10000A200021009001916002410F022907D0A4
:101B2000189A01CA1892C2179446032908D00AE0ED
:101B30001898C01DC108C90005C91891944607E04E
:101B400000B2C2179446042902D140B2C1178C4694
:101B500000226146944506DA0A460021404291413E
:101B60008C462D2102E0210504D52B216A461173F4
:101B7000012103E0E10701D02021F7E7029155E0C0
:101B80000A200AE0102008E0102000900021042024
:101B900004430191082703E00820002101910090EF
:101BA0006002410F022907D0189A01CA1892002238
:101BB0009446032908D008E01898C01DC108C90040
:101BC00005C91891944603E080B2042900D1C0B23F
:101BD00000210291210729D51199702906D0009A78
:101BE0001021019B4A401A4305D00EE040216A466D
:101BF0001173012108E06146014306D030216A4695
:101C000011731199517302210291009A0821019BCD
:101C10004A401A430AD16146014301D1610705D503
:101C200030216A46117301217F1E029111995829B2
:101C300004D035A10E910DA90D910DE037A1F9E762
:101C40006146019B009AFFF605FF0E9B8C469B5C4C
:101C50000D9A521E0D92137061460143F0D10D98FA
:101C600005A9081A20300190600703D5012000045F
:101C7000844300E001270198874201DD381A00E023
:101C80000020019900904118029809180498401A00
:101C90000490E00306D421461A9B199A049800F098
:101CA000B3F94519002706E003A81A9AC05D1999EF
:101CB00090476D1C7F1C02988742F5DBE0030CD532
:101CC00021461A9B199A049800F09EF9451904E0E0
:101CD0001A9A3020199990476D1C0099481E00905F
:101CE0000029F5DC08E00D980D990078491C0D914C
:101CF0001A9A199990476D1C0199481E0190002964
:101D0000F1DC63E1092801003031323334353637F4
:101D10003839616263646566000000003031323337
:101D200034353637383941424344454600000000D7
:101D300000F05AF94519761C3078002800D0E2E509
:101D400028461BB0F0BD600700D406271898C01DB8
:101D5000C108C90048680A680831C30FDB07189139
:101D6000190001D09CA108E0210501D59BA104E048
:101D7000E10701D09AA100E09AA1430011985B0805
:101D8000109165280CD006DC452809D046281DD0C6
:101D9000472841D141E0662818D067283CD13CE073
:101DA0000021112F01DB112000E0781C019100902F
:101DB00008A911A8FFF7F6FC139905910021119AC3
:101DC00015927F1C12980197009150E00120C007E6
:101DD00003900120019008A9009711A8FFF7E2FCE9
:101DE000139A149905920022119B00921298159350
:101DF000059A0192002901D0104602E0791C401892
:101E00000190381A01D5019804E04042401E00902C
:101E1000781C0190C01B029043E0012F00DA0127DB
:101E20000021112F01DD112000E0384601910090C2
:101E300008A911A8FFF7B6FC13990591119A002182
:101E4000129815920091019721070CD40599B94277
:101E500001DB019900E00191012904DD159A491E79
:101E6000515C302906D0B84201DA011D05DA0121A2
:101E7000029115E00199491EEDE7002805DC009963
:101E8000411800910199091A03E0019A411C9142FD
:101E900000DD01910099401A401C02900120C0070A
:101EA0000390200706D402990198814202DB0020AA
:101EB000C043029000206946C87707AF012103980C
:101EC0000337C907884224D0022011902B2012909A
:101ED000039800280CDA404203902D20129007E06E
:101EE0000A210398FFF68CFD30317F1E0390397074
:101EF0001199481E11900029F2DC03980028EFD1B7
:101F0000791E129808703078202108404530BF1E95
:101F1000387006A8C01BC01D0390109800780028D8
:101F200000D00120019941180298C01709180398A0
:101F300009180498401A401E0490E00306D4214674
:101F40001A9B199A049800F05FF8451910980078C8
:101F5000002803D01A9A199990476D1CE00324D5E4
:101F600021461A9B199A049800F04EF845191CE076
:101F70000098002807DB00990598884203DD159832
:101F8000405C199901E0199930201A9A90470098FD
:101F90006D1C401C00900298401E0290002804D145
:101FA0001A9A2E20199990476D1C0199481E01908C
:101FB0000029DDDC05E038781A9A7F1C19999047D2
:101FC0006D1C0399481E03900029F4DC21461A9BDE
:101FD000199A0498ACE600002D0000002B000000C8
:101FE0002000000000000000F8B5044600251E4651
:101FF0001746880404D405E039462020B0476D1CFC
:10200000641EF9D52846F8BDFFB50446002581B009
:102010001E46C80301D5302700E02027880404D5D8
:1020200005E038460399B0476D1C641EF9D5284673
:1020300005B0F0BD0A68531C0B60107070470000BB
:1020400010B5144607F00EFF08480A2100680EF08C
:1020500027FA012804D006A201210AA000F32AF2DF
:10206000204600F01FF8002010BD0000E43E1100E3
:1020700061657331323820656E63727974696F6E91
:10208000000000003C7725642E25733E74616B656B
:102090002073656D6170686F7265206661696C752B
:1020A00072650A0010B510220149FFF615FD10BD3A
:1020B00054411200FFB591B0002415461E46089405
:1020C00009940A94142224490CA80B94FFF604FDE9
:1020D00037090094019402947F1C0394049405949E
:1020E00006940794300707D03801321A411908A81E
:1020F00010391032FFF6F0FC00240CAE7F1E12E007
:102100002001411904AB6A461020FEF7C7FB721C80
:1021100004A91298FFF794FF1022711C6846FFF67D
:10212000DBFC641CE4B2BC42EADB04AB6A4608A9EF
:102130001020FEF7B3FB721C04A91298FFF780FF72
:102140001022711C6846FFF6C7FC11220CA91198D9
:10215000FFF6C2FC15B0F0BDF82B110010B501461A
:10216000014803F7EBF810BDB039110070B5064611
:10217000104615460C46083008F046FF00280BD0E4
:102180000680448010218180C5800830044629469D
:10219000FFF6BBFC204670BD332202A109A00FF060
:1021A000A3F800006170705C6672656572746F738D
:1021B0005C7574696C735C626C655F7461736B2EC3
:1021C000630000006D736720213D204E554C4C008C
:1021D0007047000070B5154D044669688847EA6885
:1021E0000021204690472A680221204690472A680D
:1021F0000021204690470720E1680122C00108180D
:102200008261207A8240521E9006800E02021043A4
:10221000032212028918086308616A6900212046B6
:102220009047EA6801212046904770BD04391100AB
:1022300010B50248FFF7CEFF10BD0000F43A1100C0
:10224000F8B50646C068032109024718B968002995
:1022500017D0FF22103210A118A00FF045F800246B
:102260000BE0A96E0120A040014204D0B8632146D2
:10227000304602F08CF9641CE4B2307AA04203D9F3
:10228000EFE70521C9014518A86E0028E7D13046BF
:102290000FF07DFCF8BD0000706C665C70657269C3
:1022A00070686572616C5C6170705F646D61635CC5
:1022B0006170705F646D61632E6300007265672DED
:1022C0003E7374617475735F6572725F6C203D3D1F
:1022D00020300000F7B50546C4682C480F46026858
:1022E00082B00121284690470126BE40697A3846CF
:1022F000582250433140019000291FD00019016C31
:10230000FF220132114301640520C0012018806EB4
:10231000304203D003200002201886630020009082
:102320001A4802210268284690471848002102688E
:10233000284690470098002802D024E00320EEE7CA
:1023400001980019016C8905FCD5B1060722890C9A
:10235000D201A21811623C460C22696854430A5902
:10236000C0690005000D101A0851394628460FF0C3
:1023700078FC28460FF00BFC0498002803D068680E
:10238000015904980160009805B0F0BD04391100AE
:102390000A4610B501460248FFF79CFF10BD000039
:1023A000F43A1100F0B599B00F4604F039F86A46D6
:1023B00010701446501C04F035F8601D04F02EF81F
:1023C00000206A46107303A8013000F0B5F84108F8
:1023D0006A46D1720D30104EC2B200218800335AC5
:1023E000002B0ED01D0AA554A5186B7080194088CB
:1023F000121D030AAB70E8706B46187BD2B2401C0A
:102400001873491CC9B20329E8D36B460121384629
:1024100004F052F819B0F0BD489E1100FFB558788D
:1024200019780002084344BAD87899780002084322
:1024300083B043BA042A2DD11A4D002081006A5A74
:10244000A24203D149194988994202D0401C03286D
:10245000F4DB032807D100208100695A00291BD032
:10246000401C0328F8DB002634466F46A000295A9A
:10247000002906D04119B8190422FFF62DFB361D9C
:10248000B6B2641C032CF1DBF2B26B460421039854
:1024900004F012F807B0F0BD80002C5240194380C0
:1024A000E1E70000489E110010B5022A09D35978CF
:1024B0001C7809022143921E49BAD2B29B1C03F038
:1024C000B9FF10BDFFB5587819780002084344BA27
:1024D000D87899780002084385B043BA042A27D1F6
:1024E000144E00208100725AA24207D189194988EE
:1024F000994203D100218200B15202E0401C03281E
:10250000F0DB00252C466F46A000315A002906D08A
:10251000811978190422FFF6DFFA2D1DADB2641C73
:10252000032CF1DBEAB26B460421059803F0C4FFEB
:1025300009B0F0BD489E110010B508490022496855
:1025400007E08B8884181B0A83540B796370096831
:10255000921C0029F5D1D0B210BD00003C3B110007
:1025600010B50748002101604160816001460C31CF
:10257000044806F353F103F087FF03F0BBFF10BDDF
:102580003C3B1100F43C110070B51546054A1C4651
:1025900010802A460BF3D4F20122214628460BF381
:1025A0003BF170BD723B110070B50D4E0546F268EF
:1025B0000021904732680221284690473268002166
:1025C000284690476C6804E02146284603F0E8F866
:1025D0002468002CF8D1726900212846904770BD0C
:1025E000A02A110070B5054644680EE0E968086C41
:1025F000227AD040C00707D0CB6C012090408343A3
:102600001843C864606880472468002CEED170BD10
:10261000C06842688A4342607047C06842680A43A3
:1026200042607047C068006D7047C06802688A43A6
:1026300002607047C06802680A430260704770B564
:10264000054614460E4618300FF092FF002809D0B8
:102650000FCC08350FC528463146183803F028F945
:10266000002070BD022070BD1FB50269C1680192D3
:102670000091416902918169039101466A460248CD
:10268000FFF7DDFF04B010BD083B110070B50F4D22
:10269000044669688847EA680021204690472A680E
:1026A0000221204690472A68002120469047606812
:1026B0000021416001210161204618300FF056FFD2
:1026C000EA6801212046904770BD0000643A11007D
:1026D00010B50248FFF7DAFF10BD0000083B1100FB
:1026E000F8B5044661680120C86107216068C90126
:1026F000254641180835202227696669A068FFF63B
:10270000EBF91D2160684901411820226868FFF635
:10271000E3F9084D0121EA68204690476A690321E0
:1027200020469047204618300FF031FF3046B8471A
:10273000F8BD0000643A1100FEB50746FF300130D5
:102740000290006D0190C46A3D46FF356106413537
:102750000094002922DA80210958C9071CD00121E0
:102760006972016B102291430163787B002813D0BA
:10277000287A00260028287B1AD0002804D0E87A7E
:102780000021FFF705FE2E73A87B002804D0687B8C
:102790000021FFF7FDFDAE735020844360072ED566
:1027A00039460298FF3121313E46006D803615E0F2
:1027B0000028F1D0E87A0021FFF7EAFD2E73EBE75D
:1027C0000269336B1A70326B521C32630A7F002A23
:1027D00013D0521E1206120E0A770ED0826FD20646
:1027E000EED1097F102901D9082100E0491ECAB2A3
:1027F000816B090A09021143816304208443E006C6
:1028000004D5384603F04AFB10208443A00607D5C0
:102810000298006D016B1022114301632020844354
:10282000200601D580208443A00509D5297A3846A1
:102830000029697A17D003F075FA01204002844319
:10284000002C0BD02A7D234608A1022003F07AFB3E
:102850002A7D234605A102200EF030FD0099019843
:1028600003F0E4F8FEBD03F0E9FAE6E769696325E1
:10287000643A756E65787065637465642069727119
:102880002C737461743D307825780A0010B5890284
:10289000520211431A02029C11432143016110BDEF
:1028A000F8B5174D01232F6904460179C668002247
:1028B000B8472A68022120469047AA68FF2120468F
:1028C0009047EA68002120469047207C000181194A
:1028D0004A68E08892B2000410434860207C0001FE
:1028E00081194A682089120C1204104348606A69F1
:1028F000002120469047EA68012120469047F8BD14
:10290000D02A1100F8B5144E012337690446017925
:10291000C5680022B847F268002120469047207C15
:10292000000141194A68E08892B2000410434860EF
:10293000207C000141194A682089120C12041043BE
:102940004860207C000129580122114329507269F6
:10295000022120469047F8BDD02A1100F8B50B4E51
:102960000023376904460179C5681A46B847F268FA
:10297000012120469047207C000129584908490040
:1029800029507269032120469047F8BDD02A1100D2
:10299000FEB5084C089E30CC009401956C466080D2
:1029A000A180E2800448029332466946406806F0FE
:1029B00025FDFEBDB0261100A839110008B5064B53
:1029C00000201A46009048320C2114200DF020FA05
:1029D0000249486008BD000050841100A839110068
:1029E0003EB51C460546032A1CD1A17860780191AA
:1029F000009023782A460CA10EA0FFF25BF5A27886
:102A00006178207803F038FE6946087220784872B1
:102A100060788872A078C87202AB0422022128462E
:102A200003F02CFE3EBD00007265616C636F6D6D3E
:102A3000000000003C692E25733E737263203078DD
:102A400025782073657420706F727420256420626D
:102A50006175642025642070617269747920256431
:102A60000A00000038B5032A14D199785A7809026F
:102A700011431A7849BA032A02D2074B52009952DD
:102A800000226B461A700A0A5A70997003220421B8
:102A900003F0F4FD38BD00007A3B1100F0B5C5B07D
:102AA0001C461546012A28D92178032925D2144A23
:102AB00049005052421E13A16846FEF709FE6846BF
:102AC000FDF7A6FB80B24619FF271237761E69462E
:102AD000BE4208DC08186A1E611CFEF6FDFFB1B29A
:102AE00020786A4607E03A1A0818611CFEF6F4FFDF
:102AF00020786A46394603F046FD45B0F0BD000037
:102B0000743B1100736F7572636520616464723A7F
:102B100025642C0010B5012A0BD91978032908D295
:102B2000044C49006052521E91B218785A1C03F0AE
:102B30002AFD10BD743B110070B5054606462035D0
:102B4000F06A006B0406240E10D0A00618D52A7C6B
:102B50002CA1022003F0F6F92A7C2AA102200EF013
:102B6000ADFBF06A406CFF22C23240E0F06A806840
:102B7000002804D12B480121C2683046904770BD1F
:102B8000E00602D5304609F0DDFE20070ED52A7C8E
:102B900025A1022003F0D6F92A7C23A102200EF001
:102BA0008DFBF06AC06BFF22CC3220E060070ED5AF
:102BB0002A7C25A1022003F0C5F92A7C22A102204B
:102BC0000EF07CFBF06A006CFF22D2320FE0A0070F
:102BD00011D52A7C24A1022003F0B4F92A7C22A179
:102BE00002200EF06BFBF06A806BFF22D83226A128
:102BF0002FA00EF079FBE007A2D0304609F02EFF9F
:102C00009EE7000073706925642C6D756C74695FB4
:102C10006D617374657220636F6E74656E74696F35
:102C20006E0A0000E82A110073706925642C526551
:102C30006365697665204649464F204F7665726622
:102C40006C6F770A0000000073706925642C526570
:102C50006365697665204649464F20556E64657206
:102C6000666C6F770A00000073706925642C5472DB
:102C7000616E736D6974204649464F204F766572C8
:102C8000666C6F770A000000706C665C7065726934
:102C900070686572616C5C7373695C6170705F739E
:102CA00070695C6170705F7370692E630000000072
:102CB00030000000027D142301695A435118C9688D
:102CC000C26881681046084710B5EFF31082816B27
:102CD00072B6CB6F1B070CD4CB6F5B0709D5037B98
:102CE000EF242340037308690223984308610120FD
:102CF00000E00020002A00D162B610BD027B102344
:102D00001A43816B027308690222104308617047FD
:102D1000F8B50646041D4068374D870A8005800DCA
:102D20000090696830468847AA683946304690471F
:102D3000EA6800213046904701232F6921791A461D
:102D40003046B8472D690123617900223046A847F3
:102D5000207AB56B40070DD5274801230769A17973
:102D600003223046B847244801230769E17902224B
:102D70003046B847207A20210007002804DA812055
:102D8000A8602869084303E00120A86028698843F7
:102D90002861207AC006304602D5FFF7AFFF01E078
:102DA000FFF792FF207AC1078007C00F090F0001CB
:102DB000C91C0143E96068680421084368600E4C3F
:102DC0000221226830469047226800213046904711
:102DD000284600990AF02CFF3046012130300FF0D0
:102DE000C5FB3046012131300FF0C0FB6269002184
:102DF00030469047F8BD0000002B110070B5846B81
:102E00000546A0680107090F012944D002292BD0EB
:102E1000042914D006290ED00C2910D02E462036B5
:102E2000327F1DA1022003F08DF8327F1AA102200B
:102E30000EF044FAE5E728460AF03AFEE1E72846B4
:102E4000AA6B0AE01168436A1970016A491E01629F
:102E5000436A5B1C4362002903D05169C907D0D083
:102E6000F0E70AF06FFECCE72969284600290FD069
:102E7000826B09E04169097811604169491C41612F
:102E80000169491E0161BCD0D16F8907B9D5F1E74D
:102E90000AF032FFB5E770BD756172743A2564209F
:102EA000756E6578706563746564206969640A008D
:102EB000F8B516460F4604461D461A4631463846B2
:102EC0000AF010FF002816D0204631300FF050FBDA
:102ED000002812D067622662A5620698E0620B485D
:102EE0000221426920469047207B400607D52046B4
:102EF00000F00EF808E00120F8BD0220F8BDA06B3C
:102F000041680122114341600020F8BD002B1100EF
:102F100030B587B004460AF047FD054618221D4922
:102F200001A8FEF6D9FD0294A06B0390606A04909C
:102F3000206A0590207B000701D5680800E0012089
:102F400001F0BCFAFF2206994007C132C00D91433F
:102F5000014320340691207F002801D00B2000E09F
:102F600009200F22D203C00391430143069101209F
:102F70006075694601A80EF099FE002805D0FF2271
:102F80001D32054905A00EF0AFF96846007820759E
:102F900007B030BD302B110044DD10006572726F38
:102FA00072203D3D205045524950485F4E4F5F458D
:102FB00052524F5200000000F8B516460F46044624
:102FC0001D461A46314638460AF08CFE002816D0B7
:102FD000204630300FF0CCFA002812D0676126610D
:102FE000A5610698E0610B4805214269204690479B
:102FF000207B800607D5204600F00EF808E001206F
:10300000F8BD0220F8BDA06B416802221143416067
:103010000020F8BD002B110010B588B004460AF05E
:10302000C3FC1822154901A8FEF656FD02946069FA
:103030000390A06B0490206920340590207F002825
:1030400001D00A2000E008200F220699D204C00413
:103050009143014306910120E074694601A80EF0F6
:1030600025FE002805D0FF228F32054905480EF0C5
:103070003BF968460078A07408B010BD482B1100D9
:1030800044DD10009C2F10000069C168090A090284
:103090007631C16070470000F8B5164E054671687C
:1030A0000469884701230022376911462846B8473A
:1030B000F268002128469047216828790222C0073B
:1030C000800F9143084320606168A87909090007CF
:1030D000000F090108436060216868791C224007DD
:1030E000C00E914308432060726900212846904732
:1030F000F8BD0000182B110001694969C268816898
:103100001046084770B50446006901680122114362
:103110000160074D02212A68204690472A68002155
:10312000204690476A6902212046904770BD000002
:10313000182B1100F0B5164689B00F4604461D46FF
:103140001A46314668460AF014FB21462B466A4669
:1031500008460AF0FEFA69462B46324608460AF04F
:10316000F8FA39462B466A4608460AF0F2FA09B0E0
:10317000F0BD00004B210902421A884220D00CDC2D
:103180001249401A16D0401A16D04900401A15D0DC
:10319000490088420BD104207047501A12D0401ABF
:1031A00012D0E1210902884201D108207047002095
:1031B000C0437047012070470220704703207047CA
:1031C000052070470620704707207047B0040000B4
:1031D00008B508464A7A2031097A022A0AD1037AC8
:1031E000032B07D902460E320092027B521ED3B245
:1031F000427B05E003460B33521E0093D3B2827A22
:10320000801C03F094FC08BDF0B585B030220D2180
:103210001748FEF7ABFF032202700F2304464370EA
:10322000C0202084FB2060841249A184002501264F
:10323000A576E676F702E78404976F4663C70E49E2
:10324000032002F07FFEA08CE38CE27EA17E01AD24
:103250000FC5608C009063782278074903200EF038
:103260002DF8B11E204606F0BDFB012005B0F0BDD3
:10327000040D0000480800002C381100F8B51F4666
:103280000C4603F0FDFC064603F02EFD03F012FD94
:1032900039462C221348FEF769FF002228210A54E0
:1032A000551E294606F09EFB0E4839460622293057
:1032B000FEF75CFF14210170FB2141800A498180E7
:1032C000294606F08FFB20460A3062882178032EBB
:1032D00004D0C9B2002303F025FBF8BDC9B2012315
:1032E000F9E70000020E000048080000F8B51C468F
:1032F0000093154613460646024606A1032002F037
:1033000021FE2B46324603A1032000940DF0D6FF88
:10331000F8BD000064656675616C742068616E6458
:103320006C65722C6D736769643A20307825782C4F
:1033300020646573745F69643A20307825782C20A6
:103340007372635F69643A20307825780A00000060
:1033500010B503F0F5FB10BD10B504A1032002F079
:10336000F1FD02A103200DF0A9FF10BD6368617299
:103370000000000010B504A1032002F0E3FD02A14B
:1033800003200DF09BFF10BD646573630000000017
:1033900010B504A1032002F0D5FD02A103200DF019
:1033A0008DFF10BD696E636C0000000010B5897858
:1033B000180A03F0F7FA10BD03490A6B52005208CD
:1033C000C00702430A6370470000102010B50C4686
:1033D0000A788EB02DA1032002F0B4FD22782BA133
:1033E00003200DF06BFF2078022841D006283DD144
:1033F000A378E278217960790D930AAB07C3A379AA
:10340000E279217A607A099306AB07C3A37AE27A5C
:10341000217B607B029003A80EC0A17BE07B019121
:103420000090237C627C1DA1032002F08BFDA37819
:10343000E278217960790D930AAB07C3A379E27929
:10344000217A607A099306AB07C3A37AE27A217BDB
:10345000607B029003A80EC0A17BE07B01910090ED
:10346000237C627C0DA103200DF028FF0EB010BD5F
:10347000E378A27817A1032002F064FDE378A27834
:1034800014A103200DF01AFFF0E70000626F6E64D4
:103490005F696E645F25640A000000004373726B0D
:1034A000203D2025783A25783A25783A25783A251E
:1034B000783A25783A25783A25783A25783A257861
:1034C0003A25783A25783A25783A25783A25783A8F
:1034D00025780A00417574685F25642C4C746B2054
:1034E00050726573656E745F25640A00F8B50C460A
:1034F0000A782DA1032002F025FD22782AA10320BD
:103500000DF0DCFE20782E4C2E4F012510260028D1
:103510002DD007282AD12CA1032002F013FD2AA1C7
:1035200003200DF0CBFE618822223846FEF71EFEF6
:103530004570072101702849044641820025FEF6A6
:10354000B9FA61196D1CEDB28870102DF7D3002502
:10355000FEF6B0FA61196D1CEDB20875082DF7D3AF
:1035600000212677C943204606F03CFAF8BD1BA18E
:10357000032002F0E7FC19A103200DF09FFE6188F3
:1035800022223846FEF7F2FD057045700322827054
:103590000021C17009230371467104238371C27134
:1035A0000172491EE0E70000676170635F626F6E41
:1035B000645F7265715F696E645F25640A00000074
:1035C000B8401100140E0000474150435F4C544B6B
:1035D0005F455843480A0000A4A6000047415043F5
:1035E0005F50414952494E475F5245510A00000021
:1035F0007047000010B51C461A4605A1032002F0D2
:10360000A1FC224602A103200DF058FE10BD0000CF
:10361000636F6E6E656374696F6E5B25785D2063A2
:103620006F6E6669726D65640A0000000020704765
:1036300010B508780D2808D012DC012823D0022804
:103640005AD0032833D00C2809D14B78442B4CD0C6
:10365000002B04D034A2012138A0FEF22BF710BDBC
:10366000112836D0122834D013284FD01B28F6D179
:1036700039A1032002F066FC37A103200DF01EFEE5
:1036800002F00EFE10BD4878002805D0FF22DB3284
:1036900035A13DA00DF028FE43A1032002F052FC0D
:1036A00041A103200DF00AFEFFF7AEFD10BD082278
:1036B0000D214048FEF75AFD1B2101700021417089
:1036C000F222428046228280C180491E06F08AF999
:1036D00010BD4B78442B03D013A2012136A0BCE7C8
:1036E000012003F02DF8012003E0012003F028F869
:1036F000022003F067F810BD4B780BA2012135A022
:10370000FEF2D8F6002003F01BF810BD4B78442BD6
:1037100005D0002BF9D004A2012136A09DE701209D
:1037200003F00EF80320E4E7626C7565746F6F7444
:1037300068206F7065726174696F6E003C65256406
:103740002E25733E616476206572726F723A30780E
:10375000253032780A000000626C652061646420C4
:103760007376630A000000006A6D657368424C4519
:103770005C7372635C424C455C424C455F616461C2
:1037800070742E6300000000706172616D2D3E73D5
:1037900074617475733D3D4741505F4552525F4EB1
:1037A0004F5F4552524F5200626C6520636F6E66E8
:1037B00069670A001B0D00003C6525642E25733ED9
:1037C0007363616E206572726F723A3078253032A1
:1037D000780A00003C6525642E25733E63616E63A4
:1037E000656C206572726F723A3078253032780AD3
:1037F000000000003C6525642E25733E636F6E6EED
:10380000656374206572726F723A30782530327851
:103810000A00000010B50C460978180A0C2912D0CD
:103820000D2910D012290DD16178002918D003F08C
:10383000A7F8002003F094FC63780BA201210FA0ED
:10384000FEF238F610BD6178002909D003F098F82F
:10385000002003F085FC637803A201210FA0EFE7AD
:10386000012003F07DFC10BD626C7565746F6F7490
:1038700068206F7065726174696F6E003C652564C5
:103880002E25733E6E6F74696679206572726F7251
:103890003A3078253032780A000000003C65256413
:1038A0002E25733E7772697465206572726F723A65
:1038B0003078253032780A00014903204863704788
:1038C0000010202010B5032009F05AF910BD0000A7
:1038D00010B5012080020DF0F3FE05F0ABFC0020D6
:1038E00009F04EF9074901200870074904200860D3
:1038F00006490968014204D0FD2205A10DA00DF082
:10390000F3FC10BDE839110000E100E000E200E046
:10391000706C665C61706F6C6C6F5F30305C737282
:10392000635C736C6565705C7379735F736C6565FC
:10393000702E63004E5649435F47657450656E6450
:10394000696E6749525128424C455F4D41435F497A
:1039500052516E293D3D3000044A5169F023000761
:103960009943000E0143516170470000400011204F
:1039700004490A68C00752085200C00F02430A6097
:10398000704700004000112004494A6900071209ED
:103990001201000F02434A617047000040001120ED
:1039A00004494A680005120B1203000D02434A60E5
:1039B000704700004000112004498A680005120B7E
:1039C0001203000D02438A6070470000400011207E
:1039D0000449CA680005120B1203000D0243CA60B5
:1039E000704700004000112004490A690005120BCD
:1039F0001203000D02430A617047000040001120CD
:103A000010B5054900230A6848680B604B601946E9
:103A100090470DF091F910BD3484110010B5064A9D
:103A200013681870C88808305081002051601081D8
:103A3000024809F085F810BD44841100013A1000D5
:103A400010B5054900238A68C8688B60CB601946A9
:103A500090470DF071F910BD3484110010B509883C
:103A6000180A02F02BFF10BD10B5E12019460622FE
:103A70000001FEF77BFB0121017004498180418038
:103A80000021C94305F0AEFF012010BDFFFF00007B
:103A900008B5064B00201A46009048320821032042
:103AA0000CF0B6F90249486008BD0000B07B110077
:103AB000A0391100FFB581B00C9F1C4615460E467B
:103AC000880704D5002211460120FCF7E1FE280BEF
:103AD00004D0002211460120FCF7DAFE600804D071
:103AE000002211460120FCF7D3FE0A98400804D0BA
:103AF000002211460120FCF7CBFE0B98400804D0B1
:103B0000002211460120FCF7C3FE780904D00022F0
:103B100011460120FCF7BCFE0D98000904D00022DC
:103B200011460120FCF7B4FE0198B107C007084315
:103B300029040843E10308430A99490308430B9900
:103B400009030843390108430D99084301494863B3
:103B500005B0F0BD4000102004490A68FF231B0493
:103B60009A43000402430A6070470000800010205E
:103B700010B5084C2078002805D10BF741F9002832
:103B800001D000F011F82078022801D108F0FAF9EC
:103B900010BD0000E839110010B54A8A180A00214A
:103BA00002F06EFE10BD000010B5012080020DF085
:103BB00087FD064A1020116B8143014311630448BD
:103BC00000E030BF01780229FBD110BD00001020B9
:103BD000E83911001CB50C48006808F02DF90025E3
:103BE000ED430A4CFFF7C4FF2A46694660680CF0B3
:103BF000B1FB0128F6D101980028F3D001466846B0
:103C00000078FFF70BFFEDE7C8391100A03911006C
:103C10003EB5074C074A05216D4616C50346FF22EF
:103C2000F53205A108480CF079FD084908603EBD51
:103C3000E0831100107C1100424C45205354414355
:103C40004B205441534B0000D53B1000A0391100CC
:103C500003490A68120A120202430A607047000010
:103C60008000102070B50C460646FF2115469131A4
:103C70000748FDF64AFF224631460548FDF62CFF6F
:103C80000348286020090001103080B270BD000098
:103C9000943F1200F8B5164DA88808F031FA87B2A3
:103CA000E88808F02DFA86B2288908F029FA84B24B
:103CB000F00A04D0002211460120FCF7E9FDA00A19
:103CC00004D0002211460120FCF7E2FD7805B10284
:103CD000084308492043C863AA882889824200D93A
:103CE0001046E988884200D8084608F01FFAF8BD57
:103CF000A47B11000000102070B504460D46808A98
:103D00000BF738FB2269022806D1D07BA84203D1E9
:103D1000A08A00210BF75CFB70BD704710B5002234
:103D20000169026108460BF7F3F810BDF8B50546C6
:103D30000A0B080500D001201018C6B20024084F55
:103D40000BE0386804F078F80021284600F05CFEAB
:103D5000012000032D18641CE4B2B442F1D3F8BD75
:103D60006440110070B516460D46F22006F0D6FAF2
:103D7000044630460BF7FEFA002801D1287820745B
:103D8000002070BD38B504466A460421182000F0B2
:103D90004FFF0DA10320009A02F0D4F80AA10320DE
:103DA000009A0DF08BFA0F480068002801D000211E
:103DB00000E00099012212038A18626010460099FF
:103DC000FFF7B4FF38BD0000696D6167655F736917
:103DD0007A655F6C696D6974203D20307825780ABA
:103DE0000000000090EF120038B50446124801218F
:103DF00000680903401850306A460121054600F06A
:103E000017FF6A461078FD210840107001212846EE
:103E100000F0C0FE60686A4650300121044600F0A0
:103E200007FF6A46117820464908490011700121B0
:103E300000F0B0FE38BD000090EF1200F0B585B084
:103E4000174604460E46808A0022124901AD0092B0
:103E50000BC51321062349023046FEF65BFE050022
:103E600015D1012128200BF745F920613188018106
:103E70000780A18A4180F221E1820121E1810E3097
:103E8000A06005486060A08A00210BF7A1FA2846CF
:103E900005B0F0BDD8261100382711000048704742
:103EA0000827110070B58489A8256C4361184489DE
:103EB000406861430818194600F06CFE70BD70B58B
:103EC00016460C46F22006F029FA054630460BF756
:103ED00051FA012812D12078002801D0002106E0F3
:103EE000287C002802D12846FFF74CFF02213046EB
:103EF0000BF76EFA2178284600F002F8002070BD1A
:103F0000FEB5174A054612686846009241701320B4
:103F1000029068460190E97B124F0C020326284666
:103F2000E41D06F08DFA0246C1200B232146000154
:103F30000BF78AF904460298207038886080401C8C
:103F4000388028893246801CA080E68020460830D0
:103F50000199FDF6C1FD20460BF7AEF9FEBD00004C
:103F600040271100D0391100081A1949001F0B40D1
:103F70000105490D09040B43C101420210B54A4035
:103F8000D20FD2430124D207E4061209A3431A43F5
:103F900063001A4303024B40DB0FDB43DB07A40043
:103FA0009B08A24313430322920713439A0A8002F9
:103FB0009202800D0243E0148243C80F8002024344
:103FC0001F20C00282430F200003101810BD000004
:103FD000FFFF00F8002204E0401E80B20B5C9A183C
:103FE000D2B20028F8D110467047000010B50B4936
:103FF00008610B4A104203D00A690242FCD110BD8D
:10400000074AD243104204D00A6903469343FBD1C6
:1040100010BD312203A111A00DF066F9009014200B
:10402000AAAAAAAA706C665C61706F6C6C6F5F3034
:10403000305C7372635C7379735F696E7465677209
:104040006174696F6E5C636C6B5F676174655C6300
:104050006C6B5F676174652E6300000030000000C8
:1040600010B50B4948610B4A104203D04A6902421D
:10407000FCD110BD074AD243104204D04A6903461E
:104080009343FBD110BD432203A111A00DF02CF9E5
:1040900000901420AAAAAAAA706C665C61706F6C6A
:1040A0006C6F5F30305C7372635C7379735F696EE1
:1040B000746567726174696F6E5C636C6B5F676176
:1040C00074655C636C6B5F676174652E63000000F0
:1040D00030000000024880690249082008607047EB
:1040E0000000202080E200E001700A0A42700A0C01
:1040F0008270090EC170704710B50521024802F0A8
:104100007FF80121484010BD203A1100FFB5064656
:1041100081B017460D46F22006F000F904463078CB
:10412000761C00280ED002282AD0032846D02FA1C2
:10413000022001F007FF2DA102200DF0BFF80120A1
:1041400005B0F0BD002F01D0FE20F9E7012128467F
:104150000BF73EF90498E073707831780002084359
:104160006081E17B204606F0D1F8014604232A460F
:1041700024480BF769F8E17B01706189418019E0FF
:104180007078317800020843A08120461521113053
:10419000FDF6BBFC207C00280ED02046A689E17BE2
:1041A00006F0B4F80146174802232A46801C0BF794
:1041B0004BF806800BF780F80020C1E7214638460F
:1041C000049A07F076FA00280DD02046FFF70CFE7F
:1041D0002046E17B06F09AF801460A482A46001D6F
:1041E0000BF77EF8E8E78020AAE70000756E6B6E9B
:1041F0006F776E206374726C20706B7420747970AA
:10420000650A000001F2000070B50D460646002464
:1042100003E0FDF64FFC3055641CAC42F9D301209D
:1042200070BD02460020802901D98D207047062AE2
:1042300006D0072A07D0082AF8D10729F5D17047F8
:104240000829F2D170470629EFD37047704730B57F
:1042500002460120002103241346CB40DB0704D093
:104260004D0023466D1CAB401843491CC9B20929B7
:10427000F2D330BD704770B50546046904E0201DD7
:1042800001F752F80AF744FE6068002808D00021C0
:104290000029F4D00020286120460AF739FE70BDBD
:1042A0000121F5E730B50446A2890920521C93B2DA
:1042B000E48900222546D540ED0706D05D1C8D42DD
:1042C00001D1104630BD9B1C9BB2521CD2B2092AB0
:1042D000F0D330BDFFB585B00E9F04461D4638882B
:1042E000FFF7B5FF049028461E210840A18A1A4A0C
:1042F00000230191009302920390132304AA17490B
:104300000698FEF607FC060022D1012114200AF7C8
:10431000F1FE20610699098881813988C181E90708
:1043200001D00121C903079A11430180A18A41806C
:104330001421E1820121E18101461231A160084985
:10434000001D616000F743FFA08A00210BF740F8D1
:10435000304609B0F0BD0000442711000A180000E3
:104360000428110000487047DC271100FFB581B018
:104370000C46142005F0D2FF21780746092931D2D6
:1043800000F080F800282BD061782078FFF749FFF3
:10439000060028D17D680DE028792178884208D16F
:1043A00000222946381D00F787FE28460AF7B0FD8F
:1043B00002E02D68002DEFD16078012108300AF766
:1043C00099FE054620782871607868716278A11C92
:1043D000A81DFDF681FB2946381D00F7AFFF02E05E
:1043E000822600E0812602230648039A04990AF7F0
:1043F0002BFF2178017046700AF75EFF002005B0A0
:10440000F0BD000001140000F8B517460D46104637
:104410000AF7B0FF012831D1142005F07FFF0446D0
:10442000017C00F02FF80646217C2A78144891423E
:1044300014D1617C6B7809023A46C91D9B1D0AF7AD
:1044400003FF0446068000202071687860806A7847
:10445000A91C601DFDF640FB204609E0617C062397
:1044600009023A46C91D0AF7EFFE06808021017154
:104470000AF722FF002138460AF7AAFF0020F8BDFC
:10448000140C000010B58289C489521C93B200221A
:104490002046D040C00706D0914202D15B1C9BB29F
:1044A00005E09B1C9BB2521C52B2092AF0DB092A80
:1044B00001D0184610BD002010BD000010B5012825
:1044C00009D020281BD008DC042812D0082812D0DC
:1044D000102809D111E0002010BD402811D08028FB
:1044E00011D0FF38012810D0F52209A111A00CF03D
:1044F000FBFE012010BD022010BD032010BD0420D2
:1045000010BD052010BD062010BD072010BD000005
:10451000706C665C7065726970686572616C5C6114
:1045200070705F646D61635C6170705F646D616326
:104530002E6300003000000000487047FF0F0000AD
:1045400010B54022002908D001290AD002290CD038
:104550001A22074907A00CF0C7FE07490860074860
:1045600001E006488030026010BD0548FBE700000E
:1045700094361100300000005C3A110000E100E0C8
:1045800080E200E010B520200DF0FAF810BD70B503
:104590000D462C460C2254435823C66841686B4391
:1045A0009B190A59DB691B051B0DD21A0A51416878
:1045B0000ED029460DF040FA0120A8408106800661
:1045C000890E800C01430720C0013018016270BDC4
:1045D000221D08348E580C5929460DF042FB204606
:1045E000B04770BDFFB500241C5791B006461D466C
:1045F0002146139808F0FDFF00287DD12A4601A826
:10460000129909F0B6F82B4601AA314609A809F01B
:10461000A0F801A92A46084609F0ABF812992B46E2
:104620000846139A09F095F813992A46084609F0A6
:10463000A0F831462B1D00940846139A08F0EAFFB3
:10464000139A2B1D11460094084608F0E3FF139AB5
:104650002B1D00943146104609F091F831462B4647
:104660000846139A09F075F832462B1D114600943E
:10467000139808F0CFFF31462B1D00940846139A7B
:1046800008F0C8FF0021304609F044F9002812D094
:10469000314623462A1D084608F03AFF07462146C0
:1046A000304609F005F9A00080198038C16FFA077B
:1046B0001143C16703E02146304609F0F9F82A4664
:1046C0003146139809F055F813992B1D09AA009447
:1046D000084609F054F813992B1D09AA00940846BE
:1046E00009F04DF809A92B1D00940846139A09F00A
:1046F00046F82B4609AA00E019E03146084609F0C1
:1047000028F801AA2B1D31461046009409F037F80D
:1047100022463046139909F0DAF822461299139886
:1047200009F0D5F8224601A9129809F0D0F815B081
:10473000F0BDFFB50E4691B01C4615460821104647
:1047400008F057FF00286AD12246314609A809F02F
:1047500010F8234609AA01A8119908F0FAFF119947
:104760002246084609F005F809A92246084609F03C
:1047700000F82A4623463146104608F0EAFF119A0F
:104780000825231D00951146304608F043FF3146A9
:10479000231D00950846119A08F03CFF0021304681
:1047A00009F0B8F800280FD031460823221D08462A
:1047B00008F0AEFE07460821304609F079F8F069A6
:1047C000F9070843F06103E00821304609F070F86A
:1047D00022463146119808F0CCFF1199231D01AAF9
:1047E0000095084608F0CBFF1199231D01AA0095FA
:1047F000084608F0C4FF01A9231D00950846119A38
:1048000008F0BDFF3146234601AA084608F0A1FF83
:104810003146231D09AA0846009508F0B0FF15B0DF
:10482000F0BD0000094901200968002901D00020DD
:1048300070470749CA69002AF9D1044A2832126828
:104840008968491E8A42F3D102207047CC41110089
:104850003439110008B50092034A0B46114620393D
:1048600000F05EF808BD00002C281100F0B585B0FE
:10487000044600294FD1204608300390001D0290C5
:10488000001D0190001D071D3E1D244D0090FDF6EA
:1048900011F901462046FFF727FCFDF60BF901460A
:1048A000201DFFF721FCFDF605F901460398FFF7EF
:1048B0001BFCFDF6FFF801460298FFF715FCFDF61C
:1048C000F9F801460198FFF70FFCFDF6F3F80146F1
:1048D0000098FFF709FCFDF6EDF801463846FFF7B2
:1048E00003FCFDF6E7F801463046FFF7FDFB1F200D
:1048F000215C002901D1401EFAD5401C02D120784C
:104900000028C4D01F20215C2A5C9142BFD891426C
:1049100001D3401EF7D505B0F0BD00004C281100B2
:10492000F0B51C4687B017460E4605464023FF22C9
:1049300020460C990AF788FC04461C220849684660
:10494000FDF6CAF820462030049003940694684689
:10495000E0C06846FDF788FE0028FAD107B0F0BD38
:10496000CC29110010B50AF7A7FC0CF0E5F910BD31
:104970007047000010B50748C26910218A430A43F6
:10498000C261C26909028A430A43C2610CF0B2FBE8
:1049900010BD00000010202070B505460F3800241F
:1049A0000300FDF6F4F8091806080E0E0E0E0A0CA8
:1049B0000E0001240FE002240DE003240BE0042488
:1049C00009E02A4605A1012001F0BCFA2A4603A10C
:1049D00001200CF073FC204670BD000025642065AA
:1049E000787420696E7420636667206661696C0A5A
:1049F0000000000010B5032300F02DF810BD10B525
:104A0000012300F028F810BD10B50346002906D098
:104A1000012906D0022907D0032909D106E0202068
:104A200000E05220002203E0D820FBE760200122B2
:104A3000194600F001F810BD10B5EFF31083002BFC
:104A400002D00DF065FD10BD01DF10BD10B50021D5
:104A5000FFF7DAFF10BDFFB50026940783B01546B7
:104A60000F46A40F17D06A460121069B039800F059
:104A70004EF8060037D10420001BB84200D9384652
:104A8000C4B2224669462846FDF626F803982D1939
:104A900000193F1B0390FFF74FFDBC08019015E084
:104AA0000198844200D8204680B2009001462A46F0
:104AB000069B039800F02BF8060015D10098039987
:104AC00080004118451900980391241A002CE7D161
:104AD000BC07A40F0FD06A460121069B039800F083
:104AE00016F8060002D0002007B0F0BD2246694645
:104AF0002846FCF6F1FF3046F6E710B5EFF31081DB
:104B0000002902D00DF026FD10BD03DF10BD7FB5DA
:104B1000009200226C462271019A0002D2B2024336
:104B200001922181A089F02180088000801CA08151
:104B30000C24A201012B06D0022B09D0032B13D089
:104B4000042B0CD11AE03B236D466B81A04310E08F
:104B50006B236D46A0436B81884316E0A8816846AD
:104B6000FFF7CBFF04B070BDBB236D46A0436B8144
:104B7000001D88439043FF300130EFE7A043EB2353
:104B8000001D6D4688436B8140309043FF30FF30FD
:104B90000230E3E7F8B50D46010A0446090216465D
:104BA000A14210D00F1BFF370137BD4200D22F4664
:104BB000134601463A46022000F026F8002822D18A
:104BC000F619E419ED1B29020F0CE9B2002500913A
:104BD0000EE0FF22334601322146022000F014F895
:104BE000002810D16D1CFF340134FF36ADB2013600
:104BF000BD42EED30099002905D00A46334621462E
:104C0000022000F001F8F8BD10B5EFF31084002C7D
:104C100002D00DF06BFC10BD00DF10BD10B50423F9
:104C2000FFF719FF10BD10B50223FFF714FF10BDE9
:104C3000F8B516460C460746FFF77EFC05460146CA
:104C40002046FCF6DDFE044688B2009000200AE013
:104C500032462946384600F011F8002801D00020DD
:104C6000F8BD7F197619641EF2D200990029F7D099
:104C70003246384600F002F8F8BD000038B507A308
:104C80001B680093040C6D466C70030AAB70E870EF
:104C90000B460421684600F025F838BD03000000EB
:104CA00000B50A49002009680B00FCF670FF0504F6
:104CB00006080A0C0500064800BD064800BD064867
:104CC00000BD064800BD064800BD000098EF120078
:104CD000314C1000FF491000274C1000F54910001E
:104CE0001D4C100010B5EFF31084002C02D00DF015
:104CF0001FFC10BD02DF10BD10B586B00446642055
:104D00006A4610730A2050739073208802F07EF870
:104D10006A46D07310480088010A117450742288C2
:104D20000EA110A0FDF2C6F37D2120462346114AB4
:104D30004901503008F344F204F3D6F203AB0622E3
:104D4000012102930192009121880423002203F3A0
:104D50008BF406B010BD0000FC3C11006F66666568
:104D6000720000003C692E25733E616464723A252E
:104D7000640A000081701000F8B51D460E46074613
:104D800002F0BAF904002CD004F3AEF2B04203D022
:104D90002346144A002120E0384606F395F2002805
:104DA0000CD0E17B002907D1A978002904D16268E1
:104DB0006978520E914201D306F3E2F160687D22D8
:104DC0000102090CD2005143074A000E89184143E1
:104DD0007D200001034A091823462046503008F37D
:104DE000EFF1F8BD81701000E02E000070B515469F
:104DF000064602F081F9040003D102F09FF9040095
:104E000008D028784109012088400A2803DD20467F
:104E100002F036F970BD0020E070268069782171BB
:104E20001E4A6168AB781140EA78304612021A4394
:104E300052BA1202114361602979E171AA796B7942
:104E40001102194349BA2181697A2A7A0902114368
:104E500049BAA181E979A17001F0D8FF014628780B
:104E60004207920F921C5143C006800F6422801C9F
:104E700050434908400808186081642801D2642022
:104E80006081324606A108A0FDF214F32046618934
:104E90002346094A503008F393F170BDFF0000FF2C
:104EA00072657120686100003C692E25733E737243
:104EB000633A25640A000000F94C10001FB50C4647
:104EC0006946087304F310F203AA012102920091CB
:104ED000019121880923002203F3C6F31FBD10B5F9
:104EE000044686B0002004F3FBF4010E6A465173B9
:104EF000010C9173010AD1731074002004F3F7F4CC
:104F00006A46117BFD22C0071140800F01436A46AB
:104F10001173E07B002800D00120507404F3E4F109
:104F200003AB062201210293019200912188022302
:104F3000002203F399F306B010BD00000D4A10B52E
:104F40000021904201D9062111E00A4AC83A904254
:104F50000DD8094A904201D9072108E0E122D20088
:104F6000904204D87222054905A00CF0BDF908460C
:104F700010BD00003C0F0000480D00004C36110031
:104F8000300000007047000070B50024012000F0E0
:104F9000F3F802780C2A01D00A2100E00221274B05
:104FA000DD7C0A2D06D30C2A04D0457A032D01D0CE
:104FB000432441E09D7CA94333D10C2A0BD00D2A18
:104FC00004D00E2A24D00F2A03D121E0417A0329EC
:104FD00004D3402430E0417A0329FAD8817A0429A5
:104FE000F7D2002904D0417A0129F2D00229F0D069
:104FF0000A21A94304D0417A012912D0022910D0F4
:1050000000242146491CC9B2022901D2002CF9D042
:10501000197D4907490F022905D0407800280AD197
:105020000AE0422408E00C2A02D04178022902D08A
:105030004078002800D14924204670BD34FF12007A
:1050400070B5012000F098F804464188FF20013037
:105050008143C8B26180434D0300FCF698FD0B7D8F
:10506000077D7D555B6B6B6F7D7B7D0010233E4A1A
:10507000002128460AF7E8F8054602F73DFF0146F9
:105080006871207A6873E0886880A088288020781A
:1050900001230C280FD000220D281FD00E2827D066
:1050A0000F2823D031481146036E01209847284627
:1050B00009F780FA70BD2B20005D00280CD002207B
:1050C0002871A07AA87302290AD35120005D062214
:1050D0002146A8714B3113E00320F1E72A71F0E774
:1050E000AB710621E81DFCF610FDE0E7042000E0AE
:1050F00001202871AA73E07B06222146A87109319C
:10510000E81DFCF6E9FCD2E72146E07A0C3100F01C
:10511000F1F870BD144A2023D21C002128460AF75A
:1051200093F805462B20005D214628701F222C3164
:10513000681CE6E7204600F08DF870BD607A022812
:1051400004D10B4A08210B480AF744FB012003F75E
:1051500017FD70BD0020FAE7080A00020C306080DD
:1051600070BD000005080000062000008C00100043
:1051700050460000290D000010B50446032805D351
:1051800004480022036E1146012098470249A000FE
:10519000085810BD8C00100014FF1200F7B582B043
:1051A00017460446032805D328480022036E1146FB
:1051B00001209847002608200AF7DCF801900398A0
:1051C00000780090019808283CD02046FFF7D4FFD3
:1051D00001460398814234D0012001990025A04066
:1051E000084209D0012C01D002262BE043251DE006
:1051F0000099884204D07F1C38780028F8D11EE03E
:105200000006000E1BD00126039F032C05D30F4878
:105210000022036E1146012098470D49A0000F504F
:105220000121204604F745F9002D0BD003980AF719
:105230005EF801462A46009803F713FC02E0402579
:10524000F4E70126304605B0F0BD00008C001000E8
:1052500014FF120010B504468078062808D00728ED
:105260001BD01E480022036E11460120984710BD36
:105270000822052311461A4809F7E6FF1821017094
:105280006178012902D0022904D101E0402100E027
:10529000002101710AF710F810BD0623114A002100
:1052A000114809F7D1FF044606221049FCF614FC08
:1052B000204609F77FF90D482C38428B0C48824272
:1052C00000D802460648082115300AF783FA074835
:1052D000F7220C38017D1140017510BD8C001000C3
:1052E000160D0000052000000508000040FF120018
:1052F000983A000070B505460E460120FFF73CFFC6
:105300002023084A0021084809F79EFF044605703B
:105310001F223146401CFCF6DFFB204609F74AF904
:1053200070BD000008200000050800007CB50E4696
:1053300014A003C8009001910120FFF71DFF002871
:1053400009D000246A4631460120FFF727FF0546B1
:10535000012802D014E00124F4E7002C0ED0002034
:105360007080FFF711FE010003D0012003F75FFBFF
:1053700006E000221146012003F74CFFFFF760FE14
:1053800028467CBD0C0D0E0F00000000FFB581B05B
:105390001F460E46F22004F0C1FF05463178007A20
:1053A000081AC4B2224612A1032000F0CBFD224607
:1053B0000FA103200BF082FF052C15D11B233946CA
:1053C0001048039A09F740FF0446308820801520D2
:1053D000608000202071294615221131601DFCF6E5
:1053E0007BFB204609F768FF002005B0F0BD0000F8
:1053F00072656164206F74612068646C3A25640A88
:1054000000000000140C0000FFB581B000200090E7
:105410000E46039809F7AEFF002802D001284BD0B2
:105420004CE0142004F07AFF07463188FEF73AFF7B
:1054300005462448092D35D27C6803E02179A9422C
:1054400003D02468002CF9D117E0002C15D0637923
:10545000039A9B1D049909F7F7FE054630882880BA
:1054600000202871607968806279A11D681DFCF6B2
:1054700033FB284609F720FF20E03D740498010A19
:105480007974384604F042FF014601230E48039A1E
:1054900009F7DAFE057009F70FFF0121039809F7F4
:1054A00097FF0BE00623039A049909F7CDFE318894
:1054B000018080210171DDE702200090009805B095
:1054C000F0BD0000140C00000214000070B50D4681
:1054D0000A2219460C48FCF749FE04462888208019
:1054E0000021217161802A8808A1032000F02AFD93
:1054F0002A8806A103200BF0E1FE0021C9432046C3
:1055000004F070FA70BD0000140C0000706172614C
:105510006D2067617474635F77726974655F696E2B
:10552000643A25640A000000FFB583B01D460C46AE
:10553000F22004F0F3FE06462178007A081AC7B27A
:10554000059809F717FF0190280A009004232946BF
:105550004548059A09F778FE21880546018060884C
:10556000002804D0CF2241A14CA00BF0BDFE022F99
:105570000FD0032F67D0052F17D03A464CA1022039
:1055800000F0E0FC3A464AA102200BF097FE012011
:105590004BE0A288A11D02A8FCF69EFA02A8009B7F
:1055A000019A0599FEF7B2FD3FE03146009A019855
:1055B00006F07FF8002844D0A079009002463EA172
:1055C000032000F0BFFC3CA10320009A0BF076FE04
:1055D0002079E21D401EC3B2307C00282CD00099F7
:1055E0000292019130461C46F17B059F04F08EFE2D
:1055F0000146A31C3A46314809F726FE019901707D
:10560000447007462246801C0299FCF665FA38462B
:1056100009F752FE0098C108891943074A7C5B0FBD
:105620000120984002434A740020A870284609F7D8
:1056300043FE002007B0F0BD30460099FEF732FC73
:10564000E8E78020F1E7A0790090A3883A461CA102
:10565000032000F077FCA0790090A3883A4618A1B7
:1056600003200BF02BFEDFE7160C000069705C6274
:105670006C655C70726F66696C65735C62786F7480
:10568000615C62786F7461735C7372635C62786F83
:105690007461735F7461736B2E630000706172617B
:1056A0006D2D3E6F6666736574203D3D20300000B1
:1056B000696E76616C69642C25640A0004F200004E
:1056C000646573635F6366673A25642C25642C25E3
:1056D000640A000070B50C461D46042219460848AD
:1056E000FCF744FD2188018000218170491E04F0EF
:1056F00079F9A2882188280AA31D01F0D3F970BD89
:10570000160C0000FFB58BB0149D1E460746FF2BFC
:1057100002D900200FB0F0BD00240094019402943F
:1057200049226846039402700D22401CFCF6D4F90D
:1057300068468473C67306940794089409940476A3
:105740000121417687762A4631460D98FEF78AFA7E
:10575000203084B2102269462868FCF6BDF928681A
:10576000102206A91030FCF6B7F92868324620301E
:105770000D99FCF6B1F92046CCE70000014800681D
:1057800070470000283A110010B5002905D0012902
:1057900002D14803FEF764FC10BD01200003F9E7C5
:1057A000F0B5C3689D6E4A7A0C7A5207D60F012273
:1057B000A6401746A740BD432E439E66C3689E6B16
:1057C0004C7A1746E5070C7AED0FA540A740BE437B
:1057D00035439D63C368DE6B4C7A1746A407E50F1B
:1057E0000C7AA540A740BE433543DD63C468256BF2
:1057F0000E7A1346B3409D432B432363C068436B2B
:10580000097A8A4093434363F0BD0000012210B53A
:10581000D203002908D001290AD002290CD0242261
:10582000064907A00BF060FD06490860064801E044
:1058300005488030026010BD0448FBE7D8361100EF
:1058400030000000603A110000E100E080E200E07A
:1058500010B50120400407F06BF910BD10B50C0025
:105860000CD0012C0FD00A4609A1022000F06AFBDF
:10587000224607A102200BF021FD10BD01460B4876
:1058800005F02EFE10BD0146084805F075FE10BD5E
:10589000756E6578706563746564207379732073C1
:1058A0007461743A2025640A00000000083A11006F
:1058B00070B5294E0D467269044602219047F26880
:1058C0000021204690471F226068520180182968F5
:1058D000202203F0EFF915226068520180186968F0
:1058E000202203F0E7F90B22606892018018A96872
:1058F000202203F0DFF9092160688901401808229D
:10590000002105F09BFE13266068760180190822AD
:10591000002105F093FE05216068C90140180822A6
:10592000002105F08BFE172560686D0140190822E3
:10593000002105F083FE606801228019114605F000
:105940007DFE606801224019114605F077FE61680E
:105950000120886070BD0000643A110010B5002974
:1059600004D00120C0040BF0C3FE10BD0120800450
:10597000F9E7000010B52022002908D001290AD03B
:1059800002290CD01A22074907A00BF0ADFC0749E9
:105990000860074801E006488030026010BD0548F5
:1059A000FBE700001C371100300000007C3A1100BA
:1059B00000E100E080E200E010B50120C0050BF03E
:1059C000DFFE10BD10B50C0011D0012C14D00F4813
:1059D000022C16D0032C16D00A460DA1022000F08E
:1059E000B1FA22460AA102200BF068FC10BD014664
:1059F0000D4805F075FD10BD01460B4805F0BCFDD6
:105A000010BD012100E00021C17010BD203A11003D
:105A1000756E6578706563746564207379735F7300
:105A20007461743A25640A00143A110008B5CA0773
:105A300001D0426C00928A0701D5826C00920A075D
:105A400001D5C26C00928A0601D5026D00924A0609
:105A500001D5426D00920A0601D5826D0092CA05F9
:105A600001D5C26D00928A0501D5026E00924A05E9
:105A700001D5426E0092090501D5806E009008BDE7
:105A800010B5FF304130007D002903D0002809D037
:105A9000A02004E0002801D0502000E00520FEF7FF
:105AA000A5FA10BD0A20FAE770B5FF225532125C44
:105AB000FF300130046D3A483023CDB2002AEFF3B5
:105AC000108172B60DD02022026102689A430260F2
:105AD00010220261002900D162B60120FEF7C0FA4F
