S01E000052414D436F646553706563696669635F52656C656173652E6D6F74C2
S1130000A105FD05190633065F06670669060000AB
S11300105E4801210166FF2101607047F3B48368E3
S11300205B496A4612795824624389180022594C64
S1130030A34206D9CD692C43CC61574C1B190093BC
S113004007E0CC691B051B0D240B24031C43CC6166
S11300500092C3681E0B77077F0F08D0022F01D0D0
S113006002D306E0022403E00024022501E0002478
S113007000253605C027BF033740BC469E09B70399
S1130080E02676023E4067463E43B4465E0AF702E7
S1130090E026B6013E4067463E432406E70BC024F3
S11300A0E4003C4034432D066E0CC0256D00354001
S11300B025431E01702434402C43DB085B000E25CD
S11300C01D4025438D610A64C268D30CDB02F02411
S11300D0E4011C40D20BD201F023DB001340234384
S11300E002221A434A6402680A6040688860012058
S11300F06946097988408106890E0002FC22920132
S113010002400A43254802600098F6BC7047F0B4E8
S113011083B002000800224B01241968C140214029
S1130120FBD0012181400091996700998906890ECD
S1130130009D2D02FC26B6012E400E430296144962
S1130140582545434919134D002601960DE0120523
S1130150120D360B36031643CE61019A0EE01E686B
S1130160C6402640FBD0009E9E67002A0AD0AA42C1
S1130170CE69ECD92E43CE61074E9219074E029FE9
S11301803760ECE703B0F0BC70470000380312207E
S113019000001220FF0F000001F0FFFFA003122057
S11301A0C00212207CB506000D0014009F20694691
S11301B00870032301AA0121684600F055F901A83B
S11301C001783170417829708078207073BD000007
S11301D080B5AB20694608700121684600F0FCF840
S11301E001BD0000FEB504000E0C89B20191012E80
S11301F016DB150080277F0213A0694602680A6097
S11302006846210C4170210A8170C4703B002A00A9
S1130210042100F029F9E419ED19761EECD12A0025
S1130220019800280CD0684608A10B680360210CD3
S11302304170210A8170C470019B042100F014F9FB
S1130240002003B0F0BD0000030000000300000024
S113025038B504000D00062069460870012168467F
S113026000F0BAF8032D17D1684600BF1DA10A7823
S11302700270012100F0B0F805206946487001239E
S11302806A46012100A8401C00F0EEF86846007898
S1130290C007F1D4002032BD200A210C022D0AD15E
S11302A06A4600BF45A31D68156051709070D470F4
S11302B004216846DEE7012D6A4608D140A31D6883
S11302C0156051709070D47004216846D2E700BF65
S11302D03CA31D68156051709070D4700421684669
S11302E0C8E7000060007CB505000C00160006207D
S11302F0694608700121684600F06EF82300320058
S11303002900022000F078F805246846447001238F
S11303106A460121401C00F0A7F868460078C0072F
S1130320F3D473BDFEB505000C001600280A0002C4
S1130330A8420ED0802149004018401B2700844267
S113034000D9070039002800FFF7CDFFF619ED1991
S1130350E41B2002000CE1B20191012823DB3400EC
S1130360060080277F000620694608700121684640
S113037000F032F83B0022002900022000F03CF893
S113038005206946487001236A46012100A8401CE3
S113039000F06AF868460078C007F1D4ED19E41952
S11303A0761EE0D126000198002804D032000146D0
S11303B02800FFF798FF002003B0F0BDD80000002C
S11303C052000000200000003D4A00231360D0606A
S11303D03C48016093607047F8B584B006000F0094
S11303E0394C3A4820603C2020650025E564022011
S11303F0E0640120A06017E0F8B584B016001F0087
S1130400314C324A22603C2222650025E5640222F6
S1130410E2640122A26020660802000E206608043D
S1130420000E2066C8B22066684600BF29A11022CB
S113043000F060F8009620006030019002970021DF
S11304406846FFF7EBFD012121610021FFF75FFE04
S11304500120A16A89080840FAD0A06AC007FCD428
S1130460A560256105B0F0BDF0B585B01F00164C40
S1130470174B23607B1E6360072363650026E664D5
S11304800125E564A5600B0004D003782366401CB5
S1130490491EFAD1009201A812A1102200F02AF8F4
S11304A0009802900397002101A8FFF7B7FD25618A
S11304B00021FFF72CFEA660266105B0F0BD000008
S11304C008003020F0003020000030200001070038
S11304D0000307000000000000000000000000000E
S11304E04092000060003020000000000000000086
S11304F080A4000070B4103A03D378C9103A78C0CD
S1130500FBD2530701D318C918C001D508C908C0C4
S1130510D20704D30B880380891C801C002A01D5D0
S11305200B78037070BC704780B572B617481849D1
S113053001604160174A1160516000BF00BF00BFF5
S113054000BF00BF00BF14490A6807239A43012370
S113055013430B604A6F114B13404B6702690F231F
S11305609A430323134303610022D2434A65090CCF
S1130570816049088160FFF74BFD01210220FFF7EC
S113058023FFFFF725FE01BD00000000102013200B
S1130590555555551090142000102020FFFFFEFFE4
S11305A01CB55468FFF7C0FF6A4600A9491C00A89F
S11305B0801CFFF7F7FD012069460A78012191406C
S11305C0002222800823A370E27020716071A07160
S11305D0E27122726272A07220616261080BA061F2
S11305E094204003694689780170694649784170CE
S11305F06946097881705802E06113BD10B50C009A
S113060010004268416900694002400AFFF7EAFDB0
S113061000202060606010BD10B50C00100042681E
S1130620416900694002400AFFF77CFE0020206017
S113063010BD38B51469556900200860002D09D033
S113064000212000FFF704FE8020400124186D1EC5
S1130650F6D131BD03212000FFF7FAFD31BD80B58D
S10D0660FFF762FF01BD7047704709
S9030000FC
